:020000040800F2
:100000000000022081390008990100089D010008C4
:10001000A1010008A5010008A901000800000000D6
:10002000000000000000000000000000AD0100081A
:10003000B101000800000000B5010008B901000886
:10004000CD390008CD390008CD390008CD39000878
:10005000CD390008CD390008C9100008ED1000089E
:10006000111100083511000859110008CD39000898
:10007000CD390008CD390008CD390008CD39000848
:10008000CD390008CD390008150700080000000030
:100090000000000000000000000000007D110008CA
:1000A000CD390008CD390008CD390008CD39000818
:1000B00005310008313100085D310008CD390008F4
:1000C000CD390008CD390008CD390008FD2D0008D4
:1000D000A92E0008CD390008B91900080000000059
:1000E0004D120008CD390008CD390008000000008D
:1000F000000000000000000000000000CD390008F2
:1001000000000000CD39000889310008AD2E00083C
:1001100000000000000000000000000000000000DF
:10012000CD390008CD390008CD390008CD39000897
:10013000CD390008000000000000000000000000B1
:10014000000000000000000000000000CD390008A1
:10015000CD390008CD390008CD390008CD39000867
:10016000CD390008CD390008000000000000000073
:10017000000000000000000000000000000000007F
:1001800000000000CD390008000000000000000061
:08019000B12E0008B52E000895
:1001980000BF704700BFFDE700BFFDE700BFFDE7F8
:1001A80000BFFDE700BF704700BF704700BF704742
:1001B80000BF704782B003468DF807309DF80730BE
:1001C800052B00F2928001A252F823F0ED010008FD
:1001D800150200083D020008650200088D020008AB
:1001E800B5020008424B1B6803F00103002B71D1D4
:1001F8003F4B1B683E4A43F00103136000BF3C4B72
:100208001B6803F00203002BF9D063E0384B1B682E
:1002180003F48033002B5FD1354B1B68344A43F419
:100228005023136000BF324B1B6803F40033002BCC
:10023800F9D051E02E4B1B6803F08073002B4DD191
:100248002B4B1B682A4A43F08073136000BF284B6E
:100258001B6803F00073002BF9D03FE0244B1B68A8
:1002680003F08063002B3BD1214B1B68204A43F0ED
:100278008063136000BF1E4B1B6803F00063002BF4
:10028800F9D02DE01A4B5B6F03F00103002B29D145
:10029800174B5B6F164A43F00103536700BF144BBB
:1002A8005B6F03F00203002BF9D01BE0104B1B6FB0
:1002B80003F00103002B17D10D4B1B6F0C4A43F0C1
:1002C8000103136700BF0A4B1B6F03F00203002BE7
:1002D800F9D009E000BF08E000BF06E000BF04E075
:1002E80000BF02E000BF00E000BF00BF02B07047DF
:1002F8000038024082B003468DF807309DF8073079
:10030800052B39D801A252F823F000BF2D030008AD
:100318003B03000849030008570300086503000869
:1003280073030008164B1B68154A23F0010313607A
:1003380022E0134B1B68124A23F4502313601BE07E
:100348000F4B1B680E4A23F08073136014E00C4BAC
:100358001B680B4A23F0806313600DE0084B5B6F4A
:10036800074A23F00103536706E0054B1B6F044A55
:1003780023F00103136700BF00BF02B0704700BF3E
:100388000038024082B003468DF807300C4B9B685A
:1003980023F003029DF8073003F0030308491343D1
:1003A8008B6000BF064B9B689B0803F003029DF817
:1003B80007309A42F6D100BF00BF02B0704700BFB5
:1003C8000038024000B585B001900091019B072BD1
:1003D80008D8019A1346DB009B1A9B006A4A13440B
:1003E800039301E0694B0393039B1B78012B0CD10A
:1003F8000120FFF7DFFE0120FFF7C4FF0220FFF70F
:1004080079FF0020FFF776FF95E0039B1B78022B0E
:1004180040F085805E4B1B6C5D4A43F0805313644B
:10042800039B5B78012B09D10120FFF7C3FE584BD2
:100438005B68574A43F48003536008E00020FFF7E5
:10044800B9FE534B5B68524A23F480035360514B07
:100458001B6823F04052039BDB7A1B074D4913436B
:100468000B604B4B9B6823F47C4323F0F003039A07
:10047800127A1201D2B21A43039B5B7A9B0203F4ED
:10048800E0531A43039B9B7A5B039BB24049134397
:100498008B603F4B5A68404B1340039A127902F025
:1004A8003F021A43039B5B88990147F6C0730B40D0
:1004B8001A43039B5B795B08DBB2013B1B0403F423
:1004C80040331A43039B9B791B0603F07C53304946
:1004D80013434B600220FFF76DFE304B1B6823F07F
:1004E8000F02039BDB6803F00F0313432B4A43F40B
:1004F800E06313600220FFF745FF039B5B78012B45
:1005080009D1234B1B6803F00103002B03D0002003
:10051800FFF7F0FE0FE00120FFF7ECFE0BE00020F4
:10052800FFF748FE0020FFF72DFF0220FFF7E2FE4D
:100538000120FFF7DFFE039B1A69009B1A60039BEB
:100548005A69009B5A60039B5B7A002B02D1039B7C
:100558005B6902E0039B5B695B00009A9360039B05
:100568009A69009BDA60039B9B7A002B02D1039B5C
:100578009B6902E0039B9B695B00009A136100BFC3
:1005880005B05DF804FB00BF0000002070000020EB
:1005980000380240007000400080FCF0003C02403F
:1005A80008B5184BD3F88830164A43F47003C2F8DC
:1005B8008830154B1B68144A43F001031360124B33
:1005C80000229A60104B1B680F4A23F0847323F4AF
:1005D800803313600C4B0D4A5A600B4B1B680A4A58
:1005E80023F480231360084B0022DA6008490220B4
:1005F800FFF7E8FE034B4FF000629A6000F00AF83C
:1006080000BF08BD00ED00E00038024010300024B3
:10061800CC00002086B00023049300230593022316
:1006280003930023029302230193334B9B6803F047
:100638000C030493049B082B11D0049B082B44D86B
:10064800049B002B03D0049B042B04D03DE02B4BD0
:100658002B4A1A603DE0294B2A4A1A6039E0264B9A
:100668005B689B0D03F001030293234B5B6803F067
:100678003F030193029B002B0CD0224A019BB2FB43
:10068800F3F31D4A52689209C2F3080202FB03F30E
:1006980005930BE01A4A019BB2FBF3F3164A526822
:1006A8009209C2F3080202FB03F30593124B5B683D
:1006B8001B0C03F0030301335B000393059A039BB0
:1006C800B2FBF3F30D4A136003E00C4B0C4A1A60BB
:1006D80000BF094B9B681B0903F00F030A4AD35C50
:1006E8000493064B1A68049B22FA03F3034A136027
:1006F80000BF06B0704700BF00380240A8000020C5
:100708000024F40000127A00C03C000800B585B04F
:10071800314B1B681B6803932F4B1B681B680393A3
:10072800039B03F00203002B47D02C4B1B682C4A79
:10073800A2FB03239B08C3F102030293274B19680A
:10074800274BA3FB01239A0813465B0013445B0065
:10075800CA1A13469B00134401931F4B1A68029B45
:100768000A339B0013445A68019B22FA03F303F0EF
:100778001F0300931B4B1B68002B09D0194B1B68E8
:10078800009A90B2144A1268D26C92B211469847F5
:10079800154B1B68012B0CD9104B1B680133124AEF
:1007A8001268B3FBF2F101FB02F29B1A0B4A1360C9
:1007B8000EE00A4B00221A600AE0039B03F02003B4
:1007C800002B05D0094B1B68084A23F0200313604F
:1007D80000BF05B05DF804FB203C0008E4000020E1
:1007E800ABAAAAAAE0000020E800002000200140EF
:1007F80000B589B0039002910192264B1B68039AB9
:100808009A4218D1039B029A5A60234B5B6C224A86
:1008180043F480735364214B186800234FF440322B
:10082800032100F08DFD12238DF81B30052305935D
:100838000023079325E04FF0FF3327E0184BDB68D0
:10084800079A01325200B3FBF2F3164A934215D8C5
:10085800079B1A04144B5A60144B00221A60144B5D
:1008680000221A600E4BDB68079A01325200B3FB74
:10087800F2F3104A13600F4B1B6807E0079B013324
:100888000793079B032BD9DD4FF0FF33184609B0B8
:100898005DF804FB203C0008003802404C3C00088E
:1008A800CC0000207FC3C90100230140F4000020D0
:1008B800F8000020EC00002084B001900091009B1B
:1008C800122B01D9002361E0324B01221A60009BF0
:1008D800102B08D1304B5B6823F440032E4A43F4B5
:1008E8000003536016E0009B112B08D12A4B5B686C
:1008F80023F44003284A43F4000353600AE0009BB2
:10090800122B07D1244B5B6823F44003224A43F49B
:1009180080035360214B1B68D96A1E4B1B681B055B
:1009280003F47003DA431D4B1B680A40DA621B4B61
:100938001B685A6B194B1B6822F01F025A63174B2E
:100948001B68596B154B1B68009A0A435A63134B73
:100958001B689A68114B1B6842F080429A6000BF7E
:100968000E4B1B681B6803F00203002BF8D10B4BDE
:100978001B68DB6CADF80E30084B1B681A68074B18
:100988001B6822F002021A60BDF80E30184604B047
:10099800704700BFE800002000230140203C000809
:1009A80084B0039002910192029B122B03D8194B39
:1009B8001B68082B02D14FF0FF3328E0029B102B55
:1009C80008D1154B5B6823F44003134A43F4000332
:1009D800536016E0029B112B08D10F4B5B6823F480
:1009E80040030D4A43F4000353600AE0029B122BB4
:1009F80007D1094B5B6823F44003074A43F480039B
:100A08005360044B1B680133024A136000231846E5
:100A180004B07047E80000200023014082B0019034
:100A28000091019B5B6803F40063002B00F0A28037
:100A3800009BB3F17C5F7ED0009BB3F17C5F7CD8D8
:100A4800009BB3F13C5F7AD0009BB3F13C5F74D854
:100A5800009BB3F1F85F74D0009BB3F1F85F6CD8DA
:100A6800009BB3F1E05F6ED0009BB3F1E05F64D808
:100A7800009BB3F1D85F68D0009BB3F1D85F5CD816
:100A8800009BB3F1D05F62D0009BB3F1D05F54D824
:100A9800009BB3F1C85F5CD0009BB3F1C85F4CD832
:100AA800009BB3F1C05F41D0009BB3F1C05F44D855
:100AB800009BB3F1B85F4ED0009BB3F1B85F3CD850
:100AC800009BB3F1B05F2CD0009BB3F1B05F34D87A
:100AD800009BB3F1A85F40D0009BB3F1A85F2CD86E
:100AE800009BB3F1A05F3AD0009BB3F1A05F24D87C
:100AF800009BB3F1985F34D0009BB3F1985F1CD88A
:100B0800009BB3F1905F2ED0009BB3F1905F14D897
:100B1800009BB3F1805F28D0009BB3F1885F26D09B
:100B28000BE0174B1B68174A136021E0164B1B6834
:100B3800144A13601CE000BF1AE000BF18E000BFB1
:100B480016E000BF14E000BF12E000BF10E000BFD5
:100B58000EE000BF0CE000BF0AE000BF08E000BFE5
:100B680006E000BF04E000BF02E000BF00E000BFF5
:100B7800002301E04FF0FF33184602B0704700BF72
:100B8800D43B0008F4000020D83B000882B0019054
:100B9800019B9B6843F08042019B9A6000BF02B0B2
:100BA800704782B00190019B9B6823F08042019BB3
:100BB8009A6000BF02B0704788B00190019B5B68E3
:100BC80003F40063002B14D0614B1B68002B10D07A
:100BD800604B9A685E4B1B689B6A01335C490968E5
:100BE800C96A013101FB03F3B2FBF3F35A4A1360FC
:100BF800A9E000230793002306935BE0069B574A6E
:100C0800A2FB0323DB08C3F1010304930699534BAA
:100C1800A3FB0123DA0813469B0013445B00CA1A9E
:100C280013465B0013440393019A049B02339B0011
:100C380013445A68039B22FA03F303F0070305934E
:100C4800059B072B33D801A252F823F0750C000836
:100C58007D0C0008850C00088D0C0008950C000818
:100C68009D0C0008A50C0008AD0C0008079B033379
:100C780007931CE0079B0F33079318E0079B1C336F
:100C8800079314E0079B3833079310E0079B54330E
:100C980007930CE0079B7033079308E0079B90339A
:100CA800079304E0079B03F5F073079300BF069BC7
:100CB800013306932A4B1B68069A9A429ED3019BDE
:100CC8005B681B0E03F003030593059B032B33D8C6
:100CD80001A252F823F000BFF10C0008070D00082C
:100CE8001D0D00082B0D00081D4B1A6813465B00EC
:100CF80013449B001A46079B134407931CE0184BA8
:100D08001A6813469B0013445B001A46079B13445A
:100D1800079311E0124B1B68DB00079A13440793F3
:100D28000AE00F4B1A6813465B0013445B001A462F
:100D3800079B1344079300BF0A4B1A68079BB2FB33
:100D4800F3F3054A1360044B1B68184608B0704754
:100D5800F4000020CC000020F0000020CDCCCCCC4A
:100D6800E8000020EC00002000B583B001900449A1
:100D7800019800F035FF00BF03B05DF804FB00BF29
:100D8800D03C000800B585B0039002910192019B08
:100D9800029A0449039800F03BFF00BF05B05DF8D4
:100DA80004FB00BFE03C000882B00190019B0022D8
:100DB800C3F8D020019B0022C3F8CC20019BD3F8B4
:100DC800CC20019BC3F8C82000BF02B0704782B096
:100DD80001900B46ADF802301346ADF80030019B88
:100DE800D3F8D030322B02D14FF0FF3328E0019BEB
:100DF800D3F8C820019BBDF8021023F81210019BFC
:100E0800D3F8C830019A30335B001344BDF8002092
:100E18009A80019BD3F8C8305A1C0B4BA3FB0213D2
:100E28001B09322101FB03F3D31A019AC2F8C83017
:100E3800019BD3F8D0305A1C019BC3F8D020002363
:100E4800184602B0704700BF1F85EB5184B003906D
:100E580002910192039BD3F8D030002B02D14FF0BE
:100E6800FF332AE0039BD3F8CC20039B33F81230DE
:100E78009AB2029B1A80039BD3F8CC30039A303382
:100E88005B0013449B889AB2019B1A80039BD3F89A
:100E9800CC305A1C0A4BA3FB02131B09322101FB5D
:100EA80003F3D31A039AC2F8CC30039BD3F8D0309B
:100EB8005A1E039BC3F8D0200023184604B070477D
:100EC8001F85EB5182B003468DF80730034A9DF821
:100ED8000730137000BF02B0704700BFFC0000204D
:100EE80000B583B001F042FE01F066F84B4B1B6879
:100EF800002200211846FFF77BFC0190484B186838
:100F0800484B00224FF4E13100F09CFD444B1B6834
:100F18001846FFF729FF424B1B684349184600F063
:100F280077FE00BF414B1B78DBB2002BFAD03F4B5A
:100F38001B78DBB2742B5AD0742B6BDC722B43D02A
:100F4800722B67DC622B2CD0622B63DC302B02D037
:100F5800312B13D05EE0314B1B6800211846FFF798
:100F6800ABFC03461A46324B1A802D4B1868304B9F
:100F78001B8800222F4900F04BFE4BE0274B1B68D3
:100F880001211846FFF798FC03461A46284B1A8099
:100F9800234B1868264B1B880122264900F038FE8F
:100FA80038E01E4B1B6812211846FFF785FC0346E4
:100FB8001A461F4B1A801A4B1B681D4A12881E4975
:100FC800184600F025FE25E0144B1B681121184631
:100FD800FFF772FC03461A46154B1A80104B1B6824
:100FE800134A12881549184600F012FE12E00B4BFE
:100FF8001B6810211846FFF75FFC03461A460C4B86
:101008001A80074B1B680A4A12880D49184600F0D7
:10101800FFFD00BF054B00221A707CE7203C00084A
:10102800003C0008CD0E0008EC3C0008FC00002045
:10103800FE000020083D0008203D0008383D00085B
:10104800503D000882B003468DF8073007499DF9E6
:1010580007305B099DF8072002F01F02012000FA03
:1010680002F241F8232000BF02B0704700E100E01F
:1010780082B0034600918DF807309DF90730002BA8
:101088000CDA0D499DF8073003F00F03043B009A72
:10109800D2B21201D2B20B441A7609E007499DF97F
:1010A8000730009AD2B21201D2B20B4483F800235F
:1010B80000BF02B0704700BF00ED00E000E100E0B3
:1010C80008B5064B1B68002B02D0044B1B689847D9
:1010D800034B1B6801225A6100BF08BD00010020B4
:1010E800383C000808B5064B5B68002B02D0044B5F
:1010F8005B689847034B1B6802225A6100BF08BD12
:1011080000010020383C000808B5064B9B68002BFE
:1011180002D0044B9B689847034B1B6804225A6112
:1011280000BF08BD00010020383C000808B5064B88
:10113800DB68002B02D0044BDB689847034B1B6825
:1011480008225A6100BF08BD00010020383C000891
:1011580008B5064B1B69002B02D0044B1B69984746
:10116800034B1B6810225A6100BF08BD0001002014
:10117800383C000808B5314B1B685B6903F0200355
:10118800002B0BD02E4B5B69002B02D02C4B5B69DC
:1011980098472A4B1B6820225A614CE0274B1B6852
:1011A8005B6903F04003002B0BD0254B9B69002B98
:1011B80002D0234B9B699847204B1B6840225A61F9
:1011C80039E01E4B1B685B6903F08003002B0BD0D2
:1011D8001B4BDB69002B02D0194BDB699847174B77
:1011E8001B6880225A6126E0144B1B685B6903F474
:1011F8008073002B0CD0124B1B6A002B02D0104BB3
:101208001B6A98470D4B1B684FF480725A6112E0B5
:101218000A4B1B685B6903F40073002B0BD0084B67
:101228005B6A002B02D0064B5B6A9847034B1B682E
:101238004FF400725A6100BF08BD00BF383C000877
:101248000001002008B53C4B1B685B6903F4806310
:10125800002B0CD0394B9B6A002B02D0374B9B6A72
:101268009847354B1B684FF480625A6162E0324BF5
:101278001B685B6903F40063002B0CD02F4BDB6AFF
:10128800002B02D02D4BDB6A98472B4B1B684FF481
:1012980000625A614EE0284B1B685B6903F4805377
:1012A800002B0CD0254B1B6B002B02D0234B1B6B48
:1012B8009847214B1B684FF480525A613AE01E4B05
:1012C8001B685B6903F40053002B0CD01B4B5B6B52
:1012D800002B02D0194B5B6B9847174B1B684FF4D8
:1012E80000525A6126E0144B1B685B6903F4804383
:1012F800002B0CD0114B9B6B002B02D00F4B9B6B20
:1013080098470D4B1B684FF480425A6112E00A4B14
:101318001B685B6903F40043002B0BD0074BDB6BA6
:10132800002B02D0054BDB6B9847034B1B684FF42F
:1013380000425A6100BF08BD383C00080001002087
:1013480010B596B00390019200930B46ADF80A30A1
:10135800A34B1B68039A9A4208D1A24B1B68A14A67
:101368001268126B42F001021A6344E09E4B1B683C
:10137800039A9A4208D19B4B1B689A4A1268126BCF
:1013880042F002021A6336E0984B1B68039A9A42AD
:1013980008D1944B1B68934A1268126B42F00402FE
:1013A8001A6328E0924B1B68039A9A4208D18D4B26
:1013B8001B688C4A1268126B42F008021A631AE022
:1013C8008C4B1B68039A9A4208D1864B1B68854A46
:1013D8001268126B42F010021A630CE0864B1B680D
:1013E800039A9A4207D17F4B1B687E4A1268126B98
:1013F80042F080021A63019B03F00F030993019BDB
:101408001B0903F003030893019B9B0903F00103E5
:101418000793019B1B0A03F003030693019B03F444
:1014280040330593039B1B681593039BDB68149358
:10143800039B5B681393039B9B6812930123ADF88E
:101448004630002310934EE0BDF80A20BDF8463020
:1014580013409BB2002B3ED0109B5B00032202FA84
:1014680003F3DB431A46159B1A40059B190C109B86
:101478005B0001FA03F313431593109B5B000322EF
:1014880002FA03F3DB431A46149B1A40109B5B00D5
:10149800069901FA03F3134314930122109B02FAED
:1014A80003F3DB431A46139B1A400799109B01FA72
:1014B80003F313431393109B5B00032202FA03F315
:1014C800DB431A46129B1A40109B5B00089901FAED
:1014D80003F313431293BDF846305B00ADF8463072
:1014E800109B01331093109B0F2BADDD039B159AB6
:1014F8001A60039B149ADA60039B139A5A60039B41
:10150800129A9A60059BB3F5003F5ED1039B1B6A54
:101518000F93039B5B6A0E930123ADF846300023BB
:101528000D931FE0BDF80A20BDF8463013409BB26A
:10153800002B0FD00D9B9B000F2202FA03F3DB4315
:101548001A460F9B1A400D9B9B00099901FA03F359
:1015580013430F93BDF846305B00ADF846300D9B42
:1015680001330D930D9B072BDCDD039B0F9A1A6249
:101578004FF48073ADF8463000230C931FE0BDF89C
:101588000A20BDF8463013409BB2002B0FD00C9BAD
:101598009B000F2202FA03F3DB431A460E9B1A4004
:1015A8000C9B9B00099901FA03F313430E93BDF8B2
:1015B80046305B00ADF846300C9B01330C930C9B16
:1015C800072BDCDD039B0E9A5A62009B002B01D18E
:1015D800002336E1059B002B10D04FF0FF3330E19C
:1015E8004C3C0008683C0008503C0008543C00088B
:1015F800583C00085C3C0008603C000800230B9342
:10160800914B1B68039A9A4202D100230B9326E060
:101618008E4B1B68039A9A4202D101230B931EE05A
:101628008B4B1B68039A9A4202D102230B9316E054
:10163800884B1B68039A9A4202D103230B930EE04E
:10164800854B1B68039A9A4202D104230B9306E048
:10165800824B1B68039A9A4201D107230B930123FB
:10166800ADF8463000230A93E6E0BDF80A20BDF83D
:10167800463013409BB2002B00F0D680784B1B6895
:10168800774A1268526C42F480425A64754B1B6860
:101698000A9A9210734909680A988010023051F822
:1016A80020100A98800000F00C000F2404FA00F0C3
:1016B800C04308400A99890001F00C010B9C04FA08
:1016C80001F10143023243F82210674B1B68664A56
:1016D80012681168BDF846200A431A60624B1B68FD
:1016E800614A12685268BDF84610C9430A405A60F8
:1016F800019B03F48053002B09D05B4B1B685A4AAB
:1017080012689168BDF846200A439A6009E0564B72
:101718001B68554A12689268BDF84610C9430A40CA
:101728009A60019B03F40053002B09D04E4B1B68B1
:101738004D4A1268D168BDF846200A43DA6009E0CC
:10174800494B1B68484A1268D268BDF84610C9431D
:101758000A40DA6045490A9B009A41F82320424B27
:101768001B68BDF846205A610A9B0F2B5AD801A264
:1017780052F823F0BD170008CD170008DD17000840
:10178800ED170008FD1700080D1800080D180008CF
:101798000D1800080D1800080D1800081D1800087D
:1017A8001D1800081D1800081D1800081D1800083D
:1017B8001D18000808210620FFF75AFC0620FFF72D
:1017C80041FC31E008210720FFF752FC0720FFF712
:1017D80039FC29E008210820FFF74AFC0820FFF718
:1017E80031FC21E008210920FFF742FC0920FFF71E
:1017F80029FC19E008210A20FFF73AFC0A20FFF724
:1018080021FC11E008211720FFF732FC1720FFF711
:1018180019FC09E008212820FFF72AFC2820FFF7F7
:1018280011FC01E000230CE0BDF846305B00ADF888
:1018380046300A9B01330A930A9B0F2B7FF715AF9B
:101848000023184616B010BD4C3C0008503C000858
:10185800543C0008583C00085C3C0008603C000808
:10186800683C0008343C0008383C000800010020AF
:1018780082B001900B46ADF80230019B1A69BDF8A1
:1018880002301340184602B0704700BF82B0019082
:101898000B46ADF802301346ADF80030BDF8022013
:1018A800BDF8003013409BB21946BDF80230DA4348
:1018B800BDF8003013401B0441EA0302019B9A6102
:1018C80000BF02B0704700BF82B001900B46ADF870
:1018D80002301346ADF80030BDF80230DA43BDF8E7
:1018E80000301A40BDF80210BDF800300B409BB222
:1018F8001B041A43019B9A6100BF02B0704700BFE6
:1019080082B001900B46ADF80230BDF80220019B71
:101918009A6100BF02B0704782B001900B46ADF8E3
:101928000230BDF802301A04019B9A6100BF02B070
:10193800704700BF82B003468DF8073007499DF90C
:1019480007305B099DF8072002F01F02012000FA0A
:1019580002F241F8232000BF02B0704700E100E026
:1019680082B0034600918DF807309DF90730002BAF
:101978000CDA0D499DF8073003F00F03043B009A79
:10198800D2B21201D2B20B441A7609E007499DF986
:101998000730009AD2B21201D2B20B4483F8002366
:1019A80000BF02B0704700BF00ED00E000E100E0BA
:1019B80000B583B0214B1B681B680193019B03F0A2
:1019C8002003002B1AD0019B03F00403002B11D134
:1019D800019B03F00403002B0CD1194B1B68002B4F
:1019E80027D0174B1B68154A12685268D2B21046A6
:1019F80098471EE0114B1B685B681AE0019B03F0D7
:101A08001003002B03D00D4B1B685B6811E0019B92
:101A180003F00803002B03D0084B1B685B6808E041
:101A2800019B03F00103002B03D0044B1B685B6888
:101A3800FFE700BF03B05DF804FB00BF003C0008EF
:101A48004001002000B587B00390029101920093F5
:101A5800404B1B68039A9A4202D14FF0FF3375E05E
:101A68003D4B1B68039A9A4253D13C4B1B683B4A37
:101A78001268126C42F400321A64394B1868002359
:101A8800384A0C21FFF75CFC374A009B1360262379
:101A98008DF8173003230493344B5B685A00029B7C
:101AA8001A44029B5B00B2FBF3F2039B9A60039B10
:101AB80000229A61039B5B6923F47F6323F00F0381
:101AC800039A5361039B1B6923F4FE4323F07F03AE
:101AD800019A1209120302F440521A43039B1A6135
:101AE800039BDB6823F43F4323F0FF03019A1203AF
:101AF80002F480521A43019B03F4E063134343F456
:101B0800005343F00C03039AD360009B002B1CD0B6
:101B18000AE0174B1B68039A9A4202D14FF0FF3331
:101B280014E04FF0FF3311E09DF91730049918467F
:101B3800FFF716FF9DF917301846FFF7FBFE039BCA
:101B4800DB6843F02002039BDA600123184607B0E4
:101B58005DF804FB183C0008003C0008683C0008DD
:101B68004C3C00080700020040010020CC00002087
:101B78001C3C000882B0019000BF019B1B6803F069
:101B88002003002BF9D0019B5B68DBB2184602B03A
:101B9800704700BF82B001900091019B1B6803F061
:101BA8002003002B04D0019B5B68DAB2009B1A70FB
:101BB8000023184602B0704782B001900B468DF89A
:101BC800033000BF019B1B6803F08003002BF9D092
:101BD8009DF80320019B5A6000BF02B0704700BF08
:101BE80000B583B001900091009B002B0CD007E05A
:101BF800009B5A1C00921B7819460198FFF7DCFFDE
:101C0800009B1B78002BF3D100BF03B05DF804FBE9
:101C18000EB400B590B0019012AB0C9381E0119B0B
:101C28001B78252B74D1119B01331193119B1B78C1
:101C3800642B29D0642B04DC252B09D0632B0CD012
:101C48005FE0752B3BD0782B4AD0732B12D058E02D
:101C580025210198FFF7B0FF60E00C9B1A1D0C923C
:101C68001B688DF83B309DF83B3019460198FFF70B
:101C7800A3FF53E00C9B1A1D0C921B680D930D9942
:101C88000198FFF7ADFF49E00C9B1A1D0C921B68E9
:101C98000F930F9B002B06DA2D210198FFF78CFF7D
:101CA8000F9B5B420F9303AB0A220F99184600F073
:101CB80043F803AB19460198FFF792FF2EE00C9BFF
:101CC8001A1D0C921B680F9303AB0A220F99184632
:101CD80000F032F803AB19460198FFF781FF1DE0C9
:101CE8000C9B1A1D0C921B680F9303AB10220F99C3
:101CF800184600F021F803AB19460198FFF770FF6A
:101D08000CE0119B1B7819460198FFF755FF05E079
:101D1800119B1B7819460198FFF74EFF119B013361
:101D28001193119B1B78002B7FF479AF00BF10B083
:101D38005DF804EB03B0704788B0039002910192FC
:101D4800039B0693039B5A1C0392029A0199B2FBC8
:101D5800F1F1019800FB01F1521A1D498A5C1A70D1
:101D6800029A019BB2FBF3F30293029B002BE9D189
:101D7800039B00221A70039A069BD31A059300232B
:101D880007931CE0079B069A13441B788DF81330C1
:101D9800079B069A1344079A05998A1A013A0699E5
:101DA8000A4412781A70079B059AD31A013B069ABF
:101DB80013449DF813201A70079B01330793059B62
:101DC8005A08079B9A42DDD800BF08B0704700BF89
:101DD800AC00002086B00190009100230593019B80
:101DE8005A1C01921B788DF80F3038E09DF80F309F
:101DF8002F2B08D99DF80F30392B04D89DF80F30B8
:101E0800303B04931EE0009B102B0CD19DF80F3043
:101E1800402B08D99DF80F30462B04D89DF80F3079
:101E2800373B04930EE0009B102B1CD19DF80F301C
:101E3800602B18D99DF80F30662B14D89DF80F30F9
:101E4800573B0493009B059A02FB03F2049B13443F
:101E58000593019B5A1C01921B788DF80F309DF851
:101E68000F30002BC2D1059B184606B0704700BF43
:101E780000B583B003468DF807300F4B1B684FF44D
:101E880080711846FFF748FD0C4B1B684021184627
:101E9800FFF742FD0A4B1B689DF8072011461846BC
:101EA80001F0D2F8054B1B6840211846FFF728FDC2
:101EB80000BF03B05DF804FB4C3C0008503C000830
:101EC8002C3C000800B583B003468DF807300F4B53
:101ED8001B684FF480711846FFF712FD0C4B1B6806
:101EE80040211846FFF718FD0A4B1B689DF807208C
:101EF8001146184601F0A8F8054B1B684021184602
:101F0800FFF7FEFC00BF03B05DF804FB4C3C000883
:101F1800503C00082C3C000800B583B001900091AB
:101F28000E4B1B684FF480711846FFF7E9FC0C4B09
:101F38001B6840211846FFF7EFFC0A4B1B68009A04
:101F48000199184601F048F8054B1B6840211846CE
:101F5800FFF7D6FC00BF03B05DF804FB4C3C00085B
:101F6800503C00082C3C000800B583B000230193C6
:101F780018E00020FFF77CFF1020FFF779FF019B96
:101F8800DBB2503BDBB21846FFF772FF019BDB0167
:101F98001A46084B134480211846FFF7BDFF019BE2
:101FA80001330193019B032BE3DD00BF03B05DF810
:101FB80004FB00BF5401002008B5374B1B680322FF
:101FC8003649184600F074FF354B18680023354A27
:101FD8004FF48071FFF7B4F9334B18680023314A86
:101FE8004021FFF7ADF92E4B186800232D4A4021F8
:101FF800FFF7A6F92A4B1B6840211846FFF780FC1B
:10200800274B1B684FF480711846FFF785FC264B59
:102018001B6840211846FFF773FC214B1B684021C1
:102028001846FFF779FC214B1B680022322118461D
:1020380001F088F91A4B1B6840211846FFF760FC2D
:102048001A4B1B6800220521184601F0AFF8AE2094
:10205800FFF70EFFA220FFF70BFFA020FFF708FFF6
:10206800C820FFF705FF2220FFF702FF2F20FFF708
:10207800FFFE4020FFF7FCFEAF20FFF7F9FE8120AE
:10208800FFF7F6FE1720FFF7F3FEA620FFF7F0FE96
:102098000023184608BD00BF2C3C0008002D310164
:1020A8004C3C000810000100503C0008E03B0008D0
:1020B80000B583B00190094A019B13608120FFF7A6
:1020C800D7FE019BDBB203F03F03DBB21846FFF7F4
:1020D800CFFE00BF03B05DF804FB00BF4C01002039
:1020E800014B1B68184670474C0100208023184696
:1020F800704700BF20231846704700BF00B583B063
:102108000190019B002B03D1A620FFF7B1FE02E04E
:10211800A720FFF7ADFE00BF03B05DF804FB00BFCA
:1021280082B00190024A019B136000BF02B0704761
:1021380050010020014B1B6818467047C40000205E
:1021480000B583B00190064A019B1360044B1B68DD
:10215800002B01D0FFF708FF00BF03B05DF804FBB8
:10216800C400002084B0039002910192039B7F2B4E
:102178007ADC029B1F2B77DC039B002B74DB029B12
:10218800002B71DB3A4B1B68002B48D1019B002BBD
:1021980023D1029B002B00DA0733DB10D901039A05
:1021A8000A44D901039B0B443249CB5CD8B202994B
:1021B800314B0B40002B03DA013B63F0070301337B
:1021C800194601238B40DBB2DB43DBB201460B40EF
:1021D800DBB2D9B2274B995447E0029B002B00DAB7
:1021E8000733DB10D901039A0A44D901039B0B4436
:1021F8002049CB5CD8B202991F4B0B40002B03DA65
:10220800013B63F007030133194601238B40DBB21E
:1022180001460B43DBB2D9B2164B995425E0019B1A
:10222800012B22D1029B002B00DA0733DB10D901E6
:10223800039A0A44D901039B0B440E49CB5CD8B2DC
:1022480002990D4B0B40002B03DA013B63F00703A7
:102258000133194601238B40DBB201464B40DBB208
:10226800D9B2044B995400E000BF04B0704700BFD6
:1022780050010020540100200700008082B0019026
:102288000091044A019B1360034A009B136000BF3E
:1022980002B07047440100204801002008B54FF4FF
:1022A80000720021054801F095FB00210020FFF78E
:1022B800E5FFFFF759FE00BF08BD00BF540100202D
:1022C80000B58DB00390029101920093002308930A
:1022D8000023079300230B9300230A9300230693FC
:1022E8000023059300230993019A039BD31A0893AB
:1022F800009A029BD31A0793089B002B02DD012347
:102308000B9302E04FF0FF330B93079B002B02DD8A
:1023180001230A9302E04FF0FF330A93089B0B9ABC
:1023280002FB03F30893079B0A9A02FB03F3079344
:10233800089B5B000693079B5B000593089A079B25
:102348009A4229DB059A089BD31A09931AE00E9A38
:1023580002990398FFF706FF039A0B9B1344039314
:10236800099B002B04DA099A059B1344099309E099
:10237800059A069BD31A099A13440993029A0A9B51
:1023880013440293039A019B9A42E0D10E9A029950
:102398000398FFF7E7FE28E0069A079BD31A0993EC
:1023A8001AE00E9A02990398FFF7DCFE029A0A9B3C
:1023B80013440293099B002B04DA099A069B1344E1
:1023C800099309E0069A059BD31A099A13440993BD
:1023D800039A0B9B13440393029A009B9A42E0D101
:1023E8000E9A02990398FFF7BDFE054B1B68002B58
:1023F80001D0FFF7B9FD00BF0DB05DF804FB00BFC9
:10240800C400002000B587B00590049103920293A0
:10241800039A059B9A4208DD089B0093049B039A44
:1024280004990598FFF74CFF07E0089B0093049B6D
:10243800059A04990398FFF743FF029A049B9A426E
:1024480008DD089B0093029B059A04990598FFF7FD
:1024580037FF07E0089B0093049B059A02990598AB
:10246800FFF72EFF039A059B9A4208DD089B00930D
:10247800029B039A02990598FFF722FF07E0089B41
:102488000093029B059A02990398FFF719FF029A95
:10249800049B9A4208DD089B0093029B039A0499C7
:1024A8000398FFF70DFF07E0089B0093049B039A2E
:1024B80002990398FFF704FF044B1B68002B01D017
:1024C800FFF752FD00BF07B05DF804FBC400002011
:1024D80000B589B00390029101920093039A019B81
:1024E8009A4205DD039B0593019B0393059B01938A
:1024F800029A009B9A4205DD029B0593009B02937A
:10250800059B0093039B079311E0029B069307E04A
:102518000A9A06990798FFF725FE069B013306934A
:10252800069A009B9A42F3DD079B01330793079AAB
:10253800019B9A42E9DD054B1B68002B01D0FFF790
:1025480013FD00BF09B05DF804FB00BFC400002004
:1025580000B599B00390029101920093019B002B62
:1025680000F0C580039B1593159B1793029A019B56
:1025780013441493149B1693009A16991798FFF70F
:10258800F1FD039B1193119B1393029A019BD31A9C
:102598001093109B1293009A12991398FFF7E2FD7B
:1025A800039A019B13440B930B9B0F93029B0A9373
:1025B8000A9B0E93009A0E990F98FFF7D3FD039A82
:1025C800019BD31A0993099B0D93029B0893089BBF
:1025D8000C93009A0C990D98FFF7C4FD019B012BF1
:1025E80000F08780019B5B00C3F103030593002380
:1025F8000793019B06936FE0059B002B06DA079B68
:102608009B000633059A1344059322E0079A069B1C
:10261800D31A9B000A33059A13440593069B013B82
:102628000693169B013B1693149B013B1493129B34
:1026380001331293109B013310930F9B013B0F93AF
:102648000D9B01330D930B9B013B0B93099B0133AE
:102658000993079B01330793179B01331793159B26
:10266800013B1593139B01331393119B013B11936A
:102678000E9B01330E930C9B01330C930A9B013B79
:102688000A93089B013B0893009A16991798FFF73D
:1026980069FD009A14991598FFF764FD009A12993C
:1026A8001398FFF75FFD009A10991198FFF75AFDEC
:1026B800009A0E990F98FFF755FD009A0C990D98FE
:1026C800FFF750FD009A0A990B98FFF74BFD009A07
:1026D80008990998FFF746FD079A069B9A428BDBF3
:1026E800064B1B68002B05D0FFF73EFC02E000BF3D
:1026F80000E000BF19B05DF804FB00BFC400002073
:1027080000B587B00390029101920093114B1B68AA
:102718000493104B00221A600023059308E0009BE5
:10272800059A02990398FFF713FF059B0133059358
:10273800059A019B9A42F2DD049B064A1360054BF9
:102748001B68002B01D0FFF70FFC00BF07B05DF836
:1027580004FB00BFC400002000B589B003900291BB
:102768000192002306934FE00023079340E0029A6A
:10277800079B13447F2B41D8019A069B13441F2BB8
:102788003ED8039BDA68039B9B68069901FB03F11B
:10279800079BDB0803F01F030B4413441B788DF8D9
:1027A8001730079B03F00703802242FA03F30493D0
:1027B8009DF81720049B1340002B0BD1029A079B0E
:1027C80013441846019A069B134400221946FFF742
:1027D800C9FC0AE0029A079B13441846019A069B13
:1027E800134401221946FFF7BDFC079B01330793E9
:1027F800039B1A68079B9A42B9D802E000BF00E021
:1028080000BF069B01330693039B5A68069B9A42B6
:10281800AAD800BF09B05DF804FB00BF10B58EB0A0
:10282800039002910192019B1E2B40F39380019B20
:102838007F2B00F38F80494B1B681B780B93474B0A
:102848001B6801331B780A93444B1B6802331B78BF
:102858000993424B1B6803331B780893404B1A6853
:102868000A9BD418FFF742FC03469C4217DD3C4BF9
:1028780000221A603B4B1A68099B1344394A1360BB
:10288800FFF738FC0246354B1B6802331B78D21A17
:10289800344B1B689A4202DC324B00221A602F4BE1
:1028A8001A68019B203B0B9901FB03F30433134483
:1028B8000793079B1B788DF81B3000230D933DE091
:1028C80000230C9333E0089B0C9A02FB03F20D9B48
:1028D800DB1003F01F0313440133079A13441B78DA
:1028E8008DF81A300D9B03F00703012202FA03F357
:1028F80005939DF81A20059B1340002B0AD1039AD3
:102908000C9BD018029A0D9B134400221946FFF71E
:1029180029FC09E0039A0C9BD018029A0D9B1344DA
:1029280001221946FFF71EFC0C9B01330C930C9AED
:102938000A9B9A42C7DB0D9B01330D930D9A099BA5
:102948009A42BDDB9DF81B20054B1B681344044AC3
:10295800136000E000BF0EB010BD00BFC000002033
:10296800440100204801002000B583B00190019B7C
:102978000A2B1CD1174B00221A60174B1B68023315
:102988001B781A46154B1B681344144A1360FFF74B
:10299800B1FB0246104B1B6802331B78D21A0F4B4F
:1029A8001B689A4211DC0D4B00221A600DE0094B9E
:1029B80018680A4B1B68019A1946FFF72FFF084B46
:1029C8001B68002B01D0FFF7CFFA00BF03B05DF8FA
:1029D80004FB00BF44010020C00000204801002083
:1029E800C400002000B585B00190114B1B6803930B
:1029F8000F4B00221A60019B002B0BD006E0019BB5
:102A08005A1C01921B781846FFF7AEFF019B1B78F2
:102A1800002BF4D1064A039B1360054B1B68002B5F
:102A280001D0FFF7A1FA00BF05B05DF804FB00BFB5
:102A3800C40000200FB400B5ADF5077D4A4B1B68F4
:102A48008493494B00221A6089AB819378E0889B74
:102A58001B78252B6CD1889B01338893889B1B7826
:102A6800642B26D0642B04DC252B09D0632B0BD0D8
:102A780058E0752B36D0782B44D0732B10D051E00A
:102A88002520FFF771FF58E0819B1A1D81921B6872
:102A98008DF80F329DF80F321846FFF765FF4CE0AE
:102AA800819B1A1D81921B6882938298FFF79AFF77
:102AB80043E0819B1A1D81921B688593859B002B9F
:102AC80005DA2D20FFF750FF859B5B42859301AB0C
:102AD8000A2285991846FFF72FF901AB1846FFF728
:102AE80081FF2AE0819B1A1D81921B68859301ABA7
:102AF8000A2285991846FFF71FF901AB1846FFF718
:102B080071FF1AE0819B1A1D81921B68859301ABA6
:102B1800102285991846FFF70FF901AB1846FFF701
:102B280061FF0AE0889B1B781846FFF71DFF04E049
:102B3800889B1B781846FFF717FF889B01338893FB
:102B4800889B1B78002B82D1074A849B1360064B15
:102B58001B68002B01D0FFF707FA00BF0DF5077DB2
:102B68005DF804EB04B07047C400002008B50C4BB6
:102B78001868002300221021FEF7E2FB094B1868B1
:102B8800002300222121FEF7DBFB074B18680023F6
:102B980000220321FEF7D4FB0023184608BD00BF1E
:102BA8004C3C0008503C0008543C000810B50F4B42
:102BB8001B885B009CB20E4B1B6801211846FEF770
:102BC80057FE03469BB203F001039BB223439AB21C
:102BD800064B1A80054B1B8841F6FF72934201D1C0
:102BE800012300E00023184610BD00BF5403002055
:102BF800543C000810B50F4B1B885B009CB20E4B71
:102C08001B6802211846FEF733FE03465B089BB299
:102C180003F001039BB223439AB2064B1A80054B7B
:102C28001B8841F6FF72934201D1012300E0002383
:102C3800184610BD56030020543C000810B50F4B31
:102C48001B885B009CB20E4B1B6810211846FEF7D0
:102C58000FFE03461B099BB203F001039BB22343FB
:102C68009AB2064B1A80054B1B8841F6FF729342B5
:102C780001D1012300E00023184610BD58030020AD
:102C88004C3C000810B50F4B1B885B009CB20E4BE8
:102C98001B6801211846FEF7EBFD03469BB203F0C3
:102CA80001039BB223439AB2064B1A80054B1B883B
:102CB80041F6FF72934201D1012300E00023184638
:102CC80010BD00BF5A030020503C000810B50F4B40
:102CD8001B885B009CB20E4B1B6820211846FEF730
:102CE800C7FD03465B099BB203F001039BB2234374
:102CF8009AB2064B1A80054B1B8841F6FF72934225
:102D080001D1012300E00023184610BD5C03002018
:102D1800503C000810B582B0144B1B68212118469E
:102D2800FEF7A6FD0190124B1B6803211846FEF71B
:102D38009FFD0090009B03F003040E4B1B681021BD
:102D48001846FEF795FD03461B099B0044EA03025B
:102D5800019BDB0003F008031A43019B5B091B017D
:102D680003F010031343184602B010BD503C00088E
:102D7800543C00084C3C000882B003468DF80730EC
:102D880007499DF907305B099DF8072002F01F02EB
:102D9800012000FA02F241F8232000BF02B0704778
:102DA80000E100E082B0034600918DF807309DF9FC
:102DB8000730002B0CDA0D499DF8073003F00F039C
:102DC800043B009AD2B21201D2B20B441A7609E03F
:102DD80007499DF90730009AD2B21201D2B20B44CA
:102DE80083F8002300BF02B0704700BF00ED00E089
:102DF80000E100E010B4214B9B68214A1360204B8E
:102E08001B6803F00203002B1FD01E4B1B68002B0E
:102E18001BD01D4B1B68012B01D9184BDB681748C9
:102E28001A4B1A68184B1B68591C174C216013441D
:102E38001B78C360134B1B68013B124A1360144B89
:102E48001B680133124A13600FE00C4BDB680B4A16
:102E58000A4B5B6823F0800353600E4B1B680133F9
:102E68000C4A13600C4B00221A700C4B1B68013380
:102E78000A4A136000BF5DF8044B704700300140F8
:102E88004005002064030020680300206003002040
:102E980074030020780300206C03002070030020D6
:102EA80000BF704700BF704700BF704700BF704742
:102EB80000B58BB00390029101923E4B1B68039AB8
:102EC8009A421ED123238DF82330042307933A4BCB
:102ED8001B68394A1268526C42F480525A64374B64
:102EE800DB680693364B18680023364AA021FEF7A4
:102EF80027FA069A029BB2FBF3F305930023099382
:102F08004FE0314B1B68039A9A4202D14FF0FF33CE
:102F18004CE02E4B1B68039A9A4202D14FF0FF33C4
:102F280044E02B4B1B68039A9A4202D14FF0FF33BF
:102F38003CE0284B1B68039A9A4202D14FF0FF33BA
:102F480034E04FF0FF3331E0099B0133012202FAEC
:102F580003F31A46059B9A4220D3099BDA00019B8A
:102F6800134343F44172039B1A60039B04225A6083
:102F78009DF9233007991846FFF714FF9DF9233070
:102F88001846FFF7F9FE039B1B6843F04002039BBA
:102F98001A60069A099B02FA03F307E0099B0133BA
:102FA8000993099B072BCFD94FF0FF3318460BB075
:102FB8005DF804FB2C3C0008683C0008CC000020AD
:102FC8004C3C000815000200F43B0008F83B0008E0
:102FD800303C0008483C000884B0039002910192FC
:102FE800154B01221A70154A029B1360019B013B85
:102FF800134A1360134B01221A60039B5B6843F06A
:103008008002039B5A600D4B1B681B781A46039B72
:10301800DA6000BF039B9B6803F00303002BF9D021
:10302800039B9B6803F08003002BF3D1039BDB68B1
:1030380000BF04B0704700BF6C030020600300208D
:10304800640300206803002082B001900B468DF8CD
:1030580003309DF80320019BDA6000BF019B9B6849
:1030680003F00303002BF9D0019B9B6803F0800356
:10307800002BF3D1019BDB6800BF02B0704700BF93
:1030880082B003468DF8073007499DF907305B0980
:103098009DF8072002F01F02012000FA02F241F811
:1030A800232000BF02B0704700E100E082B0034671
:1030B80000918DF807309DF90730002B0CDA0D4987
:1030C8009DF8073003F00F03043B009AD2B21201B7
:1030D800D2B20B441A7609E007499DF90730009AE5
:1030E800D2B21201D2B20B4483F8002300BF02B05F
:1030F800704700BF00ED00E000E100E008B5084BB4
:103108001B68002B02D0064B1B689847054B1B68B1
:10311800044A1268126922F01F021A6100BF08BD32
:103128007C030020D43B000808B5084B1B68002B23
:1031380002D0064B1B689847054B1B68044A126867
:10314800126922F01F021A6100BF08BD8003002027
:10315800D83B000808B5084B1B68002B02D0064B6B
:103168001B689847054B1B68044A1268126922F0CD
:103178001F021A6100BF08BD84030020DC3B000861
:1031880008B5084B1B68002B02D0064B1B689847F4
:10319800054B1B68044A1268126922F01F021A6163
:1031A80000BF08BD88030020E03B000800B589B0D7
:1031B800039002910192584B1B68039A9A4213D1CB
:1031C800564A019B13601C238DF81F300423069375
:1031D800534B9B680593534B1B68524A1268126CF9
:1031E80042F001021A644DE04F4B1B68039A9A4261
:1031F80013D14E4A019B13601D238DF81F30042301
:103208000693474B9B680593464B1B68454A1268D3
:10321800126C42F002021A6434E0454B1B68039AB0
:103228009A4213D1434A019B13601E238DF81F3025
:10323800042306933A4B9B6805933A4B1B68394A1B
:103248001268126C42F004021A641BE03A4B1B68C5
:10325800039A9A4213D1394A019B136032238DF89D
:103268001F30042306932E4B9B6805932D4B1B6838
:103278002C4A1268126C42F008021A6402E04FF0FD
:10328800FF3344E0039B1B6923F01F02039B1A6171
:10329800039B88221A60059B294AA2FB03235B0B28
:1032A8005A1E039B9A62029A13469B0013445B00C2
:1032B8005A1E039BDA62019B002B17D09DF91F3021
:1032C80006991846FFF7F2FE9DF91F301846FFF7DA
:1032D800D7FE039B0122DA60039B01225A61039BFC
:1032E8001B6843F00102039B1A600FE0039B012255
:1032F8005A61039B1B6843F00102039B1A6000BFDD
:10330800039B1B6803F00103002BF9D10023184627
:1033180009B05DF804FB00BFD43B00087C03002023
:10332800CC000020683C0008D83B0008800300203F
:10333800DC3B000884030020E03B000888030020F1
:103348005917B7D100B589B0039002910192564B35
:103358001B68039A9A4213D1544A019B13601C2399
:103368008DF81F3004230693514B9B680593514BEE
:103378001B68504A1268126C42F001021A644DE050
:103388004D4B1B68039A9A4213D14C4A019B136018
:103398001D238DF81F3004230693454B9B68059326
:1033A800444B1B68434A1268126C42F002021A64CA
:1033B80034E0434B1B68039A9A4213D1414A019B5C
:1033C80013601E238DF81F3004230693384B9B6827
:1033D8000593384B1B68374A1268126C42F0040296
:1033E8001A641BE0384B1B68039A9A4213D1374A78
:1033F800019B136032238DF81F30042306932C4B56
:103408009B6805932B4B1B682A4A1268126C42F082
:1034180008021A6402E04FF0FF3340E0039B1B6987
:1034280023F01F02039B1A61039B88221A60059BE5
:10343800274AA2FB03239B0C5A1E039B9A62029BFA
:103448005A1E039BDA62019B002B17D09DF91F308F
:1034580006991846FFF72AFE9DF91F301846FFF710
:103468000FFE039B0122DA60039B01225A61039B32
:103478001B6843F00102039B1A600FE0039B0122C3
:103488005A61039B1B6843F00102039B1A6000BF4B
:10349800039B1B6803F00103002BF9D10023184696
:1034A80009B05DF804FB00BFD43B00087C03002092
:1034B800CC000020683C0008D83B000880030020AE
:1034C800DC3B000884030020E03B00088803002060
:1034D80083DE1B4300B589B0039002910192524BE1
:1034E8001B68039A9A4216D1019B002B02D04F4ABF
:1034F800019B13601C238DF81F30042306934C4B4B
:103508009B6805934B4B1B684A4A1268126C42F041
:1035180001021A6456E0484B1B68039A9A4216D176
:10352800019B002B02D0454A019B13601D238DF897
:103538001F30042306933E4B9B6805933D4B1B6845
:103548003C4A1268126C42F002021A643AE03C4BA0
:103558001B68039A9A4216D1019B002B02D0394A64
:10356800019B13601E238DF81F3004230693304BF4
:103578009B6805932F4B1B682E4A1268126C42F009
:1035880004021A641EE0304B1B68039A9A4216D153
:10359800019B002B02D02D4A019B136032238DF82A
:1035A8001F3004230693224B9B680593214B1B680D
:1035B800204A1268126C42F008021A6402E04FF0C6
:1035C800FF332DE0039B1B6923F01F02039B1A6145
:1035D800039B1B6803F47C42039B1A60059B1C4AEF
:1035E800A2FB03235B0B5A1E039B9A62029A1346A3
:1035F8009B0013445B005A1E039BDA62019B002B5D
:103608000DD09DF91F3006991846FFF74FFD9DF91B
:103618001F301846FFF734FD039B0122DA600023B0
:10362800184609B05DF804FBD43B00087C03002071
:10363800CC000020683C0008D83B0008800300202C
:10364800DC3B000884030020E03B000888030020DE
:103658005917B7D182B001900091009A13469B0088
:1036680013445B005A1E019BDA62019B01225A61D6
:103678000023184602B0704782B00190019B0122D6
:103688005A61019B1B6843F00102019B1A6000BF4D
:1036980002B0704782B00190019B1B6823F00102C1
:1036A800019B1A6000BF02B0704700BF00B589B027
:1036B8000390029101924B4B1B68039A9A4213D1D3
:1036C800494A019B13601C238DF81F30042306937D
:1036D800464B9B680593464B1B68454A1268126C1B
:1036E80042F001021A644DE0424B1B68039A9A4269
:1036F80013D1414A019B13601D238DF81F30042309
:1037080006933A4B9B680593394B1B68384A1268F5
:10371800126C42F002021A6434E0384B1B68039AB8
:103728009A4213D1364A019B13601E238DF81F302D
:10373800042306932D4B9B6805932D4B1B682C4A3D
:103748001268126C42F004021A641BE02D4B1B68CD
:10375800039A9A4213D12C4A019B136032238DF8A5
:103768001F3004230693214B9B680593204B1B684D
:103778001F4A1268126C42F008021A6402E04FF005
:10378800FF332AE0039B1B6923F01F02039B1A6186
:10379800039B80221A60059B1C4AA2FB03235B0B38
:1037A8005A1E039B9A62029A13469B0013445B00BD
:1037B8005A1E039BDA62019B002B0DD09DF91F3026
:1037C80006991846FFF772FC9DF91F301846FFF757
:1037D80057FC039B0122DA600023184609B05DF804
:1037E80004FB00BFD43B00087C030020CC00002071
:1037F800683C0008D83B000880030020DC3B000838
:1038080084030020E03B0008880300205917B7D143
:1038180084B00390029101920093029B032B02D87B
:10382800019B642B01D900234DE0039BDB6A013324
:10383800019A02FB03F3254AA2FB03235A090399C1
:10384800029B0C339B000B445A60029B5A08029B54
:103858005908039B063153F821300299C90001F039
:103868000801FF2000FA01F1C9430B400299C90081
:1038780001F00801682000FA01F11943039B0632A0
:1038880043F82210009B002B11D0039B1B6A029A5D
:1038980092000F2101FA02F2D2431340029A9200D9
:1038A800012101FA02F21A43039B1A620AE0039B00
:1038B8001B6A029A92000F2101FA02F2D2431A40BF
:1038C800039B1A620123184604B070471F85EB5109
:1038D80082B001900091019B1B6A009A92000F210F
:1038E80001FA02F2D2431A40019B1A6201231846D8
:1038F80002B0704784B0039002910192029B032B9F
:1039080002D8019B642B01D9002310E0039BDB6ADA
:103918000133019A02FB03F3064AA2FB03235A0967
:103928000399029B0C339B000B445A6001231846F1
:1039380004B070471F85EB5110B5054C237833B997
:10394800044B13B10448AFF300800123237010BD6A
:103958008C03002000000000943B000808B5034BCE
:103968001BB103490348AFF3008008BD0000000005
:1039780090030020943B00080D480E490E4A9142DE
:1039880004D050F8044B41F8044BF8E70B480C49B5
:103998004FF00002884202D040F8042BFAE7FCF707
:1039A800FFFD00F069F8FDF79BFAFFF7FEBF000086
:1039B800E044000800000020CC000020CC000020DB
:1039C80044050020FEE70000002301461A46184679
:1039D80000F092B8830730B547D0541E002A3ED075
:1039E800CAB2034601E0013C39D303F8012B9D0715
:1039F800F9D1032C2CD9CDB205EB05250F2C05EBFD
:103A0800054535D9A4F1100222F00F0C03F1100E70
:103A1800E6444FEA121C1A46156055609560D56059
:103A280010327245F8D10CF1010214F00C0F03EBBF
:103A3800021204F00F0C13D0ACF1040323F00303BB
:103A48000433134442F8045B9A42FBD10CF003049C
:103A58002CB1C9B21C4403F8011B9C42FBD130BDF8
:103A680064461346002CF4D1F9E703461446C0E730
:103A78001A46A446E0E700BF70B50F4B0F4DAB42A6
:103A8800A3EB050607D0B610002455F8043B013413
:103A98009847A642F9D800F079F8094D094B5E1B02
:103AA800AB424FEAA60606D0002455F8043B013481
:103AB8009847A642F9D870BDD4440008D4440008F9
:103AC800D4440008DC44000838B5074D074C2C1BCB
:103AD800A41005D0013C55F8043D9847002CF9D1B5
:103AE800BDE8384000F058B8E0440008DC4400085D
:103AF800704700BF704700BF2DE9F8431B4D0646CD
:103B0800286898460F469146FFF7F2FF184B1C6845
:103B18001CB3286865681F2D22DC4EB96B1C023562
:103B2800636044F82570FFF7E5FF0020BDE8F883DF
:103B380004EB85010123C1F88890D4F88821AB40B3
:103B48001A43022EC4F88821C1F80881E6D1D4F8B6
:103B58008C211A43C4F88C21E0E7064C1C60D8E796
:103B6800FFF7C8FF4FF0FF30E0E700BFC8000020B4
:103B78003C050020AC030020024B13B10248FFF7BC
:103B880023BF704700000000D13A0008F8B500BF15
:103B9800F8BC08BC9E467047F8B500BFF8BC08BC26
:043BA8009E4670477E
:103BAC0000E000E000ED00E010E000E000E100E0EB
:103BBC00000000E0001000E0000004E0F0ED00E088
:103BCC0090ED00E030EF00E0000000400004004009
:103BDC0000080040000C004000280040002C004071
:103BEC00003000400034004000380040003C0040F1
:103BFC000040004000440040005400400058004089
:103C0C00005C0040007000400000014000100140CA
:103C1C00001401400020014000230140002C014011
:103C2C00003001400034014000380140003C0140AC
:103C3C000040014000440140004801400050014058
:103C4C00000002400004024000080240000C024048
:103C5C0000100240001C02400030024000380240BC
:103C6C00003C0240006002401060024028600240AC
:103C7C004060024058600240706002408860024020
:103C8C00A0600240B8600240006402401064024030
:103C9C002864024040640240586402407064024050
:103CAC0088640240A0640240B8640240002004E032
:103CBC00000000500000000000000000010203049E
:103CCC00060708091B5B324A1B5B481B5B3F3235FE
:103CDC006C0000001B5B25643B2564480000000061
:103CEC000D0A456E7472657A20756E6520636F6D72
:103CFC006D616E6465203A20000000000D0A636857
:103D0C00616E6E656C202564203A2076616C203DD6
:103D1C00202564000D0A56424154202020202020EA
:103D2C00203A2076616C203D202564000D0A565205
:103D3C004546494E54202020203A2076616C203D87
:103D4C00202564000D0A74656D7020202020202031
:103D5C00203A2076616C203D20256400130909026D
:103D6C000500000000000000000000000000000042
:103D7C000000000200009E00000000000000000097
:103D8C000000000000000400000600000006000017
:103D9C000000000000000000000600005000F800C9
:103DAC005000F80050000000000000000600008CDD
:103DBC00009200FE01A2004000000000000000077D
:103DCC001E0092005E002000F8009400F20000003B
:103DDC00000007000064009A00AA00CC006000807C
:103DEC0000000000000200000600000000000000BF
:103DFC0000000000000000000300007C00830100B4
:103E0C00000000000000000000000003000083011F
:103E1C007C00000000000000000000000000040016
:103E2C0000300078003000000000000000000000AE
:103E3C000005100010007C001000100000000000B5
:103E4C0000000000020001C00000000000000000A3
:103E5C000000000000000004000010001000100022
:103E6C0000000000000000000000020000800000C4
:103E7C000000000000000000000000000004000131
:103E8C00E0001C0003000000000000000000000027
:103E9C000500007C00820082007C00000000000015
:103EAC0000000005000008000400FE0000000000F7
:103EBC000000000000000500008400C200A2009C6D
:103ECC0000000000000000000005000082009200CD
:103EDC0092006C000000000000000000050000389B
:103EEC00002C002200FE0000000000000000000575
:103EFC0000009E0092009200620000000000000092
:103F0C0000000500007C009200920074000000008C
:103F1C0000000000000500000200C20032000E008C
:103F2C0000000000000000000500006C00920092F0
:103F3C00006C0000000000000000000500009C0068
:103F4C00920092007C0000000000000000000200C3
:103F5C0000880000000000000000000000000000CD
:103F6C0000020001C800000000000000000000007A
:103F7C00000000000510001000280028004400007C
:103F8C0000000000000000050000280028002800A8
:103F9C00280000000000000000000500004400287C
:103FAC0000280010000000000000000000050000C8
:103FBC000200B20012000C00000000000000000023
:103FCC00090000F800840172014A014A017A014299
:103FDC00003C00060000F800240022002400F80039
:103FEC00000000000000060000FE0092009200920B
:103FFC00006C000000000000000600007C00820045
:10400C00820082004400000000000000060000FE58
:10401C000082008200C6007C000000000000000549
:10402C000000FE00920092009200000000000000D0
:10403C000000050000FE001200120012000000003B
:10404C0000000000000600007C00C6008200920008
:10405C00F600000000000000060000FE001000103A
:10406C00001000FE00000000000000020000FE0036
:10407C000000000000000000000000000000040030
:10408C0000800080007E00000000000000000000A6
:10409C0000050000FE0010002C00C2000000000013
:1040AC0000000000050000FE008000800080000081
:1040BC0000000000000000080000FE0006001800D0
:1040CC00E00018000600FE000000060000FE0006DE
:1040DC000018006000FE0000000000000006000058
:1040EC007C008200820082007C0000000000000046
:1040FC00050000FE00120012000C00000000000081
:10410C000000000700007C0082008200C200FC005E
:10411C00000100000000050000FE0012001200EC7F
:10412C00000000000000000000050000CC00920020
:10413C009200660000000000000000000600000273
:10414C00000200FE00020002000000000000000659
:10415C0000007E008000800080007E0000000000D7
:10416C00000007000006003C00E000E0001C000618
:10417C0000000000000600001E00E0003E00E00011
:10418C001E000000000000000600008200640038E1
:10419C00006C00820000000000000006000002001D
:1041AC000C00F0000C0002000000000000000600F3
:1041BC00008200E20092008E0082000000000000ED
:1041CC0000030000FF0101010000000000000000DE
:1041DC00000000000401000E0070008001000000CF
:1041EC0000000000000000020101FF0100000000BF
:1041FC000000000000000000000004000018000C8B
:10420C000018000000000000000000000006000183
:10421C00000100010001000100010000000000008D
:10422C00030000010002000000000000000000007C
:10423C00000000050000E800A800A800F80000003D
:10424C00000000000000050000FE008800880070DF
:10425C000000000000000000000500007000880055
:10426C0088008800000000000000000005000070BD
:10427C000088008800FE000000000000000000051F
:10428C0000007000A800A800B000000000000000B2
:10429C000000040800FE000A0002000000000000FC
:1042AC000000000000050000300048014801F80142
:1042BC000000000000000000050000FE00080008DF
:1042CC0000F8000000000000000000020000FA00EE
:1042DC0000000000000000000000000000000200D0
:1042EC0001FA0100000000000000000000000000C6
:1042FC0000050000FE0020005000880000000000B7
:10430C0000000000020000FE0000000000000000A1
:10431C0000000000000000060000F8000800F80093
:10432C000800F800000000000000050000F800087C
:10433C00000800F80000000000000000000500006C
:10434C007000880088007000000000000000000071
:10435C00050000F801480048003000000000000093
:10436C00000000050000300048004800F801000083
:10437C00000000000000040000F800080008000025
:10438C000000000000000000000400009800A800DD
:10439C00E80000000000000000000000040000081D
:1043AC0000FC008800000000000000000000000578
:1043BC000000780080008000F80000000000000081
:1043CC0000000400003800C00038000000000000AD
:1043DC0000000000000600007800C0003800C0009B
:1043EC0078000000000000000500008800700070DC
:1043FC0000880000000000000000000500003800EC
:10440C0040014001F8000000000000000000050021
:10441C0000C800E800B800880000000000000000A0
:10442C00000410003800EF01010100000000000042
:10443C00000000000300000000FF0100000000006D
:10444C0000000000000000040101C701380010004A
:10445C0000000000000000000000050C0004000C2F
:10446C000008000C00000000000000000003FE012A
:10447C000201FE010000000000000000000000002E
:10448C003D400B4010402640354003400640144050
:10449C000E400D4025401240284002401840094073
:1044AC000A4000003D400B40104026403540034080
:1044BC00064014400E400D4025401240284002405A
:0844CC00184009400A400000FD
:0844D400813B00086539000876
:0444DC00413900085A
:1044E00001000000000000000000000000000000CB
:1044F0000000000000000000000000000201600059
:10450000080202000005040103000000006CDC0248
:10451000001BB70000366E010201500108040700BD
:10452000000400020200000000BD010580DE8002E0
:1045300000BD01050201C0000802020000040003E2
:104540000300000000D8B805006CDC0200D8B805F4
:10455000000000000000000000000000000000005B
:1045600000000000000000000000000002005001F8
:1045700008040700000400020200000000BD01055D
:1045800080DE800200BD01050024F40030313233AA
:10459000343536373839414243444546000000003F
:0C45A000683D000801000000A803002096
:040000050800398135
:00000001FF
