:020000040800F2
:1000000000000220151F0008990100089D0100084A
:10001000A1010008A5010008A901000800000000D6
:10002000000000000000000000000000AD0100081A
:10003000B101000800000000B5010008B901000886
:10004000611F0008611F0008611F0008611F000890
:10005000611F0008611F00082511000849110008F0
:100060006D11000891110008B5110008611F00080A
:10007000611F0008611F0008611F0008611F000860
:10008000611F0008611F0008611F000800000000D8
:10009000000000000000000000000000D91100086E
:1000A000611F0008611F0008611F0008611F000830
:1000B000611F0008611F0008611F0008430A000853
:1000C000550A0008650A0008750A0008611F000843
:1000D000611F0008611F0008151A000800000000D9
:1000E000A9120008611F0008611F0008000000003D
:1000F000000000000000000000000000611F000878
:1001000000000000611F0008611F0008611F000857
:1001100000000000000000000000000000000000DF
:10012000611F0008611F0008611F0008611F0008AF
:10013000611F000800000000000000000000000037
:10014000000000000000000000000000611F000827
:10015000611F0008611F0008611F0008611F00087F
:10016000850A0008950A0008000000000000000051
:10017000000000000000000000000000000000007F
:1001800000000000611F00080000000000000000E7
:08019000611F0008611F000857
:1001980000BF704700BFFDE700BFFDE700BFFDE7F8
:1001A80000BFFDE700BF704700BF704700BF704742
:1001B80000BF704782B003468DF807309DF80730BE
:1001C800052B00F2928001A252F823F0ED010008FD
:1001D800150200083D020008650200088D020008AB
:1001E800B5020008424B1B6803F00103002B71D1D4
:1001F8003F4B1B683E4A43F00103136000BF3C4B72
:100208001B6803F00203002BF9D063E0384B1B682E
:1002180003F48033002B5FD1354B1B68344A43F419
:100228005023136000BF324B1B6803F40033002BCC
:10023800F9D051E02E4B1B6803F08073002B4DD191
:100248002B4B1B682A4A43F08073136000BF284B6E
:100258001B6803F00073002BF9D03FE0244B1B68A8
:1002680003F08063002B3BD1214B1B68204A43F0ED
:100278008063136000BF1E4B1B6803F00063002BF4
:10028800F9D02DE01A4B5B6F03F00103002B29D145
:10029800174B5B6F164A43F00103536700BF144BBB
:1002A8005B6F03F00203002BF9D01BE0104B1B6FB0
:1002B80003F00103002B17D10D4B1B6F0C4A43F0C1
:1002C8000103136700BF0A4B1B6F03F00203002BE7
:1002D800F9D009E000BF08E000BF06E000BF04E075
:1002E80000BF02E000BF00E000BF00BF02B07047DF
:1002F8000038024082B003468DF807309DF8073079
:10030800052B39D801A252F823F000BF2D030008AD
:100318003B03000849030008570300086503000869
:1003280073030008164B1B68154A23F0010313607A
:1003380022E0134B1B68124A23F4502313601BE07E
:100348000F4B1B680E4A23F08073136014E00C4BAC
:100358001B680B4A23F0806313600DE0084B5B6F4A
:10036800074A23F00103536706E0054B1B6F044A55
:1003780023F00103136700BF00BF02B0704700BF3E
:100388000038024082B003468DF807300C4B9B685A
:1003980023F003029DF8073003F0030308491343D1
:1003A8008B6000BF064B9B689B0803F003029DF817
:1003B80007309A42F6D100BF00BF02B0704700BFB5
:1003C8000038024000B585B001900091019B072BD1
:1003D80008D8019A1346DB009B1A9B006A4A13440B
:1003E800039301E0694B0393039B1B78012B0CD10A
:1003F8000120FFF7DFFE0120FFF7C4FF0220FFF70F
:1004080079FF0020FFF776FF95E0039B1B78022B0E
:1004180040F085805E4B1B6C5D4A43F0805313644B
:10042800039B5B78012B09D10120FFF7C3FE584BD2
:100438005B68574A43F48003536008E00020FFF7E5
:10044800B9FE534B5B68524A23F480035360514B07
:100458001B6823F04052039BDB7A1B074D4913436B
:100468000B604B4B9B6823F47C4323F0F003039A07
:10047800127A1201D2B21A43039B5B7A9B0203F4ED
:10048800E0531A43039B9B7A5B039BB24049134397
:100498008B603F4B5A68404B1340039A127902F025
:1004A8003F021A43039B5B88990147F6C0730B40D0
:1004B8001A43039B5B795B08DBB2013B1B0403F423
:1004C80040331A43039B9B791B0603F07C53304946
:1004D80013434B600220FFF76DFE304B1B6823F07F
:1004E8000F02039BDB6803F00F0313432B4A43F40B
:1004F800E06313600220FFF745FF039B5B78012B45
:1005080009D1234B1B6803F00103002B03D0002003
:10051800FFF7F0FE0FE00120FFF7ECFE0BE00020F4
:10052800FFF748FE0020FFF72DFF0220FFF7E2FE4D
:100538000120FFF7DFFE039B1A69009B1A60039BEB
:100548005A69009B5A60039B5B7A002B02D1039B7C
:100558005B6902E0039B5B695B00009A9360039B05
:100568009A69009BDA60039B9B7A002B02D1039B5C
:100578009B6902E0039B9B695B00009A136100BFC3
:1005880005B05DF804FB00BF0000002070000020EB
:1005980000380240007000400080FCF0003C02403F
:1005A80008B5184BD3F88830164A43F47003C2F8DC
:1005B8008830154B1B68144A43F001031360124B33
:1005C80000229A60104B1B680F4A23F0847323F4AF
:1005D800803313600C4B0D4A5A600B4B1B680A4A58
:1005E80023F480231360084B0022DA6008490220B4
:1005F800FFF7E8FE034B4FF000629A6000F00AF83C
:1006080000BF08BD00ED00E00038024010300024B3
:100618002801002086B000230493002305930223B9
:1006280003930023029302230193334B9B6803F047
:100638000C030493049B082B11D0049B082B44D86B
:10064800049B002B03D0049B042B04D03DE02B4BD0
:100658002B4A1A603DE0294B2A4A1A6039E0264B9A
:100668005B689B0D03F001030293234B5B6803F067
:100678003F030193029B002B0CD0224A019BB2FB43
:10068800F3F31D4A52689209C2F3080202FB03F30E
:1006980005930BE01A4A019BB2FBF3F3164A526822
:1006A8009209C2F3080202FB03F30593124B5B683D
:1006B8001B0C03F0030301335B000393059A039BB0
:1006C800B2FBF3F30D4A136003E00C4B0C4A1A60BB
:1006D80000BF094B9B681B0903F00F030A4AD35C50
:1006E8000493064B1A68049B22FA03F3034A136027
:1006F80000BF06B0704700BF00380240A8000020C5
:100708000024F40000127A00B021000882B00346E9
:100718008DF807309DF8073003F01F0205499DF951
:1007280007305B09012000FA02F241F8232000BFDC
:1007380002B0704700E100E082B0034600918DF8F6
:1007480007309DF90730002B0CDA009BDAB20C4910
:100758009DF8073003F00F03043B1201D2B20B449B
:100768001A7609E0009BDAB206499DF907301201B2
:10077800D2B20B4483F8002300BF02B0704700BF19
:1007880000ED00E000E100E082B001900C4B1B6836
:10079800019A9A4201D10B4B0EE00B4B1B68019A50
:1007A8009A4201D1094B07E0094B1B68019A9A420A
:1007B80001D1084B00E00023184602B0704700BF83
:1007C800F4200008AC000020F8200008CC0000202D
:1007D800FC200008EC00002010B487B00190019BB9
:1007E8001B680593059B5B6904936D4B1B6801337C
:1007F8006B4A1360049B03F00103002B09D0019B93
:100808005B7A5B00019A127A13431A46059B1A61B8
:10081800C0E0049B03F00203002B37D0019B1B7A36
:10082800002B1CD1059B9B690393019BDA68019BF4
:100838009B69581C0199886113441B781A46059BCB
:100848001A61019B9A69019B5B699A4240F0A280F8
:10085800059B5B6823F48062059B5A609AE0019BC4
:100868001B7A012B40F09680019B1B69012B09D153
:10087800059B1B6823F48062059B1A60059B9B6996
:10088800039387E0059B9B69039383E0049B03F034
:100898008003002B50D0019B9A69019B5B699A42A7
:1008A80018D2019BDA68019B9B69581C01998861E1
:1008B80013441B781A46059B1A61019B9A69019B90
:1008C8005B699A4266D1059B5B6823F48062059B4D
:1008D8005A605FE0019B9A69019B5B699A4259D112
:1008E800049B03F00403002B54D0019B1B69002BCD
:1008F80012D0019B01221A72019B0022DA61059B2A
:100908005B6843F48062059B5A60059B1B6843F44F
:10091800A062059B1A603DE0059B1B6843F40072CA
:10092800059B1A60059B5B6823F40072059B5A605F
:10093800019B00225A602DE0049B03F04003002B2A
:1009480028D0059B1C69019BDA68019BDB69581C50
:100958000199C8611344E2B21A70019BDA69019BDC
:100968001B69013B9A4206D1059B1B6823F48062F0
:10097800059B1A600EE0019BDA69019B1B699A428C
:1009880008D1059B1B6843F40072059B1A60019B04
:1009980000225A6000BF07B05DF8044B704700BFE3
:1009A8003C01002084B00190019B1B680393039BCA
:1009B8005B690293029B03F48073002B0AD0039BAC
:1009C8005B6923F48072039B5A61019B4FF0FF32ED
:1009D8005A6029E0029B03F40073002B0AD0039BA2
:1009E8005B6923F40072039B5A61019B6FF0050257
:1009F8005A6019E0029B03F48063002B0AD0039B22
:100A08005B6923F48062039B5A61019B6FF00702C4
:100A18005A6009E0039B5B6923F45F42039B5A61B8
:100A2800019B4FF0FF325A60039B1B6843F400722E
:100A3800039B1A6000BF04B0704708B50248FFF76F
:100A4800CBFE00BF08BD00BFAC00002008B50248BF
:100A5800FFF7A8FF00BF08BDAC00002008B502489A
:100A6800FFF7BAFE00BF08BDCC00002008B5024859
:100A7800FFF798FF00BF08BDCC00002008B502486A
:100A8800FFF7AAFE00BF08BDEC00002008B5024829
:100A9800FFF788FF00BF08BDEC00002000B587B055
:100AA8000190424B1B68019A9A4269D1404B1B68DE
:100AB8001A6C3F4B1B6842F400121A643D4B1868CD
:100AC80000233D4A4FF4407100F068FC1F238DF865
:100AD800173020238DF81630022304930123039343
:100AE800019B1B6843F40042019B1A60019B002292
:100AF8001A60324B5B68324AA2FB03239A0C019BB3
:100B08005A602E4B5B682F4AA2FB0323DB0C43F48D
:100B18000042019BDA61294B5B68294AA2FB032347
:100B28009B0C4FF4967202FB03F3274AA2FB0323A4
:100B38009B095A1C019B1A62019B5B6A23F01F02E6
:100B4800019B5A629DF9163003991846FFF7F4FD88
:100B58009DF9173004991846FFF7EEFD9DF91630F8
:100B68001846FFF7D3FD9DF917301846FFF7CEFD5D
:100B7800019B1B6843F00102019B1A60002311E0EE
:100B8800124B1B68019A9A4202D14FF0FF3309E0D9
:100B98000F4B1B68019A9A4202D14FF0FF3301E0D4
:100BA8004FF0FF33184607B05DF804FBF420000847
:100BB80058210008402100084400020028010020B4
:100BC80083DE1B43851DD96FD34D6210F8200008C2
:100BD800FC20000800B587B00390019200930B46F3
:100BE8008DF80B300398FFF7CFFD0490049B002B82
:100BF80037D0049B01225A60049B9DF80B205A723F
:100C0800049B019ADA60049B00221A61049B009AF3
:100C18005A61049B0022DA61049BDA69049B9A6199
:100C2800049B00221A72039B5B6843F4E062039BF7
:100C38005A60039B1B6843F48072039B1A6000BFD1
:100C4800049B5B68012BFBD00023059303E000BFE6
:100C5800059B01330593059B632BF8DD049B5B68BB
:100C680001E04FF0FF33184607B05DF804FB00B50C
:100C780087B00390019200930B468DF80B300398D0
:100C8800FFF782FD0490049B002B37D0049B0122C0
:100C98005A60049B9DF80B205A72049B019ADA60F3
:100CA800049B009A1A61049B00225A61049B00224B
:100CB800DA61049BDA69049B9A61049B01221A7227
:100CC800039B5B6843F4E062039B5A60039B1B68C9
:100CD80043F4A062039B1A6000BF049B5B68012B6E
:100CE800FBD00023059303E000BF059B0133059368
:100CF800059B632BF8DD049B5B6801E04FF0FF3335
:100D0800184607B05DF804FB00B587B00390019260
:100D180000930B468DF80B300398FFF735FD0490D0
:100D2800049B002B37D0049B01225A60049B9DF83A
:100D38000B205A72049B019ADA60049B089A1A6184
:100D4800049B009A5A61049B0022DA61049BDA69C9
:100D5800049B9A61049B00221A72039B5B6843F40C
:100D6800E062039B5A60039B1B6843F48072039BF9
:100D78001A6000BF049B5B68012BFBD0002305931E
:100D880003E000BF059B01330593059B632BF8DD4A
:100D9800049B5B6801E04FF0FF33184607B05DF82D
:100DA80004FB00BF00B587B00390194B1B78002BDC
:100DB80011D0174B00221A70154B1B788DF8103084
:100DC800144B186804AA0223009301234821FFF753
:100DD8009BFF059007E00F4B186804AA02234821DF
:100DE800FFF745FF0590059B002B09D19DF81030B2
:100DF8001B029DF8112013435A11039B1A6002E04D
:100E0800039B00221A60059B184607B05DF804FB97
:100E18000C010020F420000800B587B003900723D8
:100E28008DF8103000238DF81130204B186804AA73
:100E380003234C21FFF7CEFE0590059B002B02D023
:100E48004FF0FF332DE007238DF81030039B1B0A6A
:100E5800DBB28DF81130039BDBB28DF81230134BE7
:100E6800186804AA03234C21FFF7B4FE0590059BDC
:100E7800002B02D04FF0FF3313E007238DF810301A
:100E88000A4B186804AA0123009301234C21FFF799
:100E98003BFF0590059B002B02D04FF0FF3300E08D
:100EA8000023184607B05DF804FB00BFF4200008D3
:100EB80084B001904FF0FF33184604B0704700BF6C
:100EC80082B003468DF80730034A9DF80730137047
:100ED80000BF02B0704700BF4001002010B584B0C9
:100EE8005E4B18685E4B00224FF4E13100F0D8FDEC
:100EF8005C4B1B681846FFF7D1FD40F20310FFF763
:100F08008BFF564B1B685849184600F0AFFE00BFD0
:100F1800564B1B78DBB2002BFAD0544B1B78DBB254
:100F28006D2B11D0742B40F0928003AB1846FFF75D
:100F380039FF4E4B00221A70484B1868039A039BDE
:100F48004B4900F093FE87E04A48FFF7B1FF474B53
:100F580000221A70414B1868464B1968454B5C686B
:100F6800444B9B68434AD2680192009323460A4641
:100F7800414900F07BFE3F4BDB6803F003033F4A27
:100F880013603E4B1B68012B06D1344B1B683C4950
:100F9800184600F053FE09E0384B1B68022B05D1B8
:100FA8002E4B1B683749184600F048FE314BDB686A
:100FB8009B1003F00703314A1360304B1B68013B59
:100FC800052B2BD801A252F823F000BFED0F000823
:100FD800FB0F00082510000825100008091000085C
:100FE800171000081D4B1B682749184600F026FEFD
:100FF80014E01A4B1B682549184600F01FFE0DE047
:10100800164B1B682249184600F018FE06E0134BE1
:101018001B682049184600F011FE00BF154BDB681D
:1010280003F02003002B05D00C4B1B681A49184607
:1010380000F004FE0F4BDB6803F08003002B0AD09E
:10104800064B1B681549184600F0F8FD03E0074BEE
:1010580000221A7000E000BF53E700BFF02000082C
:10106800C90E0008F4200008C02100084001002033
:10107800DC21000850010020FC210008700100203C
:1010880028220008302200083822000840220008E0
:10109800482200085022000858220008642200084C
:1010A80082B003468DF8073007499DF907305B0980
:1010B8009DF8072002F01F02012000FA02F241F811
:1010C800232000BF02B0704700E100E082B0034671
:1010D80000918DF807309DF90730002B0CDA0D4987
:1010E8009DF8073003F00F03043B009AD2B21201B7
:1010F800D2B20B441A7609E007499DF90730009AE5
:10110800D2B21201D2B20B4483F8002300BF02B05E
:10111800704700BF00ED00E000E100E008B5064BB5
:101128001B68002B02D0044B1B689847034B1B68B5
:1011380001225A6100BF08BD78010020282100085B
:1011480008B5064B5B68002B02D0044B5B689847D8
:10115800034B1B6802225A6100BF08BD78010020BA
:101168002821000808B5064B9B68002B02D0044BC9
:101178009B689847034B1B6804225A6100BF08BD4F
:10118800780100202821000808B5064BDB68002BF1
:1011980002D0044BDB689847034B1B6808225A614E
:1011A80000BF08BD780100202821000808B5064BBB
:1011B8001B69002B02D0044B1B699847034B1B6823
:1011C80010225A6100BF08BD7801002028210008BC
:1011D80008B5314B1B685B6903F02003002B0BD06B
:1011E8002E4B5B69002B02D02C4B5B6998472A4B2E
:1011F8001B6820225A614CE0274B1B685B6903F08F
:101208004003002B0BD0254B9B69002B02D0234BAE
:101218009B699847204B1B6840225A6139E01E4B56
:101228001B685B6903F08003002B0BD01B4BDB6949
:10123800002B02D0194BDB699847174B1B6880229B
:101248005A6126E0144B1B685B6903F48073002B1A
:101258000CD0124B1B6A002B02D0104B1B6A98470C
:101268000D4B1B684FF480725A6112E00A4B1B68E1
:101278005B6903F40073002B0BD0084B5B6A002BEF
:1012880002D0064B5B6A9847034B1B684FF4007209
:101298005A6100BF08BD00BF28210008780100205E
:1012A80008B53C4B1B685B6903F48063002B0CD0CA
:1012B800394B9B6A002B02D0374B9B6A9847354BBA
:1012C8001B684FF480625A6162E0324B1B685B69AD
:1012D80003F40063002B0CD02F4BDB6A002B02D0E9
:1012E8002D4BDB6A98472B4B1B684FF400625A6101
:1012F8004EE0284B1B685B6903F48053002B0CD02D
:10130800254B1B6B002B02D0234B1B6B9847214BA3
:101318001B684FF480525A613AE01E4B1B685B69A8
:1013280003F40053002B0CD01B4B5B6B002B02D03B
:10133800194B5B6B9847174B1B684FF400525A6167
:1013480026E0144B1B685B6903F48043002B0CD028
:10135800114B9B6B002B02D00F4B9B6B98470D4B8F
:101368001B684FF480425A6112E00A4B1B685B69A4
:1013780003F40043002B0BD0074BDB6B002B02D090
:10138800054BDB6B9847034B1B684FF400425A61CF
:1013980000BF08BD282100087801002010B596B0CC
:1013A8000390019200930B46ADF80A30A34B1B68DB
:1013B800039A9A4208D1A24B1B68A14A1268126B81
:1013C80042F001021A6344E09E4B1B68039A9A425A
:1013D80008D19B4B1B689A4A1268126B42F00202B2
:1013E8001A6336E0984B1B68039A9A4208D1944BCB
:1013F8001B68934A1268126B42F004021A6328E0D1
:10140800924B1B68039A9A4208D18D4B1B688C4AF1
:101418001268126B42F008021A631AE08C4B1B68C0
:10142800039A9A4208D1864B1B68854A1268126B48
:1014380042F010021A630CE0864B1B68039A9A422A
:1014480007D17F4B1B687E4A1268126B42F08002FC
:101458001A63019B03F00F030993019B1B0903F017
:1014680003030893019B9B0903F001030793019B66
:101478001B0A03F003030693019B03F4403305930F
:10148800039B1B681593039BDB681493039B5B68A2
:101498001393039B9B6812930123ADF846300023F6
:1014A80010934EE0BDF80A20BDF8463013409BB2B9
:1014B800002B3ED0109B5B00032202FA03F3DB43B0
:1014C8001A46159B1A40059B190C109B5B0001FAE4
:1014D80003F313431593109B5B00032202FA03F3F3
:1014E800DB431A46149B1A40109B5B00069901FACD
:1014F80003F3134314930122109B02FA03F3DB4313
:101508001A46139B1A400799109B01FA03F31343D9
:101518001393109B5B00032202FA03F3DB431A4682
:10152800129B1A40109B5B00089901FA03F31343BE
:101538001293BDF846305B00ADF84630109B01337E
:101548001093109B0F2BADDD039B159A1A60039B1C
:10155800149ADA60039B139A5A60039B129A9A6052
:10156800059BB3F5003F5ED1039B1B6A0F93039B5A
:101578005B6A0E930123ADF8463000230D931FE0FC
:10158800BDF80A20BDF8463013409BB2002B0FD09F
:101598000D9B9B000F2202FA03F3DB431A460F9BB5
:1015A8001A400D9B9B00099901FA03F313430F930B
:1015B800BDF846305B00ADF846300D9B01330D9306
:1015C8000D9B072BDCDD039B0F9A1A624FF4807387
:1015D800ADF8463000230C931FE0BDF80A20BDF893
:1015E800463013409BB2002B0FD00C9B9B000F2260
:1015F80002FA03F3DB431A460E9B1A400C9B9B002E
:10160800099901FA03F313430E93BDF846305B00C2
:10161800ADF846300C9B01330C930C9B072BDCDD9B
:10162800039B0E9A5A62009B002B01D1002336E1DE
:10163800059B002B10D04FF0FF3330E13C21000810
:1016480058210008402100084421000848210008CA
:101658004C2100085021000800230B93914B1B6874
:10166800039A9A4202D100230B9326E08E4B1B6803
:10167800039A9A4202D101230B931EE08B4B1B68FD
:10168800039A9A4202D102230B9316E0884B1B68F7
:10169800039A9A4202D103230B930EE0854B1B68F1
:1016A800039A9A4202D104230B9306E0824B1B68EB
:1016B800039A9A4201D107230B930123ADF84630D0
:1016C80000230A93E6E0BDF80A20BDF8463013402F
:1016D8009BB2002B00F0D680784B1B68774A1268C3
:1016E800526C42F480425A64754B1B680A9A9210F5
:1016F800734909680A988010023051F820100A9836
:10170800800000F00C000F2404FA00F0C0430840E9
:101718000A99890001F00C010B9C04FA01F10143BC
:10172800023243F82210674B1B68664A1268116838
:10173800BDF846200A431A60624B1B68614A12686A
:101748005268BDF84610C9430A405A60019B03F429
:101758008053002B09D05B4B1B685A4A126891686A
:10176800BDF846200A439A6009E0564B1B68554A63
:1017780012689268BDF84610C9430A409A60019BF6
:1017880003F40053002B09D04E4B1B684D4A1268D6
:10179800D168BDF846200A43DA6009E0494B1B6866
:1017A800484A1268D268BDF84610C9430A40DA6050
:1017B80045490A9B009A41F82320424B1B68BDF813
:1017C80046205A610A9B0F2B5AD801A252F823F0DF
:1017D80019180008291800083918000849180008BD
:1017E80059180008691800086918000869180008DD
:1017F800691800086918000879180008791800089D
:10180800791800087918000879180008791800086C
:1018180008210620FFF75AFC0620FFF741FC31E0BB
:1018280008210720FFF752FC0720FFF739FC29E0C1
:1018380008210820FFF74AFC0820FFF731FC21E0C7
:1018480008210920FFF742FC0920FFF729FC19E0CD
:1018580008210A20FFF73AFC0A20FFF721FC11E0D3
:1018680008211720FFF732FC1720FFF719FC09E0C1
:1018780008212820FFF72AFC2820FFF711FC01E0A7
:1018880000230CE0BDF846305B00ADF846300A9BFB
:1018980001330A930A9B0F2B7FF715AF00231846D5
:1018A80016B010BD3C210008402100084421000862
:1018B800482100084C210008502100085821000840
:1018C80024210008282100087801002082B0019016
:1018D8000B46ADF80230019B1A69BDF8023013407F
:1018E800184602B0704700BF82B001900B46ADF8B1
:1018F80002301346ADF80030BDF80220BDF80030C4
:1019080013409BB21946BDF80230DA43BDF80030E7
:1019180013401B0441EA0302019B9A6100BF02B015
:10192800704700BF82B001900B46ADF802301346F5
:10193800ADF80030BDF80230DA43BDF800301A4087
:10194800BDF80210BDF800300B409BB21B041A43CF
:10195800019B9A6100BF02B0704700BF82B001903E
:101968000B46ADF80230BDF80220019B9A6100BF1A
:1019780002B0704782B001900B46ADF80230BDF856
:1019880002301A04019B9A6100BF02B0704700BF81
:1019980082B003468DF8073007499DF907305B0987
:1019A8009DF8072002F01F02012000FA02F241F818
:1019B800232000BF02B0704700E100E082B0034678
:1019C80000918DF807309DF90730002B0CDA0D498E
:1019D8009DF8073003F00F03043B009AD2B21201BE
:1019E800D2B20B441A7609E007499DF90730009AEC
:1019F800D2B21201D2B20B4483F8002300BF02B066
:101A0800704700BF00ED00E000E100E000B583B0E2
:101A1800214B1B681B680193019B03F02003002BDB
:101A28001AD0019B03F00403002B11D1019B03F092
:101A38000403002B0CD1194B1B68002B27D0174B24
:101A48001B68154A12685268D2B2104698471EE0C1
:101A5800114B1B685B681AE0019B03F01003002B15
:101A680003D00D4B1B685B6811E0019B03F0080372
:101A7800002B03D0084B1B685B6808E0019B03F050
:101A88000103002B03D0044B1B685B68FFE700BF12
:101A980003B05DF804FB00BFF0200008B801002087
:101AA80000B587B00390029101920093404B1B68E8
:101AB800039A9A4202D14FF0FF3375E03D4B1B6801
:101AC800039A9A4253D13C4B1B683B4A1268126CEA
:101AD80042F400321A64394B18680023384A0C2142
:101AE800FFF75CFC374A009B136026238DF81730FC
:101AF80003230493344B5B685A00029B1A44029BED
:101B08005B00B2FBF3F2039B9A60039B00229A618D
:101B1800039B5B6923F47F6323F00F03039A5361EC
:101B2800039B1B6923F4FE4323F07F03019A1209E8
:101B3800120302F440521A43039B1A61039BDB68A9
:101B480023F43F4323F0FF03019A120302F4805267
:101B58001A43019B03F4E063134343F4005343F037
:101B68000C03039AD360009B002B1CD00AE0174B90
:101B78001B68039A9A4202D14FF0FF3314E04FF0EA
:101B8800FF3311E09DF9173004991846FFF716FF47
:101B98009DF917301846FFF7FBFE039BDB6843F0FF
:101BA8002002039BDA600123184607B05DF804FBA6
:101BB80008210008F0200008582100083C210008EE
:101BC80007000200B8010020280100200C210008AD
:101BD80082B0019000BF019B1B6803F02003002B1B
:101BE800F9D0019B5B68DBB2184602B0704700BFB2
:101BF80082B001900091019B1B6803F02003002B29
:101C080004D0019B5B68DAB2009B1A700023184667
:101C180002B0704782B001900B468DF8033000BFC8
:101C2800019B1B6803F08003002BF9D09DF803206B
:101C3800019B5A6000BF02B0704700BF00B583B077
:101C480001900091009B002B0CD007E0009B5A1CD0
:101C580000921B7819460198FFF7DCFF009B1B7860
:101C6800002BF3D100BF03B05DF804FB0EB400B540
:101C780090B0019012AB0C9381E0119B1B78252B3F
:101C880074D1119B01331193119B1B78642B29D0BC
:101C9800642B04DC252B09D0632B0CD05FE0752B5B
:101CA8003BD0782B4AD0732B12D058E025210198CD
:101CB800FFF7B0FF60E00C9B1A1D0C921B688DF8B3
:101CC8003B309DF83B3019460198FFF7A3FF53E0DE
:101CD8000C9B1A1D0C921B680D930D990198FFF728
:101CE800ADFF49E00C9B1A1D0C921B680F930F9BCC
:101CF800002B06DA2D210198FFF78CFF0F9B5B4222
:101D08000F9303AB0A220F99184600F043F803AB70
:101D180019460198FFF792FF2EE00C9B1A1D0C92B2
:101D28001B680F9303AB0A220F99184600F032F88C
:101D380003AB19460198FFF781FF1DE00C9B1A1DA4
:101D48000C921B680F9303AB10220F99184600F0F2
:101D580021F803AB19460198FFF770FF0CE0119BBF
:101D68001B7819460198FFF755FF05E0119B1B7872
:101D780019460198FFF74EFF119B01331193119BF0
:101D88001B78002B7FF479AF00BF10B05DF804EB2F
:101D980003B0704788B0039002910192039B0693A9
:101DA800039B5A1C0392029A0199B2FBF1F1019824
:101DB80000FB01F1521A1D498A5C1A70029A019BB4
:101DC800B2FBF3F30293029B002BE9D1039B0022A1
:101DD8001A70039A069BD31A0593002307931CE0F5
:101DE800079B069A13441B788DF81330079B069AB5
:101DF8001344079A05998A1A013A06990A441278EF
:101E08001A70079B059AD31A013B069A13449DF84A
:101E180013201A70079B01330793059B5A08079BE9
:101E28009A42DDD800BF08B0704700BF10010020FB
:101E380086B00190009100230593019B5A1C0192E2
:101E48001B788DF80F3038E09DF80F302F2B08D90C
:101E58009DF80F30392B04D89DF80F30303B049390
:101E68001EE0009B102B0CD19DF80F30402B08D999
:101E78009DF80F30462B04D89DF80F30373B04935C
:101E88000EE0009B102B1CD19DF80F30602B18D949
:101E98009DF80F30662B14D89DF80F30573B0493EC
:101EA800009B059A02FB03F2049B13440593019BD4
:101EB8005A1C01921B788DF80F309DF80F30002BBB
:101EC800C2D1059B184606B0704700BF10B5054C37
:101ED800237833B9044B13B10448AFF300800123CE
:101EE800237010BDBC010020000000008420000801
:101EF80008B5034B1BB103490348AFF3008008BD85
:101F080000000000C0010020842000080D480E4990
:101F18000E4A914204D050F8044B41F8044BF8E7BC
:101F28000B480C494FF00002884202D040F8042BBD
:101F3800FAE7FEF735FB00F017F8FEF7CFFFFFF7DB
:101F4800FEBF0000C0220008000000202801002079
:101F58002801002070030020FEE70000002301464E
:101F68001A46184600F040B870B50F4B0F4DAB42FB
:101F7800A3EB050607D0B610002455F8043B01343E
:101F88009847A642F9D800F079F8094D094B5E1B2D
:101F9800AB424FEAA60606D0002455F8043B0134AC
:101FA8009847A642F9D870BDB4220008B4220008A8
:101FB800B4220008BC22000838B5074D074C2C1B7A
:101FC800A41005D0013C55F8043D9847002CF9D1E0
:101FD800BDE8384000F058B8C0220008BC2200080C
:101FE800704700BF704700BF2DE9F8431B4D0646F8
:101FF800286898460F469146FFF7F2FF184B1C6871
:102008001CB3286865681F2D22DC4EB96B1C02358D
:10201800636044F82570FFF7E5FF0020BDE8F8830A
:1020280004EB85010123C1F88890D4F88821AB40DE
:102038001A43022EC4F88821C1F80881E6D1D4F8E1
:102048008C211A43C4F88C21E0E7064C1C60D8E7C1
:10205800FFF7C8FF4FF0FF30E0E700BF2401002082
:102068006C030020DC010020024B13B10248FFF78B
:1020780075BF704700000000C11F0008F8B500BF19
:10208800F8BC08BC9E467047F8B500BFF8BC08BC51
:042098009E467047A9
:10209C0000E000E000ED00E010E000E000E100E016
:1020AC00000000E0001000E0000004E0F0ED00E0B3
:1020BC0090ED00E030EF00E0000000400004004034
:1020CC0000080040000C004000280040002C00409C
:1020DC00003000400034004000380040003C00401C
:1020EC0000400040004400400054004000580040B4
:1020FC00005C0040007000400000014000100140F6
:10210C00001401400020014000230140002C01403C
:10211C00003001400034014000380140003C0140D7
:10212C000040014000440140004801400050014083
:10213C00000002400004024000080240000C024073
:10214C0000100240001C02400030024000380240E7
:10215C00003C0240006002401060024028600240D7
:10216C00406002405860024070600240886002404B
:10217C00A0600240B860024000640240106402405B
:10218C00286402404064024058640240706402407B
:10219C0088640240A0640240B8640240002004E05D
:1021AC0000000050000000000000000001020304C9
:1021BC00060708090D0A456E7472657A20756E65FE
:1021CC0020636F6D6D616E6465203A200000000025
:1021DC000A0D4C612074656D70C3A97261747572BF
:1021EC0065206573742025642E2564C2B0430000FD
:1021FC000A0D583D25642C20593D25642C205A3D50
:10220C0025642C20543D307825780A0D2020706FE1
:10221C00736974696F6E3A200000000066726F6E0D
:10222C00742C20006261636B2C2000006C6566745A
:10223C002C20000072696768742C2000646F776E24
:10224C002C20000075702C20000000007461707050
:10225C0065642C20000000007368616B656E003DA6
:10226C00400B401040264035400340064014400EC1
:10227C00400D402540124028400240184009400AB9
:10228C004000003D400B40104026403540034006C6
:10229C004014400E400D402540124028400240188A
:0822AC004009400A4000000057
:0822B40071200008F91E00086A
:0422BC00D51E000823
:1022C000010000000000000000000000000000000D
:1022D000000000000000000000000000020160009B
:1022E000080202000005040103000000006CDC028B
:1022F000001BB70000366E01020150010804070000
:10230000000400020200000000BD010580DE800222
:1023100000BD01050201C000080202000004000324
:102320000300000000D8B805006CDC0200D8B80536
:10233000000000000000000000000000000000009D
:10234000000000000000000000000000020050013A
:1023500008040700000400020200000000BD01059F
:1023600080DE800200BD01050024F400005400401E
:10237000000000000000000000000000000000005D
:1023800000000000000000000000000000580040B5
:10239000000000000000000000000000000000003D
:1023A000000000000000000000000000005C004091
:1023B000000000000000000000000000000000001D
:1023C0000000000000000000000000000400000009
:1023D000303132333435363738394142434445465B
:0823E00000000000D8010020FC
:0400000508001F15BB
:00000001FF
