:020000040800F2
:1000000000000220BD250008990100089D0100089C
:10001000A1010008A5010008A901000800000000D6
:10002000000000000000000000000000AD0100081A
:10003000B101000800000000B5010008B901000886
:1000400009260008092600080926000809260008D4
:100050000926000809260008D1180008F51800082C
:10006000191900083D19000861190008092600083F
:1000700009260008092600080926000809260008A4
:1000800009260008092600080926000800000000CB
:1000900000000000000000000000000085190008BA
:1000A0000926000809260008092600080926000874
:1000B0000926000809260008092600080926000864
:1000C000092600080926000809260008B9210008A9
:1000D0006522000809260008092600080000000023
:1000E000551A00080926000809260008000000002B
:1000F00000000000000000000000000009260008C9
:1001000000000000092600080926000869220008EE
:1001100000000000000000000000000000000000DF
:1001200009260008092600080926000809260008F3
:100130000926000800000000000000000000000088
:100140000000000000000000000000000926000878
:1001500009260008092600080926000809260008C3
:100160000926000809260008000000000000000021
:10017000000000000000000000000000000000007F
:100180000000000009260008000000000000000038
:080190006D2200087122000835
:1001980000BF704700BFFDE700BFFDE700BFFDE7F8
:1001A80000BFFDE700BF704700BF704700BF704742
:1001B80000BF704782B003468DF807309DF80730BE
:1001C800052B00F2928001A252F823F0ED010008FD
:1001D800150200083D020008650200088D020008AB
:1001E800B5020008424B1B6803F00103002B71D1D4
:1001F8003F4B1B683E4A43F00103136000BF3C4B72
:100208001B6803F00203002BF9D063E0384B1B682E
:1002180003F48033002B5FD1354B1B68344A43F419
:100228005023136000BF324B1B6803F40033002BCC
:10023800F9D051E02E4B1B6803F08073002B4DD191
:100248002B4B1B682A4A43F08073136000BF284B6E
:100258001B6803F00073002BF9D03FE0244B1B68A8
:1002680003F08063002B3BD1214B1B68204A43F0ED
:100278008063136000BF1E4B1B6803F00063002BF4
:10028800F9D02DE01A4B5B6F03F00103002B29D145
:10029800174B5B6F164A43F00103536700BF144BBB
:1002A8005B6F03F00203002BF9D01BE0104B1B6FB0
:1002B80003F00103002B17D10D4B1B6F0C4A43F0C1
:1002C8000103136700BF0A4B1B6F03F00203002BE7
:1002D800F9D009E000BF08E000BF06E000BF04E075
:1002E80000BF02E000BF00E000BF00BF02B07047DF
:1002F8000038024082B003468DF807309DF8073079
:10030800052B39D801A252F823F000BF2D030008AD
:100318003B03000849030008570300086503000869
:1003280073030008164B1B68154A23F0010313607A
:1003380022E0134B1B68124A23F4502313601BE07E
:100348000F4B1B680E4A23F08073136014E00C4BAC
:100358001B680B4A23F0806313600DE0084B5B6F4A
:10036800074A23F00103536706E0054B1B6F044A55
:1003780023F00103136700BF00BF02B0704700BF3E
:100388000038024082B003468DF807300C4B9B685A
:1003980023F003029DF8073003F0030308491343D1
:1003A8008B6000BF064B9B689B0803F003029DF817
:1003B80007309A42F6D100BF00BF02B0704700BFB5
:1003C8000038024000B585B001900091019B072BD1
:1003D80008D8019A1346DB009B1A9B006A4A13440B
:1003E800039301E0694B0393039B1B78012B0CD10A
:1003F8000120FFF7DFFE0120FFF7C4FF0220FFF70F
:1004080079FF0020FFF776FF95E0039B1B78022B0E
:1004180040F085805E4B1B6C5D4A43F0805313644B
:10042800039B5B78012B09D10120FFF7C3FE584BD2
:100438005B68574A43F48003536008E00020FFF7E5
:10044800B9FE534B5B68524A23F480035360514B07
:100458001B6823F04052039BDB7A1B074D4913436B
:100468000B604B4B9B6823F47C4323F0F003039A07
:10047800127A1201D2B21A43039B5B7A9B0203F4ED
:10048800E0531A43039B9B7A5B039BB24049134397
:100498008B603F4B5A68404B1340039A127902F025
:1004A8003F021A43039B5B88990147F6C0730B40D0
:1004B8001A43039B5B795B08DBB2013B1B0403F423
:1004C80040331A43039B9B791B0603F07C53304946
:1004D80013434B600220FFF76DFE304B1B6823F07F
:1004E8000F02039BDB6803F00F0313432B4A43F40B
:1004F800E06313600220FFF745FF039B5B78012B45
:1005080009D1234B1B6803F00103002B03D0002003
:10051800FFF7F0FE0FE00120FFF7ECFE0BE00020F4
:10052800FFF748FE0020FFF72DFF0220FFF7E2FE4D
:100538000120FFF7DFFE039B1A69009B1A60039BEB
:100548005A69009B5A60039B5B7A002B02D1039B7C
:100558005B6902E0039B5B695B00009A9360039B05
:100568009A69009BDA60039B9B7A002B02D1039B5C
:100578009B6902E0039B9B695B00009A136100BFC3
:1005880005B05DF804FB00BF0000002070000020EB
:1005980000380240007000400080FCF0003C02403F
:1005A80008B5184BD3F88830164A43F47003C2F8DC
:1005B8008830154B1B68144A43F001031360124B33
:1005C80000229A60104B1B680F4A23F0847323F4AF
:1005D800803313600C4B0D4A5A600B4B1B680A4A58
:1005E80023F480231360084B0022DA6008490220B4
:1005F800FFF7E8FE034B4FF000629A6000F00AF83C
:1006080000BF08BD00ED00E00038024010300024B3
:10061800CC00002086B00023049300230593022316
:1006280003930023029302230193334B9B6803F047
:100638000C030493049B082B11D0049B082B44D86B
:10064800049B002B03D0049B042B04D03DE02B4BD0
:100658002B4A1A603DE0294B2A4A1A6039E0264B9A
:100668005B689B0D03F001030293234B5B6803F067
:100678003F030193029B002B0CD0224A019BB2FB43
:10068800F3F31D4A52689209C2F3080202FB03F30E
:1006980005930BE01A4A019BB2FBF3F3164A526822
:1006A8009209C2F3080202FB03F30593124B5B683D
:1006B8001B0C03F0030301335B000393059A039BB0
:1006C800B2FBF3F30D4A136003E00C4B0C4A1A60BB
:1006D80000BF094B9B681B0903F00F030A4AD35C50
:1006E8000493064B1A68049B22FA03F3034A136027
:1006F80000BF06B0704700BF00380240A8000020C5
:100708000024F40000127A00FC28000886B0039048
:10071800029101922E4B9B680593039BB3F1804F86
:1007280006D12C4B1B6C2B4A43F0010313641FE0CA
:10073800039B294A934206D1264B1B6C254A43F05A
:100748000203136414E0039B244A934206D1214B0D
:100758001B6C204A43F00403136409E0039B204AFE
:10076800934205D11B4B1B6C1A4A43F008031364D0
:100778004FF65F730493039B1A68049B134043F07E
:100788008802039B1A60059B164AA2FB03235B0B96
:100798005A1E039B9A62029A13469B0013445B00FD
:1007A8005A1E039BDA62039B01225A61039B1B6852
:1007B80043F00102039B1A6000BF039B1B6803F010
:1007C8000103002BF9D10023184606B0704700BF7B
:1007D800CC0000200038024000040040000800401F
:1007E800000C00405917B7D186B0039002910192CE
:1007F8002C4B9B680593039BB3F1804F06D12A4B82
:100808001B6C294A43F0010313641FE0039B274A2A
:10081800934206D1244B1B6C234A43F00203136412
:1008280014E0039B224A934206D11F4B1B6C1E4ABD
:1008380043F00403136409E0039B1E4A934205D165
:10084800194B1B6C184A43F0080313644FF65F7387
:100858000493039B1A68049B134043F08802039B8C
:100868001A60059B144AA2FB03239B0C5A1E039B88
:100878009A62029B5A1E039BDA62039B01225A6109
:10088800039B1B6843F00102039B1A6000BF039B94
:100898001B6803F00103002BF9D10023184606B0AA
:1008A800704700BFCC000020003802400004004020
:1008B80000080040000C004083DE1B4384B0019018
:1008C8000091294B9B680393019BB3F1804F0AD198
:1008D800264B1B6C254A43F001031364019B4FF020
:1008E8000042DA622BE0019B214A93420AD11F4B56
:1008F8001B6C1E4A43F002031364019B4FF4004231
:10090800DA621CE0019B1B4A93420AD1174B1B6C0D
:10091800164A43F004031364019B4FF40042DA6261
:100928000DE0019B144A934209D1104B1B6C0F4AEE
:1009380043F008031364019B4FF00042DA62019B05
:100948004FF6D1721A60009B642202FB03F3039AEC
:10095800B2FBF3F35A1E019B9A62019B01225A6172
:100968000023184604B07047CC000020003802402D
:100978000004004000080040000C004082B00190D4
:10098800019B00225A62019B1B6843F00102019BF4
:100998001A6000BF02B0704782B00190019B1B68CB
:1009A80003F48032019B1A6000BF02B0704782B026
:1009B8000190019B5B6A184602B0704708B500F0C9
:1009C80023F8002000F042F800F072F900F0D8FA9D
:1009D800012000F073F80A4B1B68002209491846E9
:1009E800FFF702FF002000F069F8054B1B680022A2
:1009F8004FF47A711846FFF789FE00BFE8E700BF99
:100A08001028000840420F0008B50C4B1868002356
:100A18000B4A102101F098F80A4B18680023084A7D
:100A2800802101F091F8084B18680023044A4FF41C
:100A3800007101F089F80023184608BD8C280008C9
:100A480010000100902800088828000800B583B02D
:100A58000346ADF80630164B1868BDF806309B0003
:100A68009BB203F010039BB21022194601F02EFB33
:100A7800104B1868BDF806309B019BB203F0800349
:100A88009BB28022194601F021FB0B4B1868BDF878
:100A980006305B029BB203F400739BB24FF4007202
:100AA800194601F013FB00BF03B05DF804FB00BF5B
:100AB8008C280008902800088828000800B583B012
:100AC8000190019B002B07D0094B1B6810221021B5
:100AD800184601F0FBFA06E0054B1B6810220021BE
:100AE800184601F0F3FA00BF03B05DF804FB00BF3D
:100AF8008C28000800B583B00190019B002B07D01B
:100B0800094B1B6880228021184601F0DFFA06E0B5
:100B1800054B1B6880220021184601F0D7FA00BF58
:100B280003B05DF804FB00BF9028000800B583B04F
:100B38000190019B002B09D00A4B1B684FF40072EF
:100B48004FF40071184601F0C1FA07E0054B1B6825
:100B58004FF400720021184601F0B8FA00BF03B044
:100B68005DF804FB8828000800B583B003468DF8BB
:100B780007300F4B1B684FF48071184601F0CDFA0F
:100B88000C4B1B684021184601F0C7FA0A4B1B683A
:100B98009DF807201146184601F034FC054B1B68E8
:100BA8004021184601F0ADFA00BF03B05DF804FB20
:100BB800882800088C2800086828000800B583B039
:100BC80003468DF807300F4B1B684FF480711846A9
:100BD80001F097FA0C4B1B684021184601F09DFA6A
:100BE8000A4B1B689DF807201146184601F00AFCBD
:100BF800054B1B684021184601F083FA00BF03B07B
:100C08005DF804FB882800088C280008682800087C
:100C180000B583B0019000910E4B1B684FF48071B2
:100C2800184601F06EFA0C4B1B684021184601F07B
:100C380074FA0A4B1B68009A0199184601F0AAFB3E
:100C4800054B1B684021184601F05BFA00BF03B052
:100C58005DF804FB882800088C280008682800082C
:100C680000B583B00023019318E00020FFF77CFF54
:100C78001020FFF779FF019BDBB2503BDBB218462F
:100C8800FFF772FF019BDB011A46084B13448021D2
:100C98001846FFF7BDFF019B01330193019B032B0E
:100CA800E3DD00BF03B05DF804FB00BFF0000020E7
:100CB80008B5374B1B6803223649184601F0D6FAA7
:100CC800354B18680023354A4FF4807100F03CFF1B
:100CD800334B18680023314A402100F035FF2E4B72
:100CE800186800232D4A402100F02EFF2A4B1B686C
:100CF8004021184601F005FA274B1B684FF4807114
:100D0800184601F00AFA264B1B684021184601F0E4
:100D1800F8F9214B1B684021184601F0FEF9214BD8
:100D28001B68002232211846FFF75EFD1A4B1B682C
:100D38004021184601F0E5F91A4B1B6800220521ED
:100D48001846FFF7E3FCAE20FFF70EFFA220FFF7DF
:100D58000BFFA020FFF708FFC820FFF705FF2220A0
:100D6800FFF702FF2F20FFF7FFFE4020FFF7FCFEF2
:100D7800AF20FFF7F9FE8120FFF7F6FE1720FFF7F7
:100D8800F3FEA620FFF7F0FE0023184608BD00BFBB
:100D980068280008002D310188280008100001008B
:100DA8008C2800081C28000800B583B00190094A67
:100DB800019B13608120FFF7D7FE019BDBB203F094
:100DC8003F03DBB21846FFF7CFFE00BF03B05DF864
:100DD80004FB00BFE8000020014B1B681846704761
:100DE800E8000020802318467047202318467047E3
:100DF80000B583B00190019B002B03D1A620FFF71B
:100E0800B3FE02E0A720FFF7AFFE00BF03B05DF816
:100E180004FB82B00190034A019B136000BF02B03B
:100E2800704700BFEC000020014B1B681846704754
:100E3800B000002000B583B00190064A019B136002
:100E4800044B1B68002B01D0FFF70AFF00BF03B05B
:100E58005DF804FBB000002084B003900291019279
:100E6800039B7F2B74DC029B1F2B71DC039B002BE5
:100E78006EDB029B002B6BDB374B1B68002B44D1CE
:100E8800019B002B21D1029B002B00DA0733DB10DA
:100E9800D901039A0A44D901039B0B442F49CB5C1F
:100EA80059B2029B584203F0070300F0070058BFED
:100EB8004342012000FA03F35BB2DB435BB20B4011
:100EC8005BB2D9B2254B995443E0029B002B00DA60
:100ED8000733DB10D901039A0A44D901039B0B4459
:100EE8001E49CB5C59B2029B584203F0070300F03D
:100EF800070058BF4342012000FA03F35BB20B43DB
:100F08005BB2D9B2154B995423E0019B012B20D138
:100F1800029B002B00DA0733DB10D901039A0A443D
:100F2800D901039B0B440D49CB5C59B2029B584233
:100F380003F0070300F0070058BF4342012000FAFE
:100F480003F35BB24B405BB2D9B2044B995400E057
:100F580000BF04B0704700BFEC000020F000002084
:100F680082B001900091044A019B1360034A009BE0
:100F7800136000BF02B07047E0000020E4000020CA
:100F880008B54FF400720021054801F041FB00212B
:100F98000020FFF7E5FFFFF763FE00BF08BD00BFB5
:100FA800F000002000B58DB00390029101920093EB
:100FB800002308930023079300230B9300230A932D
:100FC800002306930023059300230993019A039BAA
:100FD800D31A0893009A029BD31A0793089B002BF5
:100FE80002DD01230B9302E04FF0FF330B93079BC5
:100FF800002B02DD01230A9302E04FF0FF330A932E
:10100800089B0B9A02FB03F30893079B0A9A02FBBF
:1010180003F30793089B5B000693079B5B0005930C
:10102800089A079B9A4229DB059A089BD31A0993C9
:101038001AE00E9A02990398FFF70EFF039A0B9B8A
:1010480013440393099B002B04DA099A059B134464
:10105800099309E0059A069BD31A099A1344099340
:10106800029A0A9B13440293039A019B9A42E0D185
:101078000E9A02990398FFF7EFFE28E0069A079B5D
:10108800D31A09931AE00E9A02990398FFF7E4FE1F
:10109800029A0A9B13440293099B002B04DA099ACB
:1010A800069B1344099309E0069A059BD31A099AEB
:1010B80013440993039A0B9B13440393029A009BCE
:1010C8009A42E0D10E9A02990398FFF7C5FE054BA4
:1010D8001B68002B01D0FFF7C3FD00BF0DB05DF802
:1010E80004FB00BFB000002000B587B00590049154
:1010F80003920293039A059B9A4208DD089B00938A
:10110800049B039A04990598FFF74CFF07E0089B96
:101118000093049B059A04990398FFF743FF029AEA
:10112800049B9A4208DD089B0093029B059A049948
:101138000598FFF737FF07E0089B0093049B059A83
:1011480002990598FFF72EFF039A059B9A4208DD3E
:10115800089B0093029B039A02990598FFF722FFC8
:1011680007E0089B0093029B059A02990398FFF7F2
:1011780019FF029A049B9A4208DD089B0093029B80
:10118800039A04990398FFF70DFF07E0089B009363
:10119800049B039A02990398FFF704FF044B1B680A
:1011A800002B01D0FFF75CFD00BF07B05DF804FB22
:1011B800B000002000B589B003900291019200931D
:1011C800039A019B9A4205DD039B0593019B0393B8
:1011D800059B0193029A009B9A4205DD029B0593A9
:1011E800009B0293059B0093039B079311E0029BCE
:1011F800069307E00A9A06990798FFF72DFE069BC3
:1012080001330693069A009B9A42F3DD079B01334C
:101218000793079A019B9A42E9DD054B1B68002B4F
:1012280001D0FFF71DFD00BF09B05DF804FB00BF4A
:10123800B000002000B599B003900291019200938C
:10124800019B002B00F0C580039B1593159B1793FA
:10125800029A019B13441493149B1693009A1699AF
:101268001798FFF7F9FD039B1193119B1393029AAB
:10127800019BD31A1093109B1293009A12991398FA
:10128800FFF7EAFD039A019B13440B930B9B0F9303
:10129800029B0A930A9B0E93009A0E990F98FFF7E8
:1012A800DBFD039A019BD31A0993099B0D93029BBB
:1012B8000893089B0C93009A0C990D98FFF7CCFDA6
:1012C800019B012B00F08780019B5B00C3F10303A6
:1012D800059300230793019B06936FE0059B002B62
:1012E80006DA079B9B000633059A1344059322E010
:1012F800079A069BD31A9B000A33059A1344059351
:10130800069B013B0693169B013B1693149B013BDE
:101318001493129B01331293109B013310930F9B6C
:10132800013B0F930D9B01330D930B9B013B0B93DB
:10133800099B01330993079B01330793179B0133DB
:101348001793159B013B1593139B01331393119B23
:10135800013B11930E9B01330E930C9B01330C93AD
:101368000A9B013B0A93089B013B0893009A169934
:101378001798FFF771FD009A14991598FFF76CFDFF
:10138800009A12991398FFF767FD009A109911981F
:10139800FFF762FD009A0E990F98FFF75DFD009A1E
:1013A8000C990D98FFF758FD009A0A990B98FFF7CA
:1013B80053FD009A08990998FFF74EFD079A069B76
:1013C8009A428BDB064B1B68002B05D0FFF748FCC5
:1013D80002E000BF00E000BF19B05DF804FB00BFE9
:1013E800B000002000B587B00390029101920093ED
:1013F800114B1B680493104B00221A6000230593BD
:1014080008E0009B059A02990398FFF713FF059BD4
:1014180001330593059A019B9A42F2DD049B064A23
:101428001360054B1B68002B01D0FFF719FC00BFA8
:1014380007B05DF804FB00BFB000002000B589B01C
:10144800039002910192002306934FE00023079333
:1014580040E0029A079B13447F2B41D8019A069BD0
:1014680013441F2B3ED8039BDA68039B9B6806999D
:1014780001FB03F1079BDB0803F01F030B44134434
:101488001B788DF81730079B03F00703802242FA78
:1014980003F304939DF81720049B1340002B0BD1F2
:1014A800029A079B13441846019A069B134400228C
:1014B8001946FFF7D1FC0AE0029A079B1344184625
:1014C800019A069B134401221946FFF7C5FC079BA6
:1014D80001330793039B1A68079B9A42B9D802E025
:1014E80000BF00E000BF069B01330693039B5A68C8
:1014F800069B9A42AAD800BF09B05DF804FB10B554
:101508008EB0039002910192019B1E2B40F39380B1
:10151800019B7F2B00F38F80484B1B681B780B9334
:10152800464B1B6801331B780A93444B1B680233F4
:101538001B780993414B1B6803331B780893404B76
:101548001A680A9BD418FFF74DFC03469C4217DD26
:101558003B4B00221A603B4B1A68099B1344394ADB
:101568001360FFF742FC0246344B1B6802331B78BA
:10157800D21A344B1B689A4202DC324B00221A60A2
:101588002E4B1A68019B203B0B9901FB03F3043394
:1015980013440793079B1B788DF81B3000230D938A
:1015A8003DE000230C9333E0089B0C9A02FB03F206
:1015B8000D9BDB1003F01F0313440133079A1344F8
:1015C8001B788DF81A300D9B03F00703012202FAED
:1015D80003F305939DF81A20059B1340002B0AD1AD
:1015E800039A0C9BD018029A0D9B134400221946AB
:1015F800FFF732FC09E0039A0C9BD018029A0D9B66
:10160800134401221946FFF727FC0C9B01330C9366
:101618000C9A0A9B9A42C7DB0D9B01330D930D9AD6
:10162800099B9A42BDDB9DF81B20054B1B681344A0
:10163800034A136000E000BF0EB010BDAC000020EC
:10164800E0000020E400002000B583B00190019B79
:101658000A2B1CD1174B00221A60174B1B68023348
:101668001B781A46154B1B681344144A1360FFF77E
:10167800BCFB0246104B1B6802331B78D21A0F4B77
:101688001B689A4211DC0D4B00221A600DE0094BD1
:1016980018680A4B1B68019A1946FFF730FF084B78
:1016A8001B68002B01D0FFF7DBFA00BF03B05DF821
:1016B80004FB00BFE0000020AC000020E400002094
:1016C800B000002000B585B00190114B1B68039352
:1016D8000F4B00221A60019B002B0BD006E0019BE8
:1016E8005A1C01921B781846FFF7AEFF019B1B7826
:1016F800002BF4D1064A039B1360054B1B68002B93
:1017080001D0FFF7ADFA00BF05B05DF804FB00BFDC
:10171800B00000200FB400B5ADF5077D4A4B1B683B
:101728008493494B00221A6089AB819378E0889BA7
:101738001B78252B6CD1889B01338893889B1B7859
:10174800642B26D0642B04DC252B09D0632B0BD00B
:1017580058E0752B36D0782B44D0732B10D051E03D
:101768002520FFF771FF58E0819B1A1D81921B68A5
:101778008DF80F329DF80F321846FFF765FF4CE0E1
:10178800819B1A1D81921B6882938298FFF79AFFAA
:1017980043E0819B1A1D81921B688593859B002BD2
:1017A80005DA2D20FFF750FF859B5B42859301AB3F
:1017B8000A228599184600F041FE01AB1846FFF74A
:1017C80081FF2AE0819B1A1D81921B68859301ABDA
:1017D8000A228599184600F031FE01AB1846FFF73A
:1017E80071FF1AE0819B1A1D81921B68859301ABDA
:1017F80010228599184600F021FE01AB1846FFF724
:1018080061FF0AE0889B1B781846FFF71DFF04E07C
:10181800889B1B781846FFF717FF889B013388932E
:10182800889B1B78002B82D1074A849B1360064B48
:101838001B68002B01D0FFF713FA00BF0DF5077DD9
:101848005DF804EB04B07047B000002082B0034696
:101858008DF8073007499DF907305B099DF8072087
:1018680002F01F02012000FA02F241F8232000BF13
:1018780002B0704700E100E082B0034600918DF8A5
:1018880007309DF90730002B0CDA0D499DF8073019
:1018980003F00F03043B009AD2B21201D2B20B44F8
:1018A8001A7609E007499DF90730009AD2B2120169
:1018B800D2B20B4483F8002300BF02B0704700BFC8
:1018C80000ED00E000E100E008B5064B1B68002BC6
:1018D80002D0044B1B689847034B1B6801225A61CE
:1018E80000BF08BDF00200207428000808B5064BA8
:1018F8005B68002B02D0044B5B689847034B1B685E
:1019080002225A6100BF08BDF002002074280008B6
:1019180008B5064B9B68002B02D0044B9B68984780
:10192800034B1B6804225A6100BF08BDF002002067
:101938007428000808B5064BDB68002B02D0044B5E
:10194800DB689847034B1B6808225A6100BF08BD33
:10195800F00200207428000808B5064B1B69002B0C
:1019680002D0044B1B699847034B1B6810225A612D
:1019780000BF08BDF00200207428000808B5314BEC
:101988001B685B6903F02003002B0BD02E4B5B69AF
:10199800002B02D02C4B5B6998472A4B1B682022EE
:1019A8005A614CE0274B1B685B6903F04003002B2E
:1019B8000BD0254B9B69002B02D0234B9B69984782
:1019C800204B1B6840225A6139E01E4B1B685B693B
:1019D80003F08003002B0BD01B4BDB69002B02D0DC
:1019E800194BDB699847174B1B6880225A6126E020
:1019F800144B1B685B6903F48073002B0CD0124BEB
:101A08001B6A002B02D0104B1B6A98470D4B1B68B2
:101A18004FF480725A6112E00A4B1B685B6903F449
:101A28000073002B0BD0084B5B6A002B02D0064BCF
:101A38005B6A9847034B1B684FF400725A6100BFFA
:101A480008BD00BF74280008F002002008B53C4B10
:101A58001B685B6903F48063002B0CD0394B9B6ACD
:101A6800002B02D0374B9B6A9847354B1B684FF4C5
:101A780080625A6162E0324B1B685B6903F4006361
:101A8800002B0CD02F4BDB6A002B02D02D4BDB6ACE
:101A980098472B4B1B684FF400625A614EE0284B65
:101AA8001B685B6903F48053002B0CD0254B1B6B20
:101AB800002B02D0234B1B6B9847214B1B684FF41C
:101AC80080525A613AE01E4B1B685B6903F400536D
:101AD800002B0CD01B4B5B6B002B02D0194B5B6BA4
:101AE8009847174B1B684FF400525A6126E0144B75
:101AF8001B685B6903F48043002B0CD0114B9B6B74
:101B0800002B02D00F4B9B6B98470D4B1B684FF473
:101B180080425A6112E00A4B1B685B6903F4004378
:101B2800002B0BD0074BDB6B002B02D0054BDB6B7C
:101B38009847034B1B684FF400425A6100BF08BD29
:101B480074280008F002002010B596B003900192A6
:101B580000930B46ADF80A30A34B1B68039A9A42D0
:101B680008D1A24B1B68A14A1268126B42F001020D
:101B78001A6344E09E4B1B68039A9A4208D19B4B18
:101B88001B689A4A1268126B42F002021A6336E026
:101B9800984B1B68039A9A4208D1944B1B68934A46
:101BA8001268126B42F004021A6328E0924B1B6819
:101BB800039A9A4208D18D4B1B688C4A1268126BA3
:101BC80042F008021A631AE08C4B1B68039A9A4287
:101BD80008D1864B1B68854A1268126B42F01002C6
:101BE8001A630CE0864B1B68039A9A4207D17F4B15
:101BF8001B687E4A1268126B42F080021A63019BCE
:101C080003F00F030993019B1B0903F003030893D7
:101C1800019B9B0903F001030793019B1B0A03F037
:101C280003030693019B03F440330593039B1B684E
:101C38001593039BDB681493039B5B681393039BC7
:101C48009B6812930123ADF84630002310934EE0B1
:101C5800BDF80A20BDF8463013409BB2002B3ED099
:101C6800109B5B00032202FA03F3DB431A46159B21
:101C78001A40059B190C109B5B0001FA03F31343F0
:101C88001593109B5B00032202FA03F3DB431A4609
:101C9800149B1A40109B5B00069901FA03F3134347
:101CA80014930122109B02FA03F3DB431A46139B99
:101CB8001A400799109B01FA03F313431393109BDF
:101CC8005B00032202FA03F3DB431A46129B1A4015
:101CD800109B5B00089901FA03F313431293BDF8B4
:101CE80046305B00ADF84630109B01331093109BD3
:101CF8000F2BADDD039B159A1A60039B149ADA60CB
:101D0800039B139A5A60039B129A9A60059BB3F53A
:101D1800003F5ED1039B1B6A0F93039B5B6A0E9384
:101D28000123ADF8463000230D931FE0BDF80A20CB
:101D3800BDF8463013409BB2002B0FD00D9B9B0083
:101D48000F2202FA03F3DB431A460F9B1A400D9B3E
:101D58009B00099901FA03F313430F93BDF846302A
:101D68005B00ADF846300D9B01330D930D9B072B9F
:101D7800DCDD039B0F9A1A624FF48073ADF846308E
:101D880000230C931FE0BDF80A20BDF8463013402D
:101D98009BB2002B0FD00C9B9B000F2202FA03F37F
:101DA800DB431A460E9B1A400C9B9B00099901FACB
:101DB80003F313430E93BDF846305B00ADF846308D
:101DC8000C9B01330C930C9B072BDCDD039B0E9AB9
:101DD8005A62009B002B01D1002336E1059B002BA2
:101DE80010D04FF0FF3330E188280008A4280008FD
:101DF8008C280008902800089428000898280008D3
:101E08009C28000800230B93914B1B68039A9A4265
:101E180002D100230B9326E08E4B1B68039A9A424B
:101E280002D101230B931EE08B4B1B68039A9A4245
:101E380002D102230B9316E0884B1B68039A9A423F
:101E480002D103230B930EE0854B1B68039A9A4239
:101E580002D104230B9306E0824B1B68039A9A4233
:101E680001D107230B930123ADF8463000230A93D1
:101E7800E6E0BDF80A20BDF8463013409BB2002BBF
:101E880000F0D680784B1B68774A1268526C42F48F
:101E980080425A64754B1B680A9A92107349096804
:101EA8000A988010023051F820100A98800000F03B
:101EB8000C000F2404FA00F0C04308400A99890076
:101EC80001F00C010B9C04FA01F10143023243F8C2
:101ED8002210674B1B68664A12681168BDF84620D5
:101EE8000A431A60624B1B68614A12685268BDF85F
:101EF8004610C9430A405A60019B03F48053002BE3
:101F080009D05B4B1B685A4A12689168BDF8462095
:101F18000A439A6009E0564B1B68554A1268926852
:101F2800BDF84610C9430A409A60019B03F4005368
:101F3800002B09D04E4B1B684D4A1268D168BDF87A
:101F480046200A43DA6009E0494B1B68484A126890
:101F5800D268BDF84610C9430A40DA6045490A9B71
:101F6800009A41F82320424B1B68BDF846205A616D
:101F78000A9B0F2B5AD801A252F823F0C51F00085C
:101F8800D51F0008E51F0008F51F000805200008F8
:101F98001520000815200008152000081520000845
:101FA8001520000825200008252000082520000805
:101FB80025200008252000082520000808210620E3
:101FC800FFF75AFC0620FFF741FC31E00821072003
:101FD800FFF752FC0720FFF739FC29E00821082009
:101FE800FFF74AFC0820FFF731FC21E0082109200F
:101FF800FFF742FC0920FFF729FC19E008210A2015
:10200800FFF73AFC0A20FFF721FC11E0082117200E
:10201800FFF732FC1720FFF719FC09E008212820F8
:10202800FFF72AFC2820FFF711FC01E000230CE051
:10203800BDF846305B00ADF846300A9B01330A9381
:102048000A9B0F2B7FF715AF0023184616B010BD5B
:10205800882800088C280008902800089428000880
:10206800982800089C280008A42800087028000860
:1020780074280008F002002082B001900B46ADF8E9
:102088000230019B1A69BDF802301340184602B0AD
:10209800704782B001900B46ADF802301346ADF898
:1020A8000030BDF80220BDF8003013409BB219463D
:1020B800BDF80230DA43BDF8003013401B0441EA92
:1020C8000302019B9A6100BF02B0704782B0019081
:1020D8000B46ADF802301346ADF80030BDF80230BB
:1020E800DA43BDF800301A40BDF80210BDF80030E0
:1020F8000B409BB21B041A43019B9A6100BF02B0BC
:10210800704782B001900B46ADF80230BDF802204E
:10211800019B9A6100BF02B0704782B001900B46E4
:10212800ADF80230BDF802301A04019B9A6100BF75
:1021380002B0704782B003468DF8073007499DF911
:1021480007305B099DF8072002F01F02012000FA02
:1021580002F241F8232000BF02B0704700E100E01E
:1021680082B0034600918DF807309DF90730002BA7
:102178000CDA0D499DF8073003F00F03043B009A71
:10218800D2B21201D2B20B441A7609E007499DF97E
:102198000730009AD2B21201D2B20B4483F800235E
:1021A80000BF02B0704700BF00ED00E000E100E0B2
:1021B80010B4214B9B68214A1360204B1B6803F025
:1021C8000203002B1FD01E4B1B68002B1BD01D4B7E
:1021D8001B68012B01D9184BDB6817481A4B1A6882
:1021E800184B1B68591C174C216013441B78C3609B
:1021F800134B1B68013B124A1360144B1B680133D5
:10220800124A13600FE00C4BDB680B4A0A4B5B6801
:1022180023F0800353600E4B1B6801330C4A136094
:102228000C4B00221A700C4B1B6801330A4A1360CE
:1022380000BF5DF8044B70470030014000050020E6
:10224800340300203803002030030020440300201A
:10225800480300203C0300204003002000BF7047D3
:1022680000BF704700BF704700BF704700B58BB014
:102278000390029101923E4B1B68039A9A421ED129
:1022880023238DF82330042307933A4B1B68394ADC
:102298001268526C42F480525A64374BDB680693DA
:1022A800364B18680023364AA021FFF74DFC069AE2
:1022B800029BB2FBF3F30593002309934FE0314BE4
:1022C8001B68039A9A4202D14FF0FF334CE02E4B21
:1022D8001B68039A9A4202D14FF0FF3344E02B4B1C
:1022E8001B68039A9A4202D14FF0FF333CE0284B17
:1022F8001B68039A9A4202D14FF0FF3334E04FF043
:10230800FF3331E0099B0133012202FA03F31A4635
:10231800059B9A4220D3099BDA00019B134343F49F
:102328004172039B1A60039B04225A609DF9233073
:1023380007991846FFF714FF9DF923301846FFF751
:10234800F9FE039B1B6843F04002039B1A60069A40
:10235800099B02FA03F307E0099B01330993099BE0
:10236800072BCFD94FF0FF3318460BB05DF804FBAD
:1023780068280008A4280008CC0000208828000845
:102388001500020030280008342800086C280008CE
:102398008428000884B0039002910192154B012211
:1023A8001A70154A029B1360019B013B134A136084
:1023B800134B01221A60039B5B6843F08002039B66
:1023C8005A600D4B1B681B781A46039BDA6000BFE6
:1023D800039B9B6803F00303002BF9D0039B9B68C6
:1023E80003F08003002BF3D1039BDB6800BF04B02C
:1023F800704700BF3C030020300300203403002056
:102408003803002082B001900B468DF803309DF808
:102418000320019BDA6000BF019B9B6803F0030364
:10242800002BF9D0019B9B6803F08003002BF3D1AC
:10243800019BDB6800BF02B0704700BF88B0039003
:1024480002910192039B0693039B5A1C0392029AE2
:102458000199B2FBF1F1019800FB01F1521A1D49F3
:102468008A5C1A70029A019BB2FBF3F30293029BF7
:10247800002BE9D1039B00221A70039A069BD31AFA
:102488000593002307931CE0079B069A13441B78C7
:102498008DF81330079B069A1344079A05998A1AF0
:1024A800013A06990A4412781A70079B059AD31ABA
:1024B800013B069A13449DF813201A70079B0133B9
:1024C8000793059B5A08079B9A42DDD800BF08B0BE
:1024D800704700BFB400002086B00190009100232F
:1024E8000593019B5A1C01921B788DF80F3038E038
:1024F8009DF80F302F2B08D99DF80F30392B04D8B1
:102508009DF80F30303B04931EE0009B102B0CD13C
:102518009DF80F30402B08D99DF80F30462B04D872
:102528009DF80F30373B04930EE0009B102B1CD115
:102538009DF80F30602B18D99DF80F30662B14D8F2
:102548009DF80F30573B0493009B059A02FB03F25A
:10255800049B13440593019B5A1C01921B788DF828
:102568000F309DF80F30002BC2D1059B184606B0DE
:10257800704700BF10B5054C237833B9044B13B12D
:102588000448AFF300800123237010BD4C030020E2
:1025980000000000D027000808B5034B1BB1034911
:1025A8000348AFF3008008BD00000000500300207E
:1025B800D02700080D480E490E4A914204D050F821
:1025C800044B41F8044BF8E70B480C494FF0000264
:1025D800884202D040F8042BFAE7FDF7E1FF00F04B
:1025E80069F8FEF7EBF9FFF7FEBF0000843000083A
:1025F80000000020CC000020CC00002004050020B2
:10260800FEE70000002301461A46184600F092B87B
:10261800830730B547D0541E002A3ED0CAB20346BD
:1026280001E0013C39D303F8012B9D07F9D1032CB4
:102638002CD9CDB205EB05250F2C05EB054535D971
:10264800A4F1100222F00F0C03F1100EE6444FEA39
:10265800121C1A46156055609560D5601032724597
:10266800F8D10CF1010214F00C0F03EB021204F084
:102678000F0C13D0ACF1040323F003030433134409
:1026880042F8045B9A42FBD10CF003042CB1C9B2A6
:102698001C4403F8011B9C42FBD130BD6446134621
:1026A800002CF4D1F9E703461446C0E71A46A446BD
:1026B800E0E700BF70B50F4B0F4DAB42A3EB05062B
:1026C80007D0B610002455F8043B01349847A642B9
:1026D800F9D800F079F8094D094B5E1BAB424FEA77
:1026E800A60606D0002455F8043B01349847A642B4
:1026F800F9D870BD783000087830000878300008C4
:102708008030000838B5074D074C2C1BA41005D0A5
:10271800013C55F8043D9847002CF9D1BDE83840F4
:1027280000F058B88430000880300008704700BFB7
:10273800704700BF2DE9F8431B4D064628689846A8
:102748000F469146FFF7F2FF184B1C681CB3286828
:1027580065681F2D22DC4EB96B1C0235636044F896
:102768002570FFF7E5FF0020BDE8F88304EB85013D
:102778000123C1F88890D4F88821AB401A43022E6F
:10278800C4F88821C1F80881E6D1D4F88C211A430D
:10279800C4F88C21E0E7064C1C60D8E7FFF7C8FFB7
:1027A8004FF0FF30E0E700BFC8000020FC04002025
:1027B8006C030020024B13B10248FFF723BF704798
:1027C800000000000D270008F8B500BFF8BC08BCE1
:1027D8009E467047F8B500BFF8BC08BC9E467047D7
:1027E80000E000E000ED00E010E000E000E100E0C3
:1027F800000000E0001000E0000004E0F0ED00E060
:1028080090ED00E030EF00E00000004000040040E0
:1028180000080040000C004000280040002C004048
:10282800003000400034004000380040003C0040C8
:102838000040004000440040005400400058004060
:10284800005C0040007000400000014000100140A2
:10285800001401400020014000230140002C0140E9
:10286800003001400034014000380140003C014084
:102878000040014000440140004801400050014030
:10288800000002400004024000080240000C024020
:1028980000100240001C0240003002400038024094
:1028A800003C024000600240106002402860024084
:1028B80040600240586002407060024088600240F8
:1028C800A0600240B8600240006402401064024008
:1028D8002864024040640240586402407064024028
:1028E80088640240A0640240B8640240002004E00A
:1028F8000000005000000000000000000102030476
:102908000607080913090902050000000000000075
:1029180000000000000000000000000200009E000F
:10292800000000000000000000000000000004009B
:102938000006000000060000000000000000000083
:10294800000600005000F8005000F8005000000099
:10295800000000000600008C009200FE01A200406A
:1029680000000000000000071E0092005E0020002A
:10297800F8009400F2000000000007000064009ACC
:1029880000AA00CC006000800000000000020000E7
:102998000600000000000000000000000000000029
:1029A8000300007C0083010000000000000000001C
:1029B80000000003000083017C000000000000000C
:1029C8000000000000000400003000780030000023
:1029D80000000000000000000005100010007C004E
:1029E800100010000000000000000000020001C0FC
:1029F80000000000000000000000000000000004CB
:102A0800000010001000100000000000000000008E
:102A1800000002000080000000000000000000002C
:102A28000000000000040001E0001C00030000009A
:102A380000000000000000000500007C0082008209
:102A4800007C0000000000000000000500000800F5
:102A58000400FE0000000000000000000000050067
:102A6800008400C200A2009C0000000000000000DA
:102A7800000500008200920092006C000000000037
:102A88000000000005000038002C002200FE0000B5
:102A9800000000000000000500009E009200920067
:102AA800620000000000000000000500007C0092A9
:102AB8000092007400000000000000000005000003
:102AC8000200C20032000E000000000000000000FA
:102AD8000500006C00920092006C000000000000ED
:102AE8000000000500009C00920092007C0000009D
:102AF8000000000000000200008800000000000044
:102B0800000000000000000000020001C8000000F2
:102B18000000000000000000000000000510001088
:102B28000028002800440000000000000000000504
:102B380000002800280028002800000000000000ED
:102B480000000500004400280028001000000000D4
:102B580000000000000500000200B20012000C0096
:102B68000000000000000000090000F80084017265
:102B7800014A014A017A0142003C00060000F800BF
:102B8800240022002400F8000000000000000600D5
:102B980000FE009200920092006C0000000000000D
:102BA800000600007C0082008200820044000000D1
:102BB80000000000060000FE0082008200C6007CC3
:102BC80000000000000000050000FE0092009200D6
:102BD80092000000000000000000050000FE001246
:102BE80000120012000000000000000000060000B3
:102BF8007C00C60082009200F60000000000000081
:102C0800060000FE00100010001000FE000000008A
:102C1800000000020000FE000000000000000000AC
:102C2800000000000000040000800080007E00001A
:102C3800000000000000000000050000FE00100079
:102C48002C00C2000000000000000000050000FE8B
:102C580000800080008000000000000000000008E4
:102C68000000FE0006001800E00018000600FE0044
:102C78000000060000FE00060018006000FE0000CC
:102C880000000000000600007C0082008200820034
:102C98007C00000000000000050000FE0012001289
:102CA800000C0000000000000000000700007C008D
:102CB80082008200C200FC00000100000000050044
:102CC80000FE0012001200EC0000000000000000EE
:102CD80000050000CC009200920066000000000091
:102CE8000000000006000002000200FE00020002D0
:102CF800000000000000000600007E008000800048
:102D080080007E0000000000000007000006003C74
:102D180000E000E0001C00060000000000060000C3
:102D28001E00E0003E00E0001E0000000000000061
:102D38000600008200640038006C00820000000079
:102D480000000006000002000C00F0000C00020069
:102D58000000000000000600008200E20092008EE1
:102D6800008200000000000000030000FF010101D4
:102D78000000000000000000000000000401000E38
:102D88000070008001000000000000000000000248
:102D98000101FF0100000000000000000000000029
:102DA800000004000018000C0018000000000000DB
:102DB8000000000000060001000100010001000100
:102DC80000010000000000000300000100020000F4
:102DD8000000000000000000000000050000E800FE
:102DE800A800A800F800000000000000000005008E
:102DF80000FE00880088007000000000000000004D
:102E080000050000700088008800880000000000AD
:102E180000000000050000700088008800FE000027
:102E2800000000000000000500007000A800A800D5
:102E3800B0000000000000000000040800FE000AC6
:102E48000002000000000000000000000005000073
:102E5800300048014801F8010000000000000000AF
:102E6800050000FE0008000800F80000000000004F
:102E7800000000020000FA0000000000000000004E
:102E8800000000000000020001FA0100000000003C
:102E9800000000000000000000050000FE00200007
:102EA800500088000000000000000000020000FE42
:102EB8000000000000000000000000000000000604
:102EC8000000F8000800F8000800F8000000000002
:102ED8000000050000F80008000800F800000000E5
:102EE80000000000000500007000880088007000E5
:102EF8000000000000000000050000F8014800483C
:102F08000030000000000000000000050000300054
:102F180048004800F801000000000000000004001C
:102F280000F8000800080000000000000000000091
:102F3800000400009800A800E8000000000000005D
:102F4800000000000400000800FC008800000000E9
:102F580000000000000000050000780080008000EC
:102F6800F80000000000000000000400003800C065
:102F7800003800000000000000000000000600000B
:102F88007800C0003800C000780000000000000091
:102F98000500008800700070008800000000000034
:102FA800000000050000380040014001F800000062
:102FB800000000000000050000C800E800B8008814
:102FC8000000000000000000000410003800EF01BD
:102FD80001010000000000000000000003000000E4
:102FE80000FF0100000000000000000000000004D5
:102FF8000101C701380010000000000000000000B7
:103008000000050C0004000C0008000C0000000083
:10301800000000000003FE010201FE0100000000A4
:1030280000000000000000003D400B40104026401A
:1030380035400340064014400E400D4025401240E4
:1030480028400240184009400A4000003D400B401B
:103058001040264035400340064014400E400D40C5
:103068002540124028400240184009400A4000000C
:08307800BD270008A125000896
:043080007D250008A2
:10308400010000000000000000000000000000003B
:1030940000000000000000000000000002016000C9
:1030A400080202000005040103000000006CDC02B9
:1030B400001BB70000366E0102015001080407002E
:1030C400000400020200000000BD010580DE800251
:1030D40000BD01050201C000080202000004000353
:1030E4000300000000D8B805006CDC0200D8B80565
:1030F40000000000000000000000000000000000CC
:103104000000000000000000000000000200500168
:1031140008040700000400020200000000BD0105CD
:1031240080DE800200BD01050024F4000C290008A3
:1031340001000000303132333435363738394142FA
:0C314400434445460000000068030020E2
:04000005080025BD0D
:00000001FF
