:020000040800F2
:1000000000000220152E0008990100089D0100083B
:10001000A1010008A5010008A901000800000000D6
:10002000000000000000000000000000AD0100081A
:10003000B101000800000000B5010008B901000886
:10004000612E0008612E0008612E0008612E000854
:10005000612E0008612E000891070008B50700080E
:10006000D9070008FD07000821080008612E0008D4
:10007000612E0008612E0008612E0008612E000824
:10008000612E0008612E0008612E000800000000AB
:10009000000000000000000000000000450800080B
:1000A000612E0008612E0008612E0008612E0008F4
:1000B000B5140008E11400080D150008612E0008B1
:1000C000612E0008612E0008612E0008492B0008EF
:1000D000F52B0008612E0008612E000800000000CA
:1000E00015090008612E0008612E000800000000BC
:1000F000000000000000000000000000612E000869
:1001000000000000612E000839150008F92B0008D6
:1001100000000000000000000000000000000000DF
:10012000612E0008612E0008612E0008612E000873
:10013000612E000800000000000000000000000028
:10014000000000000000000000000000612E000818
:10015000612E0008612E0008612E0008612E000843
:10016000612E0008612E0008000000000000000061
:10017000000000000000000000000000000000007F
:1001800000000000612E00080000000000000000D8
:08019000FD2B0008012C000802
:1001980000BF704700BFFDE700BFFDE700BFFDE7F8
:1001A80000BFFDE700BF704700BF704700BF704742
:1001B80000BF704782B003468DF807309DF80730BE
:1001C800052B00F2928001A252F823F0ED010008FD
:1001D800150200083D020008650200088D020008AB
:1001E800B5020008424B1B6803F00103002B71D1D4
:1001F8003F4B1B683E4A43F00103136000BF3C4B72
:100208001B6803F00203002BF9D063E0384B1B682E
:1002180003F48033002B5FD1354B1B68344A43F419
:100228005023136000BF324B1B6803F40033002BCC
:10023800F9D051E02E4B1B6803F08073002B4DD191
:100248002B4B1B682A4A43F08073136000BF284B6E
:100258001B6803F00073002BF9D03FE0244B1B68A8
:1002680003F08063002B3BD1214B1B68204A43F0ED
:100278008063136000BF1E4B1B6803F00063002BF4
:10028800F9D02DE01A4B5B6F03F00103002B29D145
:10029800174B5B6F164A43F00103536700BF144BBB
:1002A8005B6F03F00203002BF9D01BE0104B1B6FB0
:1002B80003F00103002B17D10D4B1B6F0C4A43F0C1
:1002C8000103136700BF0A4B1B6F03F00203002BE7
:1002D800F9D009E000BF08E000BF06E000BF04E075
:1002E80000BF02E000BF00E000BF00BF02B07047DF
:1002F8000038024082B003468DF807309DF8073079
:10030800052B39D801A252F823F000BF2D030008AD
:100318003B03000849030008570300086503000869
:1003280073030008164B1B68154A23F0010313607A
:1003380022E0134B1B68124A23F4502313601BE07E
:100348000F4B1B680E4A23F08073136014E00C4BAC
:100358001B680B4A23F0806313600DE0084B5B6F4A
:10036800074A23F00103536706E0054B1B6F044A55
:1003780023F00103136700BF00BF02B0704700BF3E
:100388000038024082B003468DF807300C4B9B685A
:1003980023F003029DF8073003F0030308491343D1
:1003A8008B6000BF064B9B689B0803F003029DF817
:1003B80007309A42F6D100BF00BF02B0704700BFB5
:1003C8000038024000B585B001900091019B072BD1
:1003D80008D8019A1346DB009B1A9B006A4A13440B
:1003E800039301E0694B0393039B1B78012B0CD10A
:1003F8000120FFF7DFFE0120FFF7C4FF0220FFF70F
:1004080079FF0020FFF776FF95E0039B1B78022B0E
:1004180040F085805E4B1B6C5D4A43F0805313644B
:10042800039B5B78012B09D10120FFF7C3FE584BD2
:100438005B68574A43F48003536008E00020FFF7E5
:10044800B9FE534B5B68524A23F480035360514B07
:100458001B6823F04052039BDB7A1B074D4913436B
:100468000B604B4B9B6823F47C4323F0F003039A07
:10047800127A1201D2B21A43039B5B7A9B0203F4ED
:10048800E0531A43039B9B7A5B039BB24049134397
:100498008B603F4B5A68404B1340039A127902F025
:1004A8003F021A43039B5B88990147F6C0730B40D0
:1004B8001A43039B5B795B08DBB2013B1B0403F423
:1004C80040331A43039B9B791B0603F07C53304946
:1004D80013434B600220FFF76DFE304B1B6823F07F
:1004E8000F02039BDB6803F00F0313432B4A43F40B
:1004F800E06313600220FFF745FF039B5B78012B45
:1005080009D1234B1B6803F00103002B03D0002003
:10051800FFF7F0FE0FE00120FFF7ECFE0BE00020F4
:10052800FFF748FE0020FFF72DFF0220FFF7E2FE4D
:100538000120FFF7DFFE039B1A69009B1A60039BEB
:100548005A69009B5A60039B5B7A002B02D1039B7C
:100558005B6902E0039B5B695B00009A9360039B05
:100568009A69009BDA60039B9B7A002B02D1039B5C
:100578009B6902E0039B9B695B00009A136100BFC3
:1005880005B05DF804FB00BF0000002070000020EB
:1005980000380240007000400080FCF0003C02403F
:1005A80008B5184BD3F88830164A43F47003C2F8DC
:1005B8008830154B1B68144A43F001031360124B33
:1005C80000229A60104B1B680F4A23F0847323F4AF
:1005D800803313600C4B0D4A5A600B4B1B680A4A58
:1005E80023F480231360084B0022DA6008490220B4
:1005F800FFF7E8FE034B4FF000629A6000F00AF83C
:1006080000BF08BD00ED00E00038024010300024B3
:10061800F404002086B000230493002305930223EA
:1006280003930023029302230193334B9B6803F047
:100638000C030493049B082B11D0049B082B44D86B
:10064800049B002B03D0049B042B04D03DE02B4BD0
:100658002B4A1A603DE0294B2A4A1A6039E0264B9A
:100668005B689B0D03F001030293234B5B6803F067
:100678003F030193029B002B0CD0224A019BB2FB43
:10068800F3F31D4A52689209C2F3080202FB03F30E
:1006980005930BE01A4A019BB2FBF3F3164A526822
:1006A8009209C2F3080202FB03F30593124B5B683D
:1006B8001B0C03F0030301335B000393059A039BB0
:1006C800B2FBF3F30D4A136003E00C4B0C4A1A60BB
:1006D80000BF094B9B681B0903F00F030A4AD35C50
:1006E8000493064B1A68049B22FA03F3034A136027
:1006F80000BF06B0704700BF00380240A8000020C5
:100708000024F40000127A005431000882B0034635
:100718008DF807309DF8073003F01F0205499DF951
:1007280007305B09012000FA02F241F8232000BFDC
:1007380002B0704700E100E082B0034600918DF8F6
:1007480007309DF90730002B0CDA009BDAB20C4910
:100758009DF8073003F00F03043B1201D2B20B449B
:100768001A7609E0009BDAB206499DF907301201B2
:10077800D2B20B4483F8002300BF02B0704700BF19
:1007880000ED00E000E100E008B5064B1B68002B17
:1007980002D0044B1B689847034B1B6801225A611F
:1007A80000BF08BD08050020CC30000808B5064B7E
:1007B8005B68002B02D0044B5B689847034B1B68AF
:1007C80002225A6100BF08BD08050020CC3000088D
:1007D80008B5064B9B68002B02D0044B9B689847D2
:1007E800034B1B6804225A6100BF08BD080500209E
:1007F800CC30000808B5064BDB68002B02D0044B50
:10080800DB689847034B1B6808225A6100BF08BD84
:1008180008050020CC30000808B5064B1B69002BE2
:1008280002D0044B1B699847034B1B6810225A617E
:1008380000BF08BD08050020CC30000808B5314BC2
:100848001B685B6903F02003002B0BD02E4B5B6900
:10085800002B02D02C4B5B6998472A4B1B6820223F
:100868005A614CE0274B1B685B6903F04003002B7F
:100878000BD0254B9B69002B02D0234B9B699847D3
:10088800204B1B6840225A6139E01E4B1B685B698C
:1008980003F08003002B0BD01B4BDB69002B02D02D
:1008A800194BDB699847174B1B6880225A6126E071
:1008B800144B1B685B6903F48073002B0CD0124B3C
:1008C8001B6A002B02D0104B1B6A98470D4B1B6804
:1008D8004FF480725A6112E00A4B1B685B6903F49B
:1008E8000073002B0BD0084B5B6A002B02D0064B21
:1008F8005B6A9847034B1B684FF400725A6100BF4C
:1009080008BD00BFCC3000080805002008B53C4BE6
:100918001B685B6903F48063002B0CD0394B9B6A1E
:10092800002B02D0374B9B6A9847354B1B684FF416
:1009380080625A6162E0324B1B685B6903F40063B2
:10094800002B0CD02F4BDB6A002B02D02D4BDB6A1F
:1009580098472B4B1B684FF400625A614EE0284BB6
:100968001B685B6903F48053002B0CD0254B1B6B71
:10097800002B02D0234B1B6B9847214B1B684FF46D
:1009880080525A613AE01E4B1B685B6903F40053BE
:10099800002B0CD01B4B5B6B002B02D0194B5B6BF5
:1009A8009847174B1B684FF400525A6126E0144BC6
:1009B8001B685B6903F48043002B0CD0114B9B6BC5
:1009C800002B02D00F4B9B6B98470D4B1B684FF4C5
:1009D80080425A6112E00A4B1B685B6903F40043CA
:1009E800002B0BD0074BDB6B002B02D0054BDB6BCE
:1009F8009847034B1B684FF400425A6100BF08BD7B
:100A0800CC3000080805002000B597B0039001928B
:100A180000930B46ADF80A30A04B1B68039A9A4224
:100A280008D19F4B1B681A6B9D4B1B6842F0010253
:100A38001A6344E09B4B1B68039A9A4208D1984B6F
:100A48001B681A6B964B1B6842F002021A6336E069
:100A5800954B1B68039A9A4208D1914B1B681A6BF5
:100A68008F4B1B6842F004021A6328E08F4B1B6807
:100A7800039A9A4208D18A4B1B681A6B884B1B68E9
:100A880042F008021A631AE0894B1B68039A9A42DB
:100A980008D1834B1B681A6B814B1B6842F010020C
:100AA8001A630CE0834B1B68039A9A4207D17C4B6C
:100AB8001B681A6B7A4B1B6842F080021A63019B11
:100AC80003F00F030993019B1B0903F00303089329
:100AD800019B9B0903F001030793019B1B0A03F089
:100AE80003030693019B03F440330593039B1B68A0
:100AF8001593039BDB681493039B5B681393039B19
:100B08009B6812930123ADF84630002310934EE002
:100B1800BDF80A20BDF8463013409BB2002B3ED0EA
:100B2800109B5B00032202FA03F3DB431A46159B72
:100B38001A40059B190C109B5B0001FA03F3134341
:100B48001593109B5B00032202FA03F3DB431A465A
:100B5800149B1A40109B5B00069901FA03F3134398
:100B680014930122109B02FA03F3DB431A46139BEA
:100B78001A400799109B01FA03F313431393109B30
:100B88005B00032202FA03F3DB431A46129B1A4066
:100B9800109B5B00089901FA03F313431293BDF805
:100BA80046305B00ADF84630109B01331093109B24
:100BB8000F2BADDD039B159A1A60039B149ADA601C
:100BC800039B139A5A60039B129A9A60059BB3F58C
:100BD800003F5ED1039B1B6A0F93039B5B6A0E93D6
:100BE8000123ADF8463000230D931FE0BDF80A201D
:100BF800BDF8463013409BB2002B0FD00D9B9B00D5
:100C08000F2202FA03F3DB431A460F9B1A400D9B8F
:100C18009B00099901FA03F313430F93BDF846307B
:100C28005B00ADF846300D9B01330D930D9B072BF0
:100C3800DCDD039B0F9A1A624FF48073ADF84630DF
:100C480000230C931FE0BDF80A20BDF8463013407E
:100C58009BB2002B0FD00C9B9B000F2202FA03F3D0
:100C6800DB431A460E9B1A400C9B9B00099901FA1C
:100C780003F313430E93BDF846305B00ADF84630DE
:100C88000C9B01330C930C9B072BDCDD039B0E9A0A
:100C98005A62009B002B0FD100233AE1E030000894
:100CA800FC300008E4300008E8300008EC300008A8
:100CB800F0300008F4300008059B002B02D04FF0FC
:100CC800FF3326E100230B93944B1B68039A9A4247
:100CD80002D100230B9326E0914B1B68039A9A429A
:100CE80002D101230B931EE08E4B1B68039A9A4294
:100CF80002D102230B9316E08B4B1B68039A9A428E
:100D080002D103230B930EE0884B1B68039A9A4287
:100D180002D104230B9306E0854B1B68039A9A4281
:100D280001D107230B930123ADF8463000230A9322
:100D3800EAE0BDF80A20BDF8463013409BB2002B0C
:100D480000F0DA807B4B1B685A6C7A4B1B6842F4C4
:100D580080425A64784B1B680A9A9210023253F800
:100D680022300A9A920002F00C020F2101FA02F2D4
:100D7800D24303EA02000A9B9B0003F00C030B9A80
:100D880002FA03F16C4B1B680A9A92100143023273
:100D980043F82210694B1B681968BDF84620674B59
:100DA8001B680A431A60654B1B685A68BDF84630D1
:100DB800DB431946614B1B680A405A60019B03F4E8
:100DC8008053002B09D05D4B1B689968BDF84620FD
:100DD8005A4B1B680A439A600AE0584B1B689A688A
:100DE800BDF84630DB431946544B1B680A409A60ED
:100DF800019B03F40053002B09D0504B1B68D968A2
:100E0800BDF846204D4B1B680A43DA600AE04B4B9D
:100E18001B68DA68BDF84630DB431946474B1B6848
:100E28000A40DA6046490A9B009A41F82320434B5E
:100E38001B68BDF846205A610A9B0F2B5AD801A29D
:100E480052F823F08D0E00089D0E0008AD0E000824
:100E5800BD0E0008CD0E0008DD0E0008DD0E0008EE
:100E6800DD0E0008DD0E0008DD0E0008ED0E00089E
:100E7800ED0E0008ED0E0008ED0E0008ED0E00085E
:100E8800ED0E000808210620FFF756FC0620FFF7A4
:100E98003DFC31E008210720FFF74EFC0720FFF753
:100EA80035FC29E008210820FFF746FC0820FFF759
:100EB8002DFC21E008210920FFF73EFC0920FFF75F
:100EC80025FC19E008210A20FFF736FC0A20FFF765
:100ED8001DFC11E008211720FFF72EFC1720FFF753
:100EE80015FC09E008212820FFF726FC2820FFF739
:100EF8000DFC01E000230CE0BDF846305B00ADF8C6
:100F080046300A9B01330A930A9B0F2B7FF711AFD8
:100F18000023184617B05DF804FB00BFE030000856
:100F2800E4300008E8300008EC300008F030000831
:100F3800F4300008FC300008C8300008CC30000845
:100F48000805002084B001900B46ADF80230019BE3
:100F58001B690393BDF80230039A13400393039B64
:100F6800184604B0704782B001900B46ADF80230C5
:100F78001346ADF80030BDF80220BDF8003013402C
:100F88009BB21946BDF80230DA43BDF80030134071
:100F98001B0441EA0302019B9A6100BF02B070473B
:100FA80082B001900B46ADF802301346ADF8003020
:100FB800BDF80230DA43BDF800301A40BDF802101F
:100FC800BDF800300B409BB21B041A43019B9A6189
:100FD80000BF02B0704782B001900B46ADF80230F6
:100FE800BDF80220019B9A6100BF02B0704782B031
:100FF80001900B46ADF80230BDF80230DA43019B90
:101008009A6100BF02B0704700B587B01C4B1868E2
:10101800002300220221FFF7F7FC03460593184B33
:101028001868002300220121FFF7EEFC0346049311
:10103800144B1868002300221021FFF7E5FC034633
:101048000393114B1868002300220121FFF7DCFCF1
:10105800034602930C4B1868002300222021FFF757
:10106800D3FC03460193059A049B1A43039B1A4336
:10107800029B1A43019B1343184607B05DF804FB13
:10108800E8300008E0300008E430000810B50F4BE5
:101098001B885B009CB20E4B1B6801211846FFF7AA
:1010A80051FF03469BB203F001039BB223439AB25C
:1010B800064B1A80054B1B8841F6FF72934201D1FB
:1010C800012300E00023184610BD00BF480500209A
:1010D800E830000810B50F4B1B885B009CB20E4B24
:1010E8001B6802211846FFF72DFF03465B089BB2D9
:1010F80003F001039BB223439AB2064B1A80054BB7
:101108001B8841F6FF72934201D1012300E00023BE
:10111800184610BD4A050020E830000810B50F4BEE
:101128001B885B009CB20E4B1B6810211846FFF70A
:1011380009FF03461B099BB203F001039BB223433B
:101148009AB2064B1A80054B1B8841F6FF729342F0
:1011580001D1012300E00023184610BD4C050020F2
:10116800E030000810B50F4B1B885B009CB20E4B9B
:101178001B6801211846FFF7E5FE03469BB203F002
:1011880001039BB223439AB2064B1A80054B1B8876
:1011980041F6FF72934201D1012300E00023184673
:1011A80010BD00BF4E050020E430000810B50F4BFD
:1011B8001B885B009CB20E4B1B6820211846FFF76A
:1011C800C1FE03465B099BB203F001039BB22343B4
:1011D8009AB2064B1A80054B1B8841F6FF72934260
:1011E80001D1012300E00023184610BD500500205E
:1011F800E430000800B583B01D4B1B680121184678
:10120800FFF7A0FE01901A4B1B6802211846FFF752
:1012180099FE034623F00103019A13430193154BEA
:101228001B6810211846FFF78DFE03461B099B001B
:10123800019A13430193104B1B6801211846FFF7CD
:1012480081FE0346DB00019A134301930A4B1B6896
:1012580020211846FFF776FE03465B091B01019A19
:1012680013430193019B184603B05DF804FB00BFCC
:10127800E8300008E0300008E430000810B582B01B
:1012880001906446CDF800C02268019B1344236096
:101298002368642B01D9642323600E4B1B682268E2
:1012A8000021184600F0DEFC0A4B18682368C3F1D9
:1012B80064031A46012100F0D5FC00F001FF236801
:1012C800C3F1640223681946034801F0C3FA00BF5A
:1012D80002B010BD6C3000086431000800B587B05A
:1012E80008AB019332230093002305930023049352
:1012F80000F07EFDFFF788FE00F0E2FE009B194635
:10130800454801F0A7FA454B186800234FF0021230
:101318001021FFF779FB424B186800234FF00212A7
:101328008021FFF771FB3F4B1B6800220A211846FA
:1013380000F075FB3B4B1868009A0123002100F070
:101348001FFC384B1868009BC3F16402012301217C
:1013580000F016FC334B1B68184600F047FBFFF7FC
:10136800B9FE0390FFF792FE0290039B002B09D071
:10137800009B002B06D06B469C466FF00900FFF7D8
:101388007DFF0AE0029B002B07D0009B632B04D84B
:101398006B469C460A20FFF771FF234B1B68102100
:1013A8001846FFF7CFFD0346002B0FD0059B0133EE
:1013B8000593059B41F28732934209D96B469C46B7
:1013C8000A20FFF75BFF0023059301E00023059344
:1013D800124B1B6801211846FFF7B4FD0346002B8A
:1013E80010D0049B01330493049B41F2873293424B
:1013F8000AD96B469C466FF00900FFF73FFF0023B0
:10140800049301E000230493084B1B680022642125
:10141800184600F06FF9A2E778310008E4300008B8
:10142800E83000086C300008E03000086830000838
:1014380082B003468DF8073007499DF907305B09EC
:101448009DF8072002F01F02012000FA02F241F87D
:10145800232000BF02B0704700E100E082B00346DD
:1014680000918DF807309DF90730002B0CDA0D49F3
:101478009DF8073003F00F03043B009AD2B2120123
:10148800D2B20B441A7609E007499DF90730009A51
:10149800D2B21201D2B20B4483F8002300BF02B0CB
:1014A800704700BF00ED00E000E100E008B5084B20
:1014B8001B68002B02D0064B1B689847054B1B681E
:1014C800044A1268126922F01F021A6100BF08BD9F
:1014D800540500206830000808B5084B1B68002B2D
:1014E80002D0064B1B689847054B1B68044A1268D4
:1014F800126922F01F021A6100BF08BD58050020BA
:101508006830000808B5084B1B68002B02D0064B52
:101518001B689847054B1B68044A1268126922F039
:101528001F021A6100BF08BD5C0500206830000872
:1015380008B5084B1B68002B02D0064B1B68984760
:10154800054B1B68044A1268126922F01F021A61CF
:1015580000BF08BD600500206830000800B589B0EC
:10156800039002910192584B1B68039A9A4213D137
:10157800564A019B13601C238DF81F3004230693E1
:10158800534B9B680593534B1B68524A1268126C65
:1015980042F001021A644DE04F4B1B68039A9A42CD
:1015A80013D14E4A019B13601D238DF81F3004236D
:1015B8000693474B9B680593464B1B68454A126840
:1015C800126C42F002021A6434E0454B1B68039A1D
:1015D8009A4213D1434A019B13601E238DF81F3092
:1015E800042306933A4B9B6805933A4B1B68394A88
:1015F8001268126C42F004021A641BE03A4B1B6832
:10160800039A9A4213D1394A019B136032238DF809
:101618001F30042306932E4B9B6805932D4B1B68A4
:101628002C4A1268126C42F008021A6402E04FF069
:10163800FF3344E0039B1B6923F01F02039B1A61DD
:10164800039B88221A60059B294AA2FB03235B0B94
:101658005A1E039B9A62029A13469B0013445B002E
:101668005A1E039BDA62019B002B17D09DF91F308D
:1016780006991846FFF7F2FE9DF91F301846FFF746
:10168800D7FE039B0122DA60039B01225A61039B68
:101698001B6843F00102039B1A600FE0039B0122C1
:1016A8005A61039B1B6843F00102039B1A6000BF49
:1016B800039B1B6803F00103002BF9D10023184694
:1016C80009B05DF804FB00BF68300008540500202D
:1016D800F4040020FC3000086C3000085805002095
:1016E800703000085C050020743000086005002098
:1016F8005917B7D100B589B0039002910192564BA2
:101708001B68039A9A4213D1544A019B13601C2305
:101718008DF81F3004230693514B9B680593514B5A
:101728001B68504A1268126C42F001021A644DE0BC
:101738004D4B1B68039A9A4213D14C4A019B136084
:101748001D238DF81F3004230693454B9B68059392
:10175800444B1B68434A1268126C42F002021A6436
:1017680034E0434B1B68039A9A4213D1414A019BC8
:1017780013601E238DF81F3004230693384B9B6893
:101788000593384B1B68374A1268126C42F0040202
:101798001A641BE0384B1B68039A9A4213D1374AE4
:1017A800019B136032238DF81F30042306932C4BC2
:1017B8009B6805932B4B1B682A4A1268126C42F0EF
:1017C80008021A6402E04FF0FF3340E0039B1B69F4
:1017D80023F01F02039B1A61039B88221A60059B52
:1017E800274AA2FB03239B0C5A1E039B9A62029B67
:1017F8005A1E039BDA62019B002B17D09DF91F30FC
:1018080006991846FFF72AFE9DF91F301846FFF77C
:101818000FFE039B0122DA60039B01225A61039B9E
:101828001B6843F00102039B1A600FE0039B01222F
:101838005A61039B1B6843F00102039B1A6000BFB7
:10184800039B1B6803F00103002BF9D10023184602
:1018580009B05DF804FB00BF68300008540500209B
:10186800F4040020FC3000086C3000085805002003
:10187800703000085C050020743000086005002006
:1018880083DE1B4300B589B00390029101924C4B53
:101898001B68039A9A4213D14A4A019B13601C237E
:1018A8008DF81F3004230693474B9B680593474BDD
:1018B8001B68464A1268126C42F001021A644DE035
:1018C800434B1B68039A9A4213D1424A019B136007
:1018D8001D238DF81F30042306933B4B9B6805930B
:1018E8003A4B1B68394A1268126C42F002021A64B9
:1018F80034E0394B1B68039A9A4213D1374A019B4B
:1019080013601E238DF81F30042306932E4B9B680B
:1019180005932E4B1B682D4A1268126C42F0040284
:101928001A641BE02E4B1B68039A9A4213D12D4A66
:10193800019B136032238DF81F3004230693224B3A
:101948009B680593214B1B68204A1268126C42F071
:1019580008021A6402E04FF0FF332DE0039B1B6975
:1019680023F01F02039B1A61039B1B6803F47C424C
:10197800039B1A60059B1C4AA2FB03235B0B5A1EA0
:10198800039B9A62029A13469B0013445B005A1EFB
:10199800039BDA62019B002B0DD09DF91F3006993D
:1019A8001846FFF75BFD9DF91F301846FFF740FD0D
:1019B800039B0122DA600023184609B05DF804FB96
:1019C8006830000854050020F4040020FC300008AA
:1019D8006C30000858050020703000085C050020B5
:1019E80074300008600500205917B7D182B0019003
:1019F800019B01225A61019B1B6843F00102019B74
:101A08001A6000BF02B0704782B00190019B1B684A
:101A180023F00102019B1A6000BF02B0704700B5B5
:101A280089B00390029101924A4B1B68039A9A422B
:101A380013D1494A019B13601C238DF81F300423DE
:101A48000693464B9B680593454B1B68444A1268AE
:101A5800126C42F001021A644DE0424B1B68039A73
:101A68009A4213D1404A019B13601D238DF81F3001
:101A780004230693394B9B680593394B1B68384AF6
:101A88001268126C42F002021A6434E0374B1B6889
:101A9800039A9A4213D1364A019B13601E238DF88C
:101AA8001F30042306932D4B9B6805932C4B1B6812
:101AB8002B4A1268126C42F004021A641BE02D4B88
:101AC8001B68039A9A4213D12B4A019B1360322355
:101AD8008DF81F3004230693204B9B680593204BF9
:101AE8001B681F4A1268126C42F008021A6402E06E
:101AF8004FF0FF332AE0039B1B6923F01F02039B6F
:101B08001A61039B80221A60059B1C4AA2FB0323CF
:101B18005B0B5A1E039B9A62029A13469B0013445E
:101B28005B005A1E039BDA62019B002B0DD09DF9C6
:101B38001F3006991846FFF791FC9DF91F3018468B
:101B4800FFF776FC039B0122DA600023184609B0F0
:101B58005DF804FB6830000854050020F4040020F8
:101B6800FC3000086C300008580500207030000870
:101B78005C05002074300008600500205917B7D1B3
:101B880084B00390029101920093029B032B02D828
:101B9800019B642B01D900234DE0039BDB6A0133D1
:101BA800019A02FB03F3254AA2FB03235A0903996E
:101BB800029B0C339B000B445A60029B5A08029B01
:101BC8005908039B063153F821300299C90001F0E6
:101BD8000801FF2000FA01F1C9430B400299C9002E
:101BE80001F00801682000FA01F11943039B06324D
:101BF80043F82210009B002B11D0039B1B6A029A0A
:101C080092000F2101FA02F2D2431340029A920085
:101C1800012101FA02F21A43039B1A620AE0039BAC
:101C28001B6A029A92000F2101FA02F2D2431A406B
:101C3800039B1A620123184604B070471F85EB51B5
:101C480082B001900091019B1B6A009A92000F21BB
:101C580001FA02F2D2431A40019B1A620123184684
:101C680002B0704784B0039002910192029B032B4B
:101C780002D8019B642B01D9002310E0039BDB6A87
:101C88000133019A02FB03F3064AA2FB03235A0914
:101C98000399029B0C339B000B445A60012318469E
:101CA80004B070471F85EB5100B583B003468DF82B
:101CB80007300F4B1B684FF480711846FFF797F9F0
:101CC8000C4B1B6840211846FFF791F90A4B1B681B
:101CD8009DF807201146184601F05CF8054B1B6873
:101CE80040211846FFF777F900BF03B05DF804FB01
:101CF800E0300008E4300008C030000800B583B0C8
:101D080003468DF807300F4B1B684FF48071184657
:101D1800FFF761F90C4B1B6840211846FFF767F97C
:101D28000A4B1B689DF807201146184601F032F847
:101D3800054B1B6840211846FFF74DF900BF03B05B
:101D48005DF804FBE0300008E4300008C03000080B
:101D580000B583B0019000910E4B1B684FF4807161
:101D68001846FFF738F90C4B1B6840211846FFF757
:101D78003EF90A4B1B68009A0199184600F0D2FFF9
:101D8800054B1B6840211846FFF725F900BF03B033
:101D98005DF804FBE0300008E4300008C0300008BB
:101DA80000B583B00023019318E00020FFF77CFF03
:101DB8001020FFF779FF019BDBB2503BDBB21846DE
:101DC800FFF772FF019BDB011A46084B1344802181
:101DD8001846FFF7BDFF019B01330193019B032BBD
:101DE800E3DD00BF03B05DF804FB00BF740500200D
:101DF80008B5374B1B6803223649184600F0FEFE2B
:101E0800354B18680023354A4FF48071FEF7FCFD06
:101E1800334B18680023314A4021FEF7F5FD2E4B5D
:101E2800186800232D4A4021FEF7EEFD2A4B1B6857
:101E380040211846FFF7CFF8274B1B684FF48071F5
:101E48001846FFF7D4F8264B1B6840211846FFF7C1
:101E5800C2F8214B1B6840211846FFF7C8F8214BF0
:101E68001B68002232211846FFF744FC1A4B1B68F6
:101E780040211846FFF7AFF81A4B1B6800220521CE
:101E88001846FFF76BFBAE20FFF70EFFA220FFF707
:101E98000BFFA020FFF708FFC820FFF705FF22204F
:101EA800FFF702FF2F20FFF7FFFE4020FFF7FCFEA1
:101EB800AF20FFF7F9FE8120FFF7F6FE1720FFF7A6
:101EC800F3FEA620FFF7F0FE0023184608BD00BF6A
:101ED800C0300008002D3101E0300008100001007A
:101EE800E43000087430000800B583B00190094A56
:101EF800019B13608120FFF7D7FE019BDBB203F043
:101F08003F03DBB21846FFF7CFFE00BF03B05DF812
:101F180004FB00BF6C050020014B1B681846704786
:101F28006C05002080231846704720231846704708
:101F380000B583B00190019B002B03D1A620FFF7C9
:101F4800B3FE02E0A720FFF7AFFE00BF03B05DF8C5
:101F580004FB82B00190034A019B136000BF02B0EA
:101F6800704700BF70050020014B1B68184670477A
:101F7800B000002000B583B00190064A019B1360B1
:101F8800044B1B68002B01D0FFF70AFF00BF03B00A
:101F98005DF804FBB000002084B003900291019228
:101FA800039B7F2B74DC029B1F2B71DC039B002B94
:101FB8006EDB029B002B6BDB374B1B68002B44D17D
:101FC800019B002B21D1029B002B00DA0733DB1089
:101FD800D901039A0A44D901039B0B442F49CB5CCE
:101FE80059B2029B584203F0070300F0070058BF9C
:101FF8004342012000FA03F35BB2DB435BB20B40C0
:102008005BB2D9B2254B995443E0029B002B00DA0E
:102018000733DB10D901039A0A44D901039B0B4407
:102028001E49CB5C59B2029B584203F0070300F0EB
:10203800070058BF4342012000FA03F35BB20B4389
:102048005BB2D9B2154B995423E0019B012B20D1E7
:10205800029B002B00DA0733DB10D901039A0A44EC
:10206800D901039B0B440D49CB5C59B2029B5842E2
:1020780003F0070300F0070058BF4342012000FAAD
:1020880003F35BB24B405BB2D9B2044B995400E006
:1020980000BF04B0704700BF700500207405002021
:1020A80082B001900091044A019B1360034A009B8F
:1020B800136000BF02B07047640500206805002067
:1020C80008B54FF400720021054800F007FF002111
:1020D8000020FFF7E5FFFFF763FE00BF08BD00BF64
:1020E8007405002000B58DB0039002910192009311
:1020F800002308930023079300230B9300230A93DC
:10210800002306930023059300230993019A039B58
:10211800D31A0893009A029BD31A0793089B002BA3
:1021280002DD01230B9302E04FF0FF330B93079B73
:10213800002B02DD01230A9302E04FF0FF330A93DC
:10214800089B0B9A02FB03F30893079B0A9A02FB6E
:1021580003F30793089B5B000693079B5B000593BB
:10216800089A079B9A4229DB059A089BD31A099378
:102178001AE00E9A02990398FFF70EFF039A0B9B39
:1021880013440393099B002B04DA099A059B134413
:10219800099309E0059A069BD31A099A13440993EF
:1021A800029A0A9B13440293039A019B9A42E0D134
:1021B8000E9A02990398FFF7EFFE28E0069A079B0C
:1021C800D31A09931AE00E9A02990398FFF7E4FECE
:1021D800029A0A9B13440293099B002B04DA099A7A
:1021E800069B1344099309E0069A059BD31A099A9A
:1021F80013440993039A0B9B13440393029A009B7D
:102208009A42E0D10E9A02990398FFF7C5FE054B52
:102218001B68002B01D0FFF7C3FD00BF0DB05DF8B0
:1022280004FB00BFB000002000B587B00590049102
:1022380003920293039A059B9A4208DD089B009338
:10224800049B039A04990598FFF74CFF07E0089B45
:102258000093049B059A04990398FFF743FF029A99
:10226800049B9A4208DD089B0093029B059A0499F7
:102278000598FFF737FF07E0089B0093049B059A32
:1022880002990598FFF72EFF039A059B9A4208DDED
:10229800089B0093029B039A02990598FFF722FF77
:1022A80007E0089B0093029B059A02990398FFF7A1
:1022B80019FF029A049B9A4208DD089B0093029B2F
:1022C800039A04990398FFF70DFF07E0089B009312
:1022D800049B039A02990398FFF704FF044B1B68B9
:1022E800002B01D0FFF75CFD00BF07B05DF804FBD1
:1022F800B000002000B589B00390029101920093CC
:10230800039A019B9A4205DD039B0593019B039366
:10231800059B0193029A009B9A4205DD029B059357
:10232800009B0293059B0093039B079311E0029B7C
:10233800069307E00A9A06990798FFF72DFE069B71
:1023480001330693069A009B9A42F3DD079B0133FB
:102358000793079A019B9A42E9DD054B1B68002BFE
:1023680001D0FFF71DFD00BF09B05DF804FB00BFF9
:10237800B000002000B599B003900291019200933B
:10238800019B002B00F0C580039B1593159B1793A9
:10239800029A019B13441493149B1693009A16995E
:1023A8001798FFF7F9FD039B1193119B1393029A5A
:1023B800019BD31A1093109B1293009A12991398A9
:1023C800FFF7EAFD039A019B13440B930B9B0F93B2
:1023D800029B0A930A9B0E93009A0E990F98FFF797
:1023E800DBFD039A019BD31A0993099B0D93029B6A
:1023F8000893089B0C93009A0C990D98FFF7CCFD55
:10240800019B012B00F08780019B5B00C3F1030354
:10241800059300230793019B06936FE0059B002B10
:1024280006DA079B9B000633059A1344059322E0BE
:10243800079A069BD31A9B000A33059A13440593FF
:10244800069B013B0693169B013B1693149B013B8D
:102458001493129B01331293109B013310930F9B1B
:10246800013B0F930D9B01330D930B9B013B0B938A
:10247800099B01330993079B01330793179B01338A
:102488001793159B013B1593139B01331393119BD2
:10249800013B11930E9B01330E930C9B01330C935C
:1024A8000A9B013B0A93089B013B0893009A1699E3
:1024B8001798FFF771FD009A14991598FFF76CFDAE
:1024C800009A12991398FFF767FD009A10991198CE
:1024D800FFF762FD009A0E990F98FFF75DFD009ACD
:1024E8000C990D98FFF758FD009A0A990B98FFF779
:1024F80053FD009A08990998FFF74EFD079A069B25
:102508009A428BDB064B1B68002B05D0FFF748FC73
:1025180002E000BF00E000BF19B05DF804FB00BF97
:10252800B000002000B587B003900291019200939B
:10253800114B1B680493104B00221A60002305936B
:1025480008E0009B059A02990398FFF713FF059B83
:1025580001330593059A019B9A42F2DD049B064AD2
:102568001360054B1B68002B01D0FFF719FC00BF57
:1025780007B05DF804FB00BFB000002000B589B0CB
:10258800039002910192002306934FE000230793E2
:1025980040E0029A079B13447F2B41D8019A069B7F
:1025A80013441F2B3ED8039BDA68039B9B6806994C
:1025B80001FB03F1079BDB0803F01F030B441344E3
:1025C8001B788DF81730079B03F00703802242FA27
:1025D80003F304939DF81720049B1340002B0BD1A1
:1025E800029A079B13441846019A069B134400223B
:1025F8001946FFF7D1FC0AE0029A079B13441846D4
:10260800019A069B134401221946FFF7C5FC079B54
:1026180001330793039B1A68079B9A42B9D802E0D3
:1026280000BF00E000BF069B01330693039B5A6876
:10263800069B9A42AAD800BF09B05DF804FB10B502
:102648008EB0039002910192019B1E2B40F3938060
:10265800019B7F2B00F38F80484B1B681B780B93E3
:10266800464B1B6801331B780A93444B1B680233A3
:102678001B780993414B1B6803331B780893404B25
:102688001A680A9BD418FFF74DFC03469C4217DDD5
:102698003B4B00221A603B4B1A68099B1344394A8A
:1026A8001360FFF742FC0246344B1B6802331B7869
:1026B800D21A344B1B689A4202DC324B00221A6051
:1026C8002E4B1A68019B203B0B9901FB03F3043343
:1026D80013440793079B1B788DF81B3000230D9339
:1026E8003DE000230C9333E0089B0C9A02FB03F2B5
:1026F8000D9BDB1003F01F0313440133079A1344A7
:102708001B788DF81A300D9B03F00703012202FA9B
:1027180003F305939DF81A20059B1340002B0AD15B
:10272800039A0C9BD018029A0D9B13440022194659
:10273800FFF732FC09E0039A0C9BD018029A0D9B14
:10274800134401221946FFF727FC0C9B01330C9315
:102758000C9A0A9B9A42C7DB0D9B01330D930D9A85
:10276800099B9A42BDDB9DF81B20054B1B6813444F
:10277800034A136000E000BF0EB010BDAC0000209B
:10278800640500206805002000B583B00190019B16
:102798000A2B1CD1174B00221A60174B1B680233F7
:1027A8001B781A46154B1B681344144A1360FFF72D
:1027B800BCFB0246104B1B6802331B78D21A0F4B26
:1027C8001B689A4211DC0D4B00221A600DE0094B80
:1027D80018680A4B1B68019A1946FFF730FF084B27
:1027E8001B68002B01D0FFF7DBFA00BF03B05DF8D0
:1027F80004FB00BF64050020AC0000206805002031
:10280800B000002000B585B00190114B1B68039300
:102818000F4B00221A60019B002B0BD006E0019B96
:102828005A1C01921B781846FFF7AEFF019B1B78D4
:10283800002BF4D1064A039B1360054B1B68002B41
:1028480001D0FFF7ADFA00BF05B05DF804FB00BF8B
:10285800B00000200FB400B5ADF5077D4A4B1B68EA
:102868008493494B00221A6089AB819378E0889B56
:102878001B78252B6CD1889B01338893889B1B7808
:10288800642B26D0642B04DC252B09D0632B0BD0BA
:1028980058E0752B36D0782B44D0732B10D051E0EC
:1028A8002520FFF771FF58E0819B1A1D81921B6854
:1028B8008DF80F329DF80F321846FFF765FF4CE090
:1028C800819B1A1D81921B6882938298FFF79AFF59
:1028D80043E0819B1A1D81921B688593859B002B81
:1028E80005DA2D20FFF750FF859B5B42859301ABEE
:1028F8000A228599184600F049F801AB1846FFF7F7
:1029080081FF2AE0819B1A1D81921B68859301AB88
:102918000A228599184600F039F801AB1846FFF7E6
:1029280071FF1AE0819B1A1D81921B68859301AB88
:1029380010228599184600F029F801AB1846FFF7D0
:1029480061FF0AE0889B1B781846FFF71DFF04E02B
:10295800889B1B781846FFF717FF889B01338893DD
:10296800889B1B78002B82D1074A849B1360064BF7
:102978001B68002B01D0FFF713FA00BF0DF5077D88
:102988005DF804EB04B07047B000002088B00390F5
:1029980002910192039B0693039B5A1C0392029A8D
:1029A8000199B2FBF1F1019800FB01F1521A1D499E
:1029B8008A5C1A70029A019BB2FBF3F30293029BA2
:1029C800002BE9D1039B00221A70039A069BD31AA5
:1029D8000593002307931CE0079B069A13441B7872
:1029E8008DF81330079B069A1344079A05998A1A9B
:1029F800013A06990A4412781A70079B059AD31A65
:102A0800013B069A13449DF813201A70079B013363
:102A18000793059B5A08079B9A42DDD800BF08B068
:102A2800704700BFB400002086B0019000910023D9
:102A38000593019B5A1C01921B788DF80F3038E0E2
:102A48009DF80F302F2B08D99DF80F30392B04D85B
:102A58009DF80F30303B04931EE0009B102B0CD1E7
:102A68009DF80F30402B08D99DF80F30462B04D81D
:102A78009DF80F30373B04930EE0009B102B1CD1C0
:102A88009DF80F30602B18D99DF80F30662B14D89D
:102A98009DF80F30573B0493009B059A02FB03F205
:102AA800049B13440593019B5A1C01921B788DF8D3
:102AB8000F309DF80F30002BC2D1059B184606B089
:102AC800704700BF82B003468DF8073007499DF96B
:102AD80007305B099DF8072002F01F02012000FA69
:102AE80002F241F8232000BF02B0704700E100E085
:102AF80082B0034600918DF807309DF90730002B0E
:102B08000CDA0D499DF8073003F00F03043B009AD7
:102B1800D2B21201D2B20B441A7609E007499DF9E4
:102B28000730009AD2B21201D2B20B4483F80023C4
:102B380000BF02B0704700BF00ED00E000E100E018
:102B480010B4214B9B68214A1360204B1B6803F08B
:102B58000203002B1FD01E4B1B68002B1BD01D4BE4
:102B68001B68012B01D9184BDB6817481A4B1A68E8
:102B7800184B1B68591C174C216013441B78C36001
:102B8800134B1B68013B124A1360144B1B6801333B
:102B9800124A13600FE00C4BDB680B4A0A4B5B6868
:102BA80023F0800353600E4B1B6801330C4A1360FB
:102BB8000C4B00221A700C4B1B6801330A4A136035
:102BC80000BF5DF8044B704700300140B00700209B
:102BD800780700207C070020740700208807002061
:102BE8008C070020800700208407002000BF704762
:102BF80000BF704700BF704700BF704700B58BB07B
:102C08000390029101923E4B1B68039A9A421ED18F
:102C180023238DF82330042307933A4B1B68394A42
:102C28001268526C42F480525A64374BDB68069340
:102C3800364B18680023364AA021FDF7E5FE069AB0
:102C4800029BB2FBF3F30593002309934FE0314B4A
:102C58001B68039A9A4202D14FF0FF334CE02E4B87
:102C68001B68039A9A4202D14FF0FF3344E02B4B82
:102C78001B68039A9A4202D14FF0FF333CE0284B7D
:102C88001B68039A9A4202D14FF0FF3334E04FF0A9
:102C9800FF3331E0099B0133012202FA03F31A469C
:102CA800059B9A4220D3099BDA00019B134343F406
:102CB8004172039B1A60039B04225A609DF92330DA
:102CC80007991846FFF714FF9DF923301846FFF7B8
:102CD800F9FE039B1B6843F04002039B1A60069AA7
:102CE800099B02FA03F307E0099B01330993099B47
:102CF800072BCFD94FF0FF3318460BB05DF804FB14
:102D0800C0300008FC300008F4040020E03000085F
:102D180015000200883000088C300008C430000814
:102D2800DC30000884B0039002910192154B012217
:102D38001A70154A029B1360019B013B134A1360EA
:102D4800134B01221A60039B5B6843F08002039BCC
:102D58005A600D4B1B681B781A46039BDA6000BF4C
:102D6800039B9B6803F00303002BF9D0039B9B682C
:102D780003F08003002BF3D1039BDB6800BF04B092
:102D8800704700BF800700207407002078070020E4
:102D98007C07002082B001900B468DF803309DF827
:102DA8000320019BDA6000BF019B9B6803F00303CB
:102DB800002BF9D0019B9B6803F08003002BF3D113
:102DC800019BDB6800BF02B0704700BF10B5054C1F
:102DD800237833B9044B13B10448AFF300800123BF
:102DE800237010BD90070020000000002830000864
:102DF80008B5034B1BB103490348AFF3008008BD76
:102E08000000000094070020283000080D480E49F3
:102E18000E4A914204D050F8044B41F8044BF8E7AD
:102E28000B480C494FF00002884202D040F8042BAE
:102E3800FAE7FDF7B5FB00F02DF8FEF74FFAFFF7BC
:102E4800FEBF00000439000800000020F404002040
:102E5800F4040020B4070020FEE700000023014628
:102E68001A46184600F08CB838B5084D084BED1ACC
:102E7800AC1007D0043D1D44013C55F8043998476F
:102E8800002CF9D1BDE8384000F0D0B8043900086A
:102E98000039000870B50D4E0D4D761BB61006D0E2
:102EA800002455F8043B01349847A642F9D1094E4D
:102EB800094D761B00F0B4F8B61006D0002455F87A
:102EC800043B01349847A642F9D170BDF838000890
:102ED800F838000800390008F8380008830730B5CA
:102EE80048D0541E002A3FD0CAB2034601E0013C34
:102EF8003AD303F8012B9D07F9D1032C2DD9CDB274
:102F080045EA05250F2C45EA054536D9A4F11002F6
:102F180022F00F0C03F1200EE6444FEA121C03F1D5
:102F2800100242E9045542E9025510327245F8D1BF
:102F38000CF1010214F00C0F03EB021204F00F0C59
:102F480013D0ACF1040323F003030433134442F811
:102F5800045B9342FBD10CF003042CB1C9B21C44AE
:102F680003F8011B9C42FBD130BD64461346002C7C
:102F7800F4D1F9E703461446BFE71A46A446E0E74A
:102F88002DE9F8431D4D0646286898460F46914698
:102F980000F042F81A4B1B68D3F848411CB3286864
:102FA80065681F2D24DC4EB96B1C0235636044F83C
:102FB800257000F033F80020BDE8F88304EB8501A4
:102FC8000123C1F88890D4F88821AB401A43022E17
:102FD800C4F88821C1F80881E6D1D4F88C211A43B5
:102FE800C4F88C21E0E703F5A674C3F84841D6E796
:102FF80000F014F84FF0FF30DEE700BFF0040020C7
:10300800D0380008024B13B10248FFF727BF7047BA
:1030180000000000712E0008704700BF704700BF15
:10302800F8B500BFF8BC08BC9E467047F8B500BFAD
:08303800F8BC08BC9E4670477D
:1030400000E000E000ED00E010E000E000E100E062
:10305000000000E0001000E0000004E0F0ED00E0FF
:1030600090ED00E030EF00E0000000400004004080
:1030700000080040000C004000280040002C0040E8
:10308000003000400034004000380040003C004068
:103090000040004000440040005400400058004000
:1030A000005C004000700040000001400010014042
:1030B000001401400020014000230140002C014089
:1030C000003001400034014000380140003C014024
:1030D00000400140004401400048014000500140D0
:1030E000000002400004024000080240000C0240C0
:1030F00000100240001C0240003002400038024034
:10310000003C024000600240106002402860024023
:103110004060024058600240706002408860024097
:10312000A0600240B86002400064024010640240A7
:1031300028640240406402405864024070640240C7
:1031400088640240A0640240B8640240002004E0A9
:103150000000005000000000000000000102030415
:1031600006070809647574796379636C653A2025EC
:103170006420256400000000647574796379636CD1
:10318000653A2025640000001309090205000000CB
:10319000000000000000000000000000000000022D
:1031A00000009E0000000000000000000000000081
:1031B00000000400000600000006000000000000FF
:1031C00000000000000600005000F8005000F80069
:1031D00050000000000000000600008C009200FE7D
:1031E00001A2004000000000000000071E00920045
:1031F0005E002000F8009400F200000000000700CC
:103200000064009A00AA00CC00600080000000006A
:1032100000020000060000000000000000000000A6
:10322000000000000300007C00830100000000009B
:103230000000000000000003000083017C0000008B
:1032400000000000000000000000040000300078D2
:103250000030000000000000000000000005100029
:1032600010007C00100010000000000000000000B2
:10327000020001C00000000000000000000000008B
:10328000000000040000100010001000000000000A
:1032900000000000000002000080000000000000AC
:1032A000000000000000000000040001E0001C001D
:1032B0000300000000000000000000000500007C8A
:1032C00000820082007C0000000000000000000579
:1032D000000008000400FE000000000000000000E4
:1032E00000000500008400C200A2009C0000000055
:1032F00000000000000500008200920092006C00B7
:10330000000000000000000005000038002C002232
:1033100000FE0000000000000000000500009E000C
:103320009200920062000000000000000000050012
:10333000007C009200920074000000000000000079
:10334000000500000200C20032000E000000000074
:10335000000000000500006C00920092006C00006C
:10336000000000000000000500009C009200920098
:103370007C00000000000000000002000088000047
:10338000000000000000000000000000000200013A
:10339000C800000000000000000000000000000065
:1033A0000510001000280028004400000000000064
:1033B0000000000500002800280028002800000068
:1033C0000000000000000500004400280028001054
:1033D0000000000000000000000500000200B20034
:1033E00012000C000000000000000000090000F8BE
:1033F00000840172014A014A017A0142003C000640
:103400000000F800240022002400F8000000000062
:103410000000060000FE009200920092006C000086
:1034200000000000000600007C0082008200820094
:103430004400000000000000060000FE0082008240
:1034400000C6007C00000000000000050000FE0037
:1034500092009200920000000000000000000500B1
:1034600000FE001200120012000000000000000028
:10347000000600007C00C60082009200F6000000FA
:1034800000000000060000FE00100010001000FE0A
:1034900000000000000000020000FE00000000002C
:1034A0000000000000000000000004000080008018
:1034B000007E000000000000000000000005000089
:1034C000FE0010002C00C200000000000000000000
:1034D000050000FE00800080008000000000000069
:1034E000000000080000FE0006001800E0001800C0
:1034F0000600FE000000060000FE00060018006046
:1035000000FE000000000000000600007C008200B9
:10351000820082007C00000000000000050000FE28
:1035200000120012000C0000000000000000000764
:1035300000007C0082008200C200FC00000100004C
:103540000000050000FE0012001200EC0000000068
:103550000000000000050000CC0092009200660010
:10356000000000000000000006000002000200FE53
:1035700000020002000000000000000600007E00C3
:103580008000800080007E00000000000000070036
:103590000006003C00E000E0001C00060000000007
:1035A000000600001E00E0003E00E0001E000000DB
:1035B000000000000600008200640038006C0082F9
:1035C0000000000000000006000002000C00F000F7
:1035D0000C0002000000000000000600008200E273
:1035E0000092008E00820000000000000003000036
:1035F000FF010101000000000000000000000000C9
:103600000401000E007000800100000000000000B6
:10361000000000020101FF010000000000000000A6
:1036200000000000000004000018000C001800005A
:103630000000000000000000000600010001000181
:103640000001000100010000000000000300000173
:103650000002000000000000000000000000000563
:103660000000E800A800A800F8000000000000002A
:103670000000050000FE00880088007000000000C7
:10368000000000000005000070008800880088002D
:1036900000000000000000000500007000880088A5
:1036A00000FE0000000000000000000500007000A7
:1036B000A800A800B00000000000000000000408FE
:1036C00000FE000A000200000000000000000000F0
:1036D00000050000300048014801F801000000002A
:1036E00000000000050000FE0008000800F80000CF
:1036F00000000000000000020000FA0000000000CE
:1037000000000000000000000000020001FA0100BB
:1037100000000000000000000000000000050000A4
:10372000FE002000500088000000000000000000A3
:10373000020000FE00000000000000000000000089
:10374000000000060000F8000800F8000800F8007B
:10375000000000000000050000F80008000800F864
:10376000000000000000000000050000700088005C
:10377000880070000000000000000000050000F854
:103780000148004800300000000000000000000573
:103790000000300048004800F80100000000000070
:1037A0000000040000F8000800080000000000000D
:1037B00000000000000400009800A800E8000000DD
:1037C00000000000000000000400000800FC008869
:1037D000000000000000000000000005000078006C
:1037E00080008000F80000000000000000000400DD
:1037F000003800C000380000000000000000000099
:10380000000600007800C0003800C000780000000A
:1038100000000000050000880070007000880000B3
:1038200000000000000000050000380040014001D9
:10383000F8000000000000000000050000C800E8DB
:1038400000B8008800000000000000000004100024
:103850003800EF010101000000000000000000003E
:103860000300000000FF0100000000000000000055
:10387000000000040101C701380010000000000032
:10388000000000000000050C0004000C0008000C03
:1038900000000000000000000003FE010201FE0124
:1038A0000000000000000000000000003D400B4050
:1038B0001040264035400340064014400E400D4065
:1038C0002540124028400240184009400A400000AC
:1038D000C80000203D400B401040264035400340CA
:1038E000064014400E400D40254012402840024042
:0838F000184009400A400000E5
:0838F8000D300008F92D000855
:04390000D52D0008B9
:1039040001000000000000000000000000000000B2
:103914000000000000000000000000000201600040
:10392400080202000005040103000000006CDC0230
:10393400001BB70000366E010201500108040700A5
:10394400000400020200000000BD010580DE8002C8
:1039540000BD01050201C0000802020000040003CA
:103964000300000000D8B805006CDC0200D8B805DC
:103974000000000000000000000000000000000043
:1039840000000000000000000000000002005001E0
:1039940008040700000400020200000000BD010545
:1039A40080DE800200BD01050024F4008831000897
:1039B4000100000030313233343536373839414272
:1039C400434445460000000000000000B40300200A
:1039D4001C040020840400200000000000000000FB
:1039E40000000000000000000000000000000000D3
:1039F40000000000000000000000000000000000C3
:103A040000000000000000000000000000000000B2
:103A140000000000000000000000000000000000A2
:103A24000000000000000000000000000000000092
:103A34000000000000000000000000000000000082
:103A44000000000000000000000000000000000072
:103A54000000000000000000000000000000000062
:103A64000000000000000000000000000000000052
:103A740001000000000000000E33CDAB34126DE6EF
:103A8400ECDE05000B000000000000000000000058
:103A94000000000000000000000000000000000022
:103AA4000000000000000000000000000000000012
:103AB4000000000000000000000000000000000002
:103AC40000000000000000000000000000000000F2
:043DF400AC070020F8
:0400000508002E15AC
:00000001FF
