:020000040800F2
:100000000000022045160008990100089D01000823
:10001000A1010008A5010008A901000800000000D6
:10002000000000000000000000000000AD0100081A
:10003000B101000800000000B5010008B901000886
:1000400091160008911600089116000891160008F4
:100050009116000891160008990D0008BD0D0008C2
:10006000E10D0008050E0008290E00089116000891
:1000700091160008911600089116000891160008C4
:100080009116000891160008911600080000000063
:100090000000000000000000000000004D0E0008FD
:1000A0009116000891160008911600089116000894
:1000B0009116000891160008911600089116000884
:1000C0009116000891160008911600089116000874
:1000D0009116000891160008910700080000000022
:1000E0001D0F00089116000891160008000000007E
:1000F0000000000000000000000000009116000851
:1001000000000000911600089116000891160008E2
:1001100000000000000000000000000000000000DF
:100120009116000891160008911600089116000813
:100130009116000800000000000000000000000010
:100140000000000000000000000000009116000800
:1001500091160008911600089116000891160008E3
:100160009116000891160008000000000000000031
:10017000000000000000000000000000000000007F
:1001800000000000911600080000000000000000C0
:08019000911600089116000809
:1001980000BF704700BFFDE700BFFDE700BFFDE7F8
:1001A80000BFFDE700BF704700BF704700BF704742
:1001B80000BF704782B003468DF807309DF80730BE
:1001C800052B00F2928001A252F823F0ED010008FD
:1001D800150200083D020008650200088D020008AB
:1001E800B5020008424B1B6803F00103002B71D1D4
:1001F8003F4B1B683E4A43F00103136000BF3C4B72
:100208001B6803F00203002BF9D063E0384B1B682E
:1002180003F48033002B5FD1354B1B68344A43F419
:100228005023136000BF324B1B6803F40033002BCC
:10023800F9D051E02E4B1B6803F08073002B4DD191
:100248002B4B1B682A4A43F08073136000BF284B6E
:100258001B6803F00073002BF9D03FE0244B1B68A8
:1002680003F08063002B3BD1214B1B68204A43F0ED
:100278008063136000BF1E4B1B6803F00063002BF4
:10028800F9D02DE01A4B5B6F03F00103002B29D145
:10029800174B5B6F164A43F00103536700BF144BBB
:1002A8005B6F03F00203002BF9D01BE0104B1B6FB0
:1002B80003F00103002B17D10D4B1B6F0C4A43F0C1
:1002C8000103136700BF0A4B1B6F03F00203002BE7
:1002D800F9D009E000BF08E000BF06E000BF04E075
:1002E80000BF02E000BF00E000BF00BF02B07047DF
:1002F8000038024082B003468DF807309DF8073079
:10030800052B39D801A252F823F000BF2D030008AD
:100318003B03000849030008570300086503000869
:1003280073030008164B1B68154A23F0010313607A
:1003380022E0134B1B68124A23F4502313601BE07E
:100348000F4B1B680E4A23F08073136014E00C4BAC
:100358001B680B4A23F0806313600DE0084B5B6F4A
:10036800074A23F00103536706E0054B1B6F044A55
:1003780023F00103136700BF00BF02B0704700BF3E
:100388000038024082B003468DF807300C4B9B685A
:1003980023F003029DF8073003F0030308491343D1
:1003A8008B6000BF064B9B689B0803F003029DF817
:1003B80007309A42F6D100BF00BF02B0704700BFB5
:1003C8000038024000B585B001900091019B072BD1
:1003D80008D8019A1346DB009B1A9B006A4A13440B
:1003E800039301E0694B0393039B1B78012B0CD10A
:1003F8000120FFF7DFFE0120FFF7C4FF0220FFF70F
:1004080079FF0020FFF776FF95E0039B1B78022B0E
:1004180040F085805E4B1B6C5D4A43F0805313644B
:10042800039B5B78012B09D10120FFF7C3FE584BD2
:100438005B68574A43F48003536008E00020FFF7E5
:10044800B9FE534B5B68524A23F480035360514B07
:100458001B6823F04052039BDB7A1B074D4913436B
:100468000B604B4B9B6823F47C4323F0F003039A07
:10047800127A1201D2B21A43039B5B7A9B0203F4ED
:10048800E0531A43039B9B7A5B039BB24049134397
:100498008B603F4B5A68404B1340039A127902F025
:1004A8003F021A43039B5B88990147F6C0730B40D0
:1004B8001A43039B5B795B08DBB2013B1B0403F423
:1004C80040331A43039B9B791B0603F07C53304946
:1004D80013434B600220FFF76DFE304B1B6823F07F
:1004E8000F02039BDB6803F00F0313432B4A43F40B
:1004F800E06313600220FFF745FF039B5B78012B45
:1005080009D1234B1B6803F00103002B03D0002003
:10051800FFF7F0FE0FE00120FFF7ECFE0BE00020F4
:10052800FFF748FE0020FFF72DFF0220FFF7E2FE4D
:100538000120FFF7DFFE039B1A69009B1A60039BEB
:100548005A69009B5A60039B5B7A002B02D1039B7C
:100558005B6902E0039B5B695B00009A9360039B05
:100568009A69009BDA60039B9B7A002B02D1039B5C
:100578009B6902E0039B9B695B00009A136100BFC3
:1005880005B05DF804FB00BF0000002070000020EB
:1005980000380240007000400080FCF0003C02403F
:1005A80008B5184BD3F88830164A43F47003C2F8DC
:1005B8008830154B1B68144A43F001031360124B33
:1005C80000229A60104B1B680F4A23F0847323F4AF
:1005D800803313600C4B0D4A5A600B4B1B680A4A58
:1005E80023F480231360084B0022DA6008490220B4
:1005F800FFF7E8FE034B4FF000629A6000F00AF83C
:1006080000BF08BD00ED00E00038024010300024B3
:10061800C400002086B0002304930023059302231E
:1006280003930023029302230193334B9B6803F047
:100638000C030493049B082B11D0049B082B44D86B
:10064800049B002B03D0049B042B04D03DE02B4BD0
:100658002B4A1A603DE0294B2A4A1A6039E0264B9A
:100668005B689B0D03F001030293234B5B6803F067
:100678003F030193029B002B0CD0224A019BB2FB43
:10068800F3F31D4A52689209C2F3080202FB03F30E
:1006980005930BE01A4A019BB2FBF3F3164A526822
:1006A8009209C2F3080202FB03F30593124B5B683D
:1006B8001B0C03F0030301335B000393059A039BB0
:1006C800B2FBF3F30D4A136003E00C4B0C4A1A60BB
:1006D80000BF094B9B681B0903F00F030A4AD35C50
:1006E8000493064B1A68049B22FA03F3034A136027
:1006F80000BF06B0704700BF00380240A8000020C5
:100708000024F40000127A00E018000882B00346C2
:100718008DF807309DF8073003F01F0205499DF951
:1007280007305B09012000FA02F241F8232000BFDC
:1007380002B0704700E100E082B0034600918DF8F6
:1007480007309DF90730002B0CDA009BDAB20C4910
:100758009DF8073003F00F03043B1201D2B20B449B
:100768001A7609E0009BDAB206499DF907301201B2
:10077800D2B20B4483F8002300BF02B0704700BF19
:1007880000ED00E000E100E000B583B0214B1B68FC
:100798001B680193019B03F02003002B1AD0019BD7
:1007A80003F00203002B11D1019B03F00403002B7B
:1007B8000CD1194B1B68002B27D0174B1B68154A07
:1007C80012685268D2B2104698471EE0114B1B6857
:1007D8005B681AE0019B03F01003002B03D00D4B5C
:1007E8001B685B6811E0019B03F00803002B03D032
:1007F800084B1B685B6808E0019B03F00103002BB2
:1008080003D0044B1B685B68FFE700BF03B05DF8CB
:1008180004FB00BF20180008D800002000B589B0EC
:100828000390029101920093344B1B68039A9A42F9
:1008380002D14FF0FF335DE0314B1B68039A9A42B7
:1008480039D1304B1B6C2F4A43F4003313642E4BC1
:10085800186800232D4A0C2100F0DAFB2C4B5B684A
:100868000793079A029BB2FBF3F30693069A039B3E
:100878009A6026238DF81730264A009B1360019B47
:100888001B0303F48052019B03F4E063134343F416
:10089800005343F00C03039AD360019B1B091B030D
:1008A80003F44052039B1A61039B00225A61009B88
:1008B800002B1ED00AE0184B1B68039A9A4202D1FB
:1008C8004FF0FF3316E04FF0FF3313E00623049395
:1008D8009DF9173004991846FFF72EFF9DF9173038
:1008E8001846FFF713FF039BDB6843F02002039BC6
:1008F800DA600123184609B05DF804FB38180008CF
:1009080020180008003802406C1800080700020090
:10091800C4000020D80000203C18000884B00190D2
:1009280000BF019B1B6803F02003002BF9D0019B3B
:100938005B688DF80F309DF80F30184604B070478B
:1009480082B001900B468DF8033000BF019B1B68F5
:1009580003F08003002BF9D09DF80320019B5A6017
:1009680000BF019B1B6803F04003012BF9D000BFB7
:1009780000BF02B0704700B585B001900091002318
:1009880003930AE0039B009A13441B7819460198C5
:10099800FFF7D6FF039B01330393039B009A13448D
:1009A8001B78002BEED100BF00BF05B05DF804FB3B
:1009B8000EB400B58EB0019010AB0B9396E00F9B70
:1009C8001B78252B40F089800F9B01330F930F9BD9
:1009D8001B78252B38D0252B78DB782B76DC632BFE
:1009E80074DB633B152B71D801A252F823F000BFCA
:1009F8005B0A0008710A0008D50A0008D50A000831
:100A0800D50A0008D50A0008D50A0008D50A000842
:100A1800D50A0008D50A0008D50A0008D50A000832
:100A2800D50A0008D50A0008D50A0008D50A000822
:100A38005D0A0008D50A0008970A0008D50A0008C8
:100A4800D50A0008AF0A000825210198FFF778FFAA
:100A580049E0FFDE0B9B1A1D0B921B680C930C9947
:100A68000198FFF788FF3EE00B9B1A1D0B921B684D
:100A78008DF837309DF8371002AB0A22184600F07F
:100A880041F802AB19460198FFF775FF2BE00B9B65
:100A98001A1D0B921B688DF8373002AB1946019866
:100AA800FFF769FF1FE00B9B1A1D0B921B688DF85F
:100AB80037309DF8371002AB1022184600F022F8A4
:100AC80002AB19460198FFF756FF0CE00F9B1B7805
:100AD80019460198FFF734FF05E00F9B1B7819466C
:100AE8000198FFF72DFF0F9B01330F930F9B1B7886
:100AF800002B7FF464AF00BF00BF0EB05DF804EBBD
:100B080003B0704788B0039002910192039B06934B
:100B1800029B019AB3FBF2F2019901FB02F29A1AC5
:100B2800039B591C03911D498A5C1A70029A019B08
:100B3800B2FBF3F30293029B002BE9D1039B002243
:100B48001A70039A069BD31A0593002307931CE097
:100B5800079B069A13441B788DF81330079B059A58
:100B6800D31A013B069A1A44079B06990B4412783C
:100B78001A70079B059AD31A013B069A13449DF8ED
:100B880013201A70079B01330793059B5A08079B8C
:100B98009A42DDD800BF00BF08B07047AC00002003
:100BA80086B00190009100230593019B5A1C019285
:100BB8001B788DF80F3038E09DF80F302F2B08D9AF
:100BC8009DF80F30392B04D89DF80F30303B049333
:100BD8001EE0009B102B0CD19DF80F30402B08D93C
:100BE8009DF80F30462B04D89DF80F30373B0493FF
:100BF8000EE0009B102B1CD19DF80F30602B18D9EC
:100C08009DF80F30662B14D89DF80F30573B04938E
:100C1800009B059A02FB03F3049A13440593019B76
:100C28005A1C01921B788DF80F309DF80F30002B5D
:100C3800C2D1059B184606B0704700BF00B58DB0FD
:100C480003468DF807309DF8071003AB10221846AD
:100C5800FFF758FF084B1B6808491846FFF78BFE3B
:100C6800054B1B6803AA11461846FFF784FE00BF10
:100C78000DB05DF804FB00BF20180008F01800084C
:100C880000B585B00523039308230293194B186810
:100C9800194B00224FF4E131FFF7C0FD154B1B68DB
:100CA80016491846FFF767FE124B1B68144A154988
:100CB8001846FFF77DFE0F4B1868039A029B1344F2
:100CC8000093029B039A1049FFF772FE094B1868BC
:100CD8000F2366220D49FFF76BFE064B1868054B7C
:100CE8001B680093052314220949FFF761FE00BF22
:100CF800FDE700BF20180008450C0008F41800089C
:100D0800FC180008101900081819000838190008FC
:100D18004019000882B003468DF8073007499DF94D
:100D280007305B099DF8072002F01F02012000FA36
:100D380002F241F8232000BF02B0704700E100E052
:100D480082B0034600918DF807309DF90730002BDB
:100D58000CDA0D499DF8073003F00F03043B009AA5
:100D6800D2B21201D2B20B441A7609E007499DF9B2
:100D78000730009AD2B21201D2B20B4483F8002392
:100D880000BF02B0704700BF00ED00E000E100E0E6
:100D980008B5064B1B68002B02D0044B1B6898470C
:100DA800034B1B6801225A6100BF08BDDC0000200C
:100DB8005818000808B5064B5B68002B02D0044B96
:100DC8005B689847034B1B6802225A6100BF08BD45
:100DD800DC0000205818000808B5064B9B68002B5B
:100DE80002D0044B9B689847034B1B6804225A6146
:100DF80000BF08BDDC0000205818000808B5064BE5
:100E0800DB68002B02D0044BDB689847034B1B6858
:100E180008225A6100BF08BDDC00002058180008ED
:100E280008B5064B1B69002B02D0044B1B69984779
:100E3800034B1B6810225A6100BF08BDDC0000206C
:100E48005818000808B5314B1B685B6903F020038C
:100E5800002B0BD02E4B5B69002B02D02C4B5B690F
:100E680098472A4B1B6820225A614CE0274B1B6885
:100E78005B6903F04003002B0BD0254B9B69002BCB
:100E880002D0234B9B699847204B1B6840225A612C
:100E980039E01E4B1B685B6903F08003002B0BD005
:100EA8001B4BDB69002B02D0194BDB699847174BAA
:100EB8001B6880225A6126E0144B1B685B6903F4A7
:100EC8008073002B0CD0124B1B6A002B02D0104BE6
:100ED8001B6A98470D4B1B684FF480725A6112E0E9
:100EE8000A4B1B685B6903F40073002B0BD0084B9B
:100EF8005B6A002B02D0064B5B6A9847034B1B6862
:100F08004FF400725A6100BF08BD00BF58180008AE
:100F1800DC00002008B53C4B1B685B6903F4806368
:100F2800002B0CD0394B9B6A002B02D0374B9B6AA5
:100F38009847354B1B684FF480625A6162E0324B28
:100F48001B685B6903F40063002B0CD02F4BDB6A32
:100F5800002B02D02D4BDB6A98472B4B1B684FF4B4
:100F680000625A614EE0284B1B685B6903F48053AA
:100F7800002B0CD0254B1B6B002B02D0234B1B6B7B
:100F88009847214B1B684FF480525A613AE01E4B38
:100F98001B685B6903F40053002B0CD01B4B5B6B85
:100FA800002B02D0194B5B6B9847174B1B684FF40B
:100FB80000525A6126E0144B1B685B6903F48043B6
:100FC800002B0CD0114B9B6B002B02D00F4B9B6B53
:100FD80098470D4B1B684FF480425A6112E00A4B48
:100FE8001B685B6903F40043002B0BD0074BDB6BDA
:100FF800002B02D0054BDB6B9847034B1B684FF463
:1010080000425A6100BF08BD58180008DC000020E3
:1010180010B596B00390019200930B46ADF80A30D4
:10102800A34B1B68039A9A4208D1A24B1B68A14A9A
:101038001268126B42F001021A6344E09E4B1B686F
:10104800039A9A4208D19B4B1B689A4A1268126B02
:1010580042F002021A6336E0984B1B68039A9A42E0
:1010680008D1944B1B68934A1268126B42F0040231
:101078001A6328E0924B1B68039A9A4208D18D4B59
:101088001B688C4A1268126B42F008021A631AE055
:101098008C4B1B68039A9A4208D1864B1B68854A79
:1010A8001268126B42F010021A630CE0864B1B6840
:1010B800039A9A4207D17F4B1B687E4A1268126BCB
:1010C80042F080021A63019B03F00F030993019B0E
:1010D8001B0903F003030893019B9B0903F0010319
:1010E8000793019B1B0A03F003030693019B03F478
:1010F80040330593039B1B681593039BDB6814938C
:10110800039B5B681393039B9B6812930123ADF8C1
:101118004630002310934EE0BDF80A20BDF8463053
:1011280013409BB2002B3ED0109B5B00032202FAB7
:1011380003F3DB431A46159B1A40059B190C109BB9
:101148005B0001FA03F313431593109B5B00032222
:1011580002FA03F3DB431A46149B1A40109B5B0008
:10116800069901FA03F3134314930122109B02FA20
:1011780003F3DB431A46139B1A400799109B01FAA5
:1011880003F313431393109B5B00032202FA03F348
:10119800DB431A46129B1A40109B5B00089901FA20
:1011A80003F313431293BDF846305B00ADF84630A5
:1011B800109B01331093109B0F2BADDD039B159AE9
:1011C8001A60039B149ADA60039B139A5A60039B74
:1011D800129A9A60059BB3F5003F5ED1039B1B6A88
:1011E8000F93039B5B6A0E930123ADF846300023EF
:1011F8000D931FE0BDF80A20BDF8463013409BB29E
:10120800002B0FD00D9B9B000F2202FA03F3DB4348
:101218001A460F9B1A400D9B9B00099901FA03F38C
:1012280013430F93BDF846305B00ADF846300D9B75
:1012380001330D930D9B072BDCDD039B0F9A1A627C
:101248004FF48073ADF8463000230C931FE0BDF8CF
:101258000A20BDF8463013409BB2002B0FD00C9BE0
:101268009B000F2202FA03F3DB431A460E9B1A4037
:101278000C9B9B00099901FA03F313430E93BDF8E5
:1012880046305B00ADF846300C9B01330C930C9B49
:10129800072BDCDD039B0E9A5A62009B002B01D1C1
:1012A800002336E1059B002B10D04FF0FF3330E1CF
:1012B8006C180008881800087018000874180008CE
:1012C800781800087C1800088018000800230B9381
:1012D800914B1B68039A9A4202D100230B9326E094
:1012E8008E4B1B68039A9A4202D101230B931EE08E
:1012F8008B4B1B68039A9A4202D102230B9316E088
:10130800884B1B68039A9A4202D103230B930EE081
:10131800854B1B68039A9A4202D104230B9306E07B
:10132800824B1B68039A9A4201D107230B9301232E
:10133800ADF8463000230A93E6E0BDF80A20BDF870
:10134800463013409BB2002B00F0D680784B1B68C8
:10135800774A1268526C42F480425A64754B1B6893
:101368000A9A9210734909680A988010023051F855
:1013780020100A98800000F00C000F2404FA00F0F6
:10138800C04308400A99890001F00C010B9C04FA3B
:1013980001F10143023243F82210674B1B68664A89
:1013A80012681168BDF846200A431A60624B1B6830
:1013B800614A12685268BDF84610C9430A405A602B
:1013C800019B03F48053002B09D05B4B1B685A4ADE
:1013D80012689168BDF846200A439A6009E0564BA6
:1013E8001B68554A12689268BDF84610C9430A40FE
:1013F8009A60019B03F40053002B09D04E4B1B68E5
:101408004D4A1268D168BDF846200A43DA6009E0FF
:10141800494B1B68484A1268D268BDF84610C94350
:101428000A40DA6045490A9B009A41F82320424B5A
:101438001B68BDF846205A610A9B0F2B5AD801A297
:1014480052F823F08D1400089D140008AD1400080C
:10145800BD140008CD140008DD140008DD140008D0
:10146800DD140008DD140008DD140008ED14000880
:10147800ED140008ED140008ED140008ED14000840
:10148800ED14000808210620FFF75AFC0620FFF794
:1014980041FC31E008210720FFF752FC0720FFF745
:1014A80039FC29E008210820FFF74AFC0820FFF74B
:1014B80031FC21E008210920FFF742FC0920FFF751
:1014C80029FC19E008210A20FFF73AFC0A20FFF757
:1014D80021FC11E008211720FFF732FC1720FFF745
:1014E80019FC09E008212820FFF72AFC2820FFF72B
:1014F80011FC01E000230CE0BDF846305B00ADF8BC
:1015080046300A9B01330A930A9B0F2B7FF715AFCE
:101518000023184616B010BD6C1800087018000893
:1015280074180008781800087C180008801800084B
:10153800881800085418000858180008DC00002013
:1015480082B001900B46ADF80230019B1A69BDF8D4
:1015580002301340184602B0704782B001900B4623
:10156800ADF802301346ADF80030BDF80220BDF8E2
:10157800003013409BB21946BDF80230DA43BDF87B
:10158800003013401B0441EA0302019B9A6100BF2B
:1015980002B0704782B001900B46ADF80230134696
:1015A800ADF80030BDF80230DA43BDF800301A401B
:1015B800BDF80210BDF800300B409BB21B041A4363
:1015C800019B9A6100BF02B0704782B001900B4640
:1015D800ADF80230BDF80220019B9A6100BF02B04D
:1015E800704782B001900B46ADF80230BDF802306A
:1015F8001A04019B9A6100BF02B0704710B5054CF0
:10160800237833B9044B13B10448AFF300800123A6
:10161800237010BD1C01002000000000B417000852
:1016280008B5034B1BB103490348AFF3008008BD5D
:101638000000000020010020B41700080D480E49E2
:101648000E4A914204D050F8044B41F8044BF8E795
:101658000B480C494FF00002884202D040F8042B96
:10166800FAE7FEF79DFF00F017F8FFF709FBFFF711
:10167800FEBF0000B819000800000020C4000020C8
:10168800C4000020D0020020FEE70000002301462D
:101698001A46184600F040B870B50F4B0F4DAB42D4
:1016A800A3EB050607D0B610002455F8043B013417
:1016B8009847A642F9D800F079F8094D094B5E1B06
:1016C800AB424FEAA60606D0002455F8043B013485
:1016D8009847A642F9D870BDAC190008AC190008A3
:1016E800AC190008B419000838B5074D074C2C1B75
:1016F800A41005D0013C55F8043D9847002CF9D1B9
:10170800BDE8384000F058B8B8190008B419000806
:10171800704700BF704700BF2DE9F8431B4D0646D0
:10172800286898460F469146FFF7F2FF184B1C6849
:101738001CB3286865681F2D22DC4EB96B1C023566
:10174800636044F82570FFF7E5FF0020BDE8F883E3
:1017580004EB85010123C1F88890D4F88821AB40B7
:101768001A43022EC4F88821C1F80881E6D1D4F8BA
:101778008C211A43C4F88C21E0E7064C1C60D8E79A
:10178800FFF7C8FF4FF0FF30E0E700BFC0000020C0
:10179800CC0200203C010020024B13B10248FFF7A5
:1017A80075BF704700000000F1160008F8B500BFCB
:1017B800F8BC08BC9E467047F8B500BFF8BC08BC2A
:0417C8009E46704782
:1017CC0000E000E000ED00E010E000E000E100E0EF
:1017DC00000000E0001000E0000004E0F0ED00E08C
:1017EC0090ED00E030EF00E000000040000400400D
:1017FC0000080040000C004000280040002C004075
:10180C00003000400034004000380040003C0040F4
:10181C00004000400044004000540040005800408C
:10182C00005C0040007000400000014000100140CE
:10183C00001401400020014000230140002C014015
:10184C00003001400034014000380140003C0140B0
:10185C00004001400044014000480140005001405C
:10186C00000002400004024000080240000C02404C
:10187C0000100240001C02400030024000380240C0
:10188C00003C0240006002401060024028600240B0
:10189C004060024058600240706002408860024024
:1018AC00A0600240B8600240006402401064024034
:1018BC002864024040640240586402407064024054
:1018CC0088640240A0640240B8640240002004E036
:1018DC0000000050000000000000000001020304A2
:1018EC0006070809203078001B5B324A1B5B480056
:1018FC00556E652062656C6C6520737472696E67D9
:10190C00000000000D202573200A00006C6120737C
:10191C006F6D6D65206465202564206574202564D9
:10192C00206573742025640A000000000D256320D7
:10193C0025780A001B5B25753B2575486C65207066
:10194C006F696E74657572205F5553415254322025
:10195C003D20307825780A003D400B401040264051
:10196C0035400340064014400E400D4025401240C7
:10197C0028400240184009400A4000003D400B40FE
:10198C001040264035400340064014400E400D40A8
:10199C002540124028400240184009400A400000EF
:0819AC00A1170008291600082C
:0419B400051600080C
:1019B800010000000000000000000000000000001E
:1019C80000000000000000000000000002016000AC
:1019D800080202000005040103000000006CDC029C
:1019E800001BB70000366E01020150010804070011
:1019F800000400020200000000BD010580DE800234
:101A080000BD01050201C000080202000004000335
:101A18000300000000D8B805006CDC0200D8B80547
:101A280000000000000000000000000000000000AE
:101A3800000000000000000000000000020050014B
:101A480008040700000400020200000000BD0105B0
:101A580080DE800200BD01050024F40030313233FD
:101A68003435363738394142434445460000000092
:041A78003801002011
:040000050800164594
:00000001FF
