:020000040800F2
:100000000000022031090008990100089D01000844
:10001000A1010008A5010008A901000800000000D6
:10002000000000000000000000000000AD0100081A
:10003000B101000800000000B5010008B901000886
:100040007D0900087D0900087D0900087D09000878
:100050007D0900087D0900087D0900087D09000868
:100060007D0900087D0900087D0900087D09000858
:100070007D0900087D0900087D0900087D09000848
:100080007D0900087D0900087D09000800000000C6
:100090000000000000000000000000004D07000804
:1000A0007D0900087D0900087D0900087D09000818
:1000B0007D0900087D0900087D0900087D09000808
:1000C0007D0900087D0900087D0900087D090008F8
:1000D0007D0900087D0900087D0900080000000076
:1000E0007D0900087D0900087D0900080000000066
:1000F0000000000000000000000000007D09000872
:10010000000000007D0900087D0900087D09000845
:1001100000000000000000000000000000000000DF
:100120007D0900087D0900087D0900087D09000897
:100130007D09000800000000000000000000000031
:100140000000000000000000000000007D09000821
:100150007D0900087D0900087D0900087D09000867
:100160007D0900087D090008000000000000000073
:10017000000000000000000000000000000000007F
:10018000000000007D0900080000000000000000E1
:080190007D0900087D0900084B
:1001980000BF704700BFFDE700BFFDE700BFFDE7F8
:1001A80000BFFDE700BF704700BF704700BF704742
:1001B80000BF704782B003468DF807309DF80730BE
:1001C800052B00F2928001A252F823F0ED010008FD
:1001D800150200083D020008650200088D020008AB
:1001E800B5020008424B1B6803F00103002B71D1D4
:1001F8003F4B1B683E4A43F00103136000BF3C4B72
:100208001B6803F00203002BF9D063E0384B1B682E
:1002180003F48033002B5FD1354B1B68344A43F419
:100228005023136000BF324B1B6803F40033002BCC
:10023800F9D051E02E4B1B6803F08073002B4DD191
:100248002B4B1B682A4A43F08073136000BF284B6E
:100258001B6803F00073002BF9D03FE0244B1B68A8
:1002680003F08063002B3BD1214B1B68204A43F0ED
:100278008063136000BF1E4B1B6803F00063002BF4
:10028800F9D02DE01A4B5B6F03F00103002B29D145
:10029800174B5B6F164A43F00103536700BF144BBB
:1002A8005B6F03F00203002BF9D01BE0104B1B6FB0
:1002B80003F00103002B17D10D4B1B6F0C4A43F0C1
:1002C8000103136700BF0A4B1B6F03F00203002BE7
:1002D800F9D009E000BF08E000BF06E000BF04E075
:1002E80000BF02E000BF00E000BF00BF02B07047DF
:1002F8000038024082B003468DF807309DF8073079
:10030800052B39D801A252F823F000BF2D030008AD
:100318003B03000849030008570300086503000869
:1003280073030008164B1B68154A23F0010313607A
:1003380022E0134B1B68124A23F4502313601BE07E
:100348000F4B1B680E4A23F08073136014E00C4BAC
:100358001B680B4A23F0806313600DE0084B5B6F4A
:10036800074A23F00103536706E0054B1B6F044A55
:1003780023F00103136700BF00BF02B0704700BF3E
:100388000038024082B003468DF807300C4B9B685A
:1003980023F003029DF8073003F0030308491343D1
:1003A8008B6000BF064B9B689B0803F003029DF817
:1003B80007309A42F6D100BF00BF02B0704700BFB5
:1003C8000038024000B585B001900091019B072BD1
:1003D80008D8019A1346DB009B1A9B006A4A13440B
:1003E800039301E0694B0393039B1B78012B0CD10A
:1003F8000120FFF7DFFE0120FFF7C4FF0220FFF70F
:1004080079FF0020FFF776FF95E0039B1B78022B0E
:1004180040F085805E4B1B6C5D4A43F0805313644B
:10042800039B5B78012B09D10120FFF7C3FE584BD2
:100438005B68574A43F48003536008E00020FFF7E5
:10044800B9FE534B5B68524A23F480035360514B07
:100458001B6823F04052039BDB7A1B074D4913436B
:100468000B604B4B9B6823F47C4323F0F003039A07
:10047800127A1201D2B21A43039B5B7A9B0203F4ED
:10048800E0531A43039B9B7A5B039BB24049134397
:100498008B603F4B5A68404B1340039A127902F025
:1004A8003F021A43039B5B88990147F6C0730B40D0
:1004B8001A43039B5B795B08DBB2013B1B0403F423
:1004C80040331A43039B9B791B0603F07C53304946
:1004D80013434B600220FFF76DFE304B1B6823F07F
:1004E8000F02039BDB6803F00F0313432B4A43F40B
:1004F800E06313600220FFF745FF039B5B78012B45
:1005080009D1234B1B6803F00103002B03D0002003
:10051800FFF7F0FE0FE00120FFF7ECFE0BE00020F4
:10052800FFF748FE0020FFF72DFF0220FFF7E2FE4D
:100538000120FFF7DFFE039B1A69009B1A60039BEB
:100548005A69009B5A60039B5B7A002B02D1039B7C
:100558005B6902E0039B5B695B00009A9360039B05
:100568009A69009BDA60039B9B7A002B02D1039B5C
:100578009B6902E0039B9B695B00009A136100BFC3
:1005880005B05DF804FB00BF0000002070000020EB
:1005980000380240007000400080FCF0003C02403F
:1005A80008B5184BD3F88830164A43F47003C2F8DC
:1005B8008830154B1B68144A43F001031360124B33
:1005C80000229A60104B1B680F4A23F0847323F4AF
:1005D800803313600C4B0D4A5A600B4B1B680A4A58
:1005E80023F480231360084B0022DA6008490220B4
:1005F800FFF7E8FE034B4FF000629A6000F00AF83C
:1006080000BF08BD00ED00E00038024010300024B3
:10061800B000002086B00023049300230593022332
:1006280003930023029302230193334B9B6803F047
:100638000C030493049B082B11D0049B082B44D86B
:10064800049B002B03D0049B042B04D03DE02B4BD0
:100658002B4A1A603DE0294B2A4A1A6039E0264B9A
:100668005B689B0D03F001030293234B5B6803F067
:100678003F030193029B002B0CD0224A019BB2FB43
:10068800F3F31D4A52689209C2F3080202FB03F30E
:1006980005930BE01A4A019BB2FBF3F3164A526822
:1006A8009209C2F3080202FB03F30593124B5B683D
:1006B8001B0C03F0030301335B000393059A039BB0
:1006C800B2FBF3F30D4A136003E00C4B0C4A1A60BB
:1006D80000BF094B9B681B0903F00F030A4AD35C50
:1006E8000493064B1A68049B22FA03F3034A136027
:1006F80000BF06B0704700BF00380240A8000020C5
:100708000024F40000127A00CC0B000882B001909B
:10071800019B002B08D00A4B1B689A69084B1B6881
:1007280042F000729A6107E0054B1B689A69044B16
:100738001B6842F400729A6100BF02B0704700BFA4
:10074800580B000808B50C4B1B68002B0CBF012385
:100758000023DBB21A46084B1A60074B1B68184681
:10076800FFF7D4FF054B1B685A69044B1B6842F01E
:1007780020025A6100BF08BDC4000020440B0008D5
:1007880008B5514B1B681A6B4F4B1B6842F00102AE
:100798001A634D4B1B681A6B4B4B1B6842F00202E5
:1007A8001A634A4B1B681A68484B1B6822F440625C
:1007B8001A60464B1B68DA68444B1B6822F4406297
:1007C800DA60434B1B681A68414B1B6822F400220D
:1007D8001A603F4B1B681A683D4B1B6842F4802225
:1007E8001A603B4B1B685A68394B1B6822F400722D
:1007F8005A60374B1B689A68354B1B6822F40022F5
:100808009A60334B1B689A68314B1B6842F480220C
:100818009A602F4B1B68DA682D4B1B6822F4402224
:10082800DA602C4B1B681846FFF770FF2A4B5B6C8D
:10083800294A43F480435364284B1B68DA68274BE2
:100848001B6822F01002DA60244B1B68DA68234B1D
:100858001B6842F01002DA60214B1B681A68204BB3
:100868001B6842F020021A601D4B1B685A681C4B1B
:100878001B6822F020025A60194B1B689A68184BB3
:100888001B6842F020029A60154B1B68DA68144B0B
:100898001B6822F02002DA60114B1B685A69104B62
:1008A8001B6842F020025A610E4B1B68602283F8D5
:1008B80017230C4B1B681A680A4B1B6842F400028A
:1008C8001A6000BFFDE700BF740B00085C0B00084E
:1008D800580B0008C400002000380240400B0008F4
:1008E800440B0008C40A000810B5054C237833B936
:1008F800044B13B10448AFF300800123237010BDEB
:10090800CC00002000000000A00A000808B5034B36
:100918001BB103490348AFF3008008BD0000000085
:10092800D0000020A00A00080D480E490E4A914246
:1009380004D050F8044B41F8044BF8E70B480C4935
:100948004FF00002884202D040F8042BFAE7FFF784
:1009580027FE00F017F8FFF713FFFFF7FEBF0000B0
:10096800300C000800000020B0000020B00000207B
:1009780080020020FEE70000002301461A461846C0
:1009880000F040B870B50F4B0F4DAB42A3EB050616
:1009980007D0B610002455F8043B01349847A64206
:1009A800F9D800F079F8094D094B5E1BAB424FEAC4
:1009B800A60606D0002455F8043B01349847A64201
:1009C800F9D870BD240C0008240C0008240C000879
:1009D8002C0C000838B5074D074C2C1BA41005D06B
:1009E800013C55F8043D9847002CF9D1BDE8384042
:1009F80000F058B8300C00082C0C0008704700BFF5
:100A0800704700BF2DE9F8431B4D064628689846F5
:100A18000F469146FFF7F2FF184B1C681CB3286875
:100A280065681F2D22DC4EB96B1C0235636044F8E3
:100A38002570FFF7E5FF0020BDE8F88304EB85018A
:100A48000123C1F88890D4F88821AB401A43022EBC
:100A5800C4F88821C1F80881E6D1D4F88C211A435A
:100A6800C4F88C21E0E7064C1C60D8E7FFF7C8FF04
:100A78004FF0FF30E0E700BFAC0000207C02002010
:100A8800EC000020024B13B10248FFF775BF704716
:100A980000000000DD090008F8B500BFF8BC08BC7C
:100AA8009E467047F8B500BFF8BC08BC9E46704724
:100AB80000E000E000ED00E010E000E000E100E010
:100AC800000000E0001000E0000004E0F0ED00E0AD
:100AD80090ED00E030EF00E000000040000400402E
:100AE80000080040000C004000280040002C004096
:100AF800003000400034004000380040003C004016
:100B080000400040004400400054004000580040AD
:100B1800005C0040007000400000014000100140EF
:100B2800001401400020014000230140002C014036
:100B3800003001400034014000380140003C0140D1
:100B4800004001400044014000480140005001407D
:100B5800000002400004024000080240000C02406D
:100B680000100240001C02400030024000380240E1
:100B7800003C0240006002401060024028600240D1
:100B88004060024058600240706002408860024045
:100B9800A0600240B8600240006402401064024055
:100BA8002864024040640240586402407064024075
:100BB80088640240A0640240B8640240002004E057
:100BC80000000050000000000000000001020304C3
:100BD800060708093D400B401040264035400340B9
:100BE800064014400E400D40254012402840024067
:100BF800184009400A4000003D400B401040264084
:100C080035400340064014400E400D402540124038
:0C0C180028400240184009400A4000003B
:080C24008D0A00081509000803
:040C2C00F1080008C3
:100C300001000000000000000000000000000000B3
:100C40000000000000000000000000000201600041
:100C5000080202000005040103000000006CDC0231
:100C6000001BB70000366E010201500108040700A6
:100C7000000400020200000000BD010580DE8002C9
:100C800000BD01050201C0000802020000040003CB
:100C90000300000000D8B805006CDC0200D8B805DD
:100CA0000000000000000000000000000000000044
:100CB00000000000000000000000000002005001E1
:100CC00008040700000400020200000000BD010546
:100CD00080DE800200BD01050024F400E800002051
:0400000508000931B5
:00000001FF
